{
  "contractName": "HouseFactory",
  "abi": [
    {
      "inputs": [
        {
          "internalType": "address",
          "name": "_libraryAddress",
          "type": "address"
        }
      ],
      "stateMutability": "nonpayable",
      "type": "constructor"
    },
    {
      "anonymous": false,
      "inputs": [
        {
          "indexed": false,
          "internalType": "address",
          "name": "newHouse",
          "type": "address"
        }
      ],
      "name": "HouseCreated",
      "type": "event"
    },
    {
      "anonymous": false,
      "inputs": [
        {
          "indexed": true,
          "internalType": "address",
          "name": "previousOwner",
          "type": "address"
        },
        {
          "indexed": true,
          "internalType": "address",
          "name": "newOwner",
          "type": "address"
        }
      ],
      "name": "OwnershipTransferred",
      "type": "event"
    },
    {
      "inputs": [
        {
          "internalType": "uint256",
          "name": "",
          "type": "uint256"
        }
      ],
      "name": "clones",
      "outputs": [
        {
          "internalType": "address",
          "name": "",
          "type": "address"
        }
      ],
      "stateMutability": "view",
      "type": "function",
      "constant": true
    },
    {
      "inputs": [
        {
          "internalType": "address",
          "name": "",
          "type": "address"
        },
        {
          "internalType": "uint256",
          "name": "",
          "type": "uint256"
        }
      ],
      "name": "closestHouses",
      "outputs": [
        {
          "internalType": "address",
          "name": "",
          "type": "address"
        }
      ],
      "stateMutability": "view",
      "type": "function",
      "constant": true
    },
    {
      "inputs": [],
      "name": "libraryAddress",
      "outputs": [
        {
          "internalType": "address",
          "name": "",
          "type": "address"
        }
      ],
      "stateMutability": "view",
      "type": "function",
      "constant": true
    },
    {
      "inputs": [],
      "name": "owner",
      "outputs": [
        {
          "internalType": "address",
          "name": "",
          "type": "address"
        }
      ],
      "stateMutability": "view",
      "type": "function",
      "constant": true
    },
    {
      "inputs": [],
      "name": "renounceOwnership",
      "outputs": [],
      "stateMutability": "nonpayable",
      "type": "function"
    },
    {
      "inputs": [
        {
          "internalType": "address",
          "name": "newOwner",
          "type": "address"
        }
      ],
      "name": "transferOwnership",
      "outputs": [],
      "stateMutability": "nonpayable",
      "type": "function"
    },
    {
      "inputs": [
        {
          "internalType": "uint256",
          "name": "_latitude",
          "type": "uint256"
        },
        {
          "internalType": "uint256",
          "name": "_longitude",
          "type": "uint256"
        }
      ],
      "name": "createHouse",
      "outputs": [],
      "stateMutability": "nonpayable",
      "type": "function"
    },
    {
      "inputs": [],
      "name": "getAllHouses",
      "outputs": [
        {
          "internalType": "address[]",
          "name": "",
          "type": "address[]"
        }
      ],
      "stateMutability": "view",
      "type": "function",
      "constant": true
    },
    {
      "inputs": [
        {
          "internalType": "address",
          "name": "houseWithSolar",
          "type": "address"
        }
      ],
      "name": "makeTransfer",
      "outputs": [],
      "stateMutability": "nonpayable",
      "type": "function"
    },
    {
      "inputs": [
        {
          "internalType": "address",
          "name": "houseAddress",
          "type": "address"
        }
      ],
      "name": "addHouseToMap",
      "outputs": [],
      "stateMutability": "nonpayable",
      "type": "function"
    },
    {
      "inputs": [
        {
          "internalType": "address[]",
          "name": "houseArray",
          "type": "address[]"
        },
        {
          "internalType": "address",
          "name": "curHouse",
          "type": "address"
        }
      ],
      "name": "insertionSort",
      "outputs": [
        {
          "internalType": "address[]",
          "name": "",
          "type": "address[]"
        }
      ],
      "stateMutability": "view",
      "type": "function",
      "constant": true
    },
    {
      "inputs": [
        {
          "internalType": "address",
          "name": "houseAddress",
          "type": "address"
        },
        {
          "internalType": "uint256",
          "name": "clonesSize",
          "type": "uint256"
        }
      ],
      "name": "createHouseArrayMinusCurrentHouse",
      "outputs": [
        {
          "internalType": "address[]",
          "name": "",
          "type": "address[]"
        }
      ],
      "stateMutability": "view",
      "type": "function",
      "constant": true
    },
    {
      "inputs": [
        {
          "internalType": "uint256",
          "name": "latitude1",
          "type": "uint256"
        },
        {
          "internalType": "uint256",
          "name": "latitude2",
          "type": "uint256"
        },
        {
          "internalType": "uint256",
          "name": "longitude1",
          "type": "uint256"
        },
        {
          "internalType": "uint256",
          "name": "longitude2",
          "type": "uint256"
        }
      ],
      "name": "calculateDistanceBetweenHouses",
      "outputs": [
        {
          "internalType": "uint256",
          "name": "",
          "type": "uint256"
        }
      ],
      "stateMutability": "pure",
      "type": "function",
      "constant": true
    },
    {
      "inputs": [
        {
          "internalType": "uint256",
          "name": "y",
          "type": "uint256"
        }
      ],
      "name": "sqrt",
      "outputs": [
        {
          "internalType": "uint256",
          "name": "z",
          "type": "uint256"
        }
      ],
      "stateMutability": "pure",
      "type": "function",
      "constant": true
    }
  ],
  "bytecode": "0x60806040523480156200001157600080fd5b5060405162001fc138038062001fc18339818101604052810190620000379190620001d5565b620000576200004b6200009f60201b60201c565b620000a760201b60201c565b80600160006101000a81548173ffffffffffffffffffffffffffffffffffffffff021916908373ffffffffffffffffffffffffffffffffffffffff1602179055505062000207565b600033905090565b60008060009054906101000a900473ffffffffffffffffffffffffffffffffffffffff169050816000806101000a81548173ffffffffffffffffffffffffffffffffffffffff021916908373ffffffffffffffffffffffffffffffffffffffff1602179055508173ffffffffffffffffffffffffffffffffffffffff168173ffffffffffffffffffffffffffffffffffffffff167f8be0079c531659141344cd1fd0a4f28419497f9722a3daafe3b4186f6b6457e060405160405180910390a35050565b600080fd5b600073ffffffffffffffffffffffffffffffffffffffff82169050919050565b60006200019d8262000170565b9050919050565b620001af8162000190565b8114620001bb57600080fd5b50565b600081519050620001cf81620001a4565b92915050565b600060208284031215620001ee57620001ed6200016b565b5b6000620001fe84828501620001be565b91505092915050565b611daa80620002176000396000f3fe608060405234801561001057600080fd5b50600436106100ea5760003560e01c80638da5cb5b1161008c578063d87deea811610066578063d87deea81461025d578063e3351f581461027b578063f0923bc714610297578063f2fde38b146102c7576100ea565b80638da5cb5b146101f1578063b816f5131461020f578063cf3a69f91461022d576100ea565b80632d5cea8e116100c85780632d5cea8e1461017f5780632e4b2dc01461019b578063677342ce146101b7578063715018a6146101e7576100ea565b80630a40ba69146100ef5780630e0399161461011f57806318d73d2c1461014f575b600080fd5b6101096004803603810190610104919061146d565b6102e3565b60405161011691906114e3565b60405180910390f35b610139600480360381019061013491906114fe565b610336565b604051610146919061156c565b60405180910390f35b610169600480360381019061016491906115b3565b610375565b604051610176919061156c565b60405180910390f35b610199600480360381019061019491906115f3565b6103c3565b005b6101b560048036038101906101b09190611620565b6103c6565b005b6101d160048036038101906101cc91906114fe565b61058d565b6040516101de91906114e3565b60405180910390f35b6101ef610607565b005b6101f961061b565b604051610206919061156c565b60405180910390f35b610217610644565b604051610224919061156c565b60405180910390f35b610247600480360381019061024291906115b3565b61066a565b604051610254919061171e565b60405180910390f35b6102656107fc565b604051610272919061171e565b60405180910390f35b610295600480360381019061029091906115f3565b61088a565b005b6102b160048036038101906102ac9190611899565b610a39565b6040516102be919061171e565b60405180910390f35b6102e160048036038101906102dc91906115f3565b610f55565b005b6000806102f08686610fd8565b905060006102fe8585610fd8565b9050600061031e61030f8485610fee565b6103198485610fee565b611004565b90506103298161058d565b9350505050949350505050565b6002818154811061034657600080fd5b906000526020600020016000915054906101000a900473ffffffffffffffffffffffffffffffffffffffff1681565b6003602052816000526040600020818154811061039157600080fd5b906000526020600020016000915091509054906101000a900473ffffffffffffffffffffffffffffffffffffffff1681565b50565b60006103f3600160009054906101000a900473ffffffffffffffffffffffffffffffffffffffff1661101a565b905060008190508073ffffffffffffffffffffffffffffffffffffffff1663e4a3011685856040518363ffffffff1660e01b81526004016104359291906118f5565b600060405180830381600087803b15801561044f57600080fd5b505af1158015610463573d6000803e3d6000fd5b505050506002829080600181540180825580915050600190039060005260206000200160009091909190916101000a81548173ffffffffffffffffffffffffffffffffffffffff021916908373ffffffffffffffffffffffffffffffffffffffff1602179055507f37acd5820bb80999bd4703a1876fd351428c2fe9f93363014f4081a6f5e434d8826040516104f9919061156c565b60405180910390a16105406040518060400160405280601c81526020017f486f7573652063726561746564207769746820616464726573733a2000000000815250836110d4565b6105498261088a565b6105876040518060400160405280601b81526020017f4e657720686f75736520616464656420746f2068617368206d61700000000000815250611170565b50505050565b600060038211156105f457819050600060016002846105ac919061197c565b6105b691906119ad565b90505b818110156105ee5780915060028182856105d3919061197c565b6105dd91906119ad565b6105e7919061197c565b90506105b9565b50610602565b6000821461060157600190505b5b919050565b61060f611209565b6106196000611287565b565b60008060009054906101000a900473ffffffffffffffffffffffffffffffffffffffff16905090565b600160009054906101000a900473ffffffffffffffffffffffffffffffffffffffff1681565b6060600060018361067b91906119e1565b67ffffffffffffffff81111561069457610693611756565b5b6040519080825280602002602001820160405280156106c25781602001602082028036833780820191505090505b5090506000805b848110156107f0578573ffffffffffffffffffffffffffffffffffffffff16600282815481106106fc576106fb611a15565b5b9060005260206000200160009054906101000a900473ffffffffffffffffffffffffffffffffffffffff1673ffffffffffffffffffffffffffffffffffffffff16146107cf576002818154811061075657610755611a15565b5b9060005260206000200160009054906101000a900473ffffffffffffffffffffffffffffffffffffffff1683838151811061079457610793611a15565b5b602002602001019073ffffffffffffffffffffffffffffffffffffffff16908173ffffffffffffffffffffffffffffffffffffffff16815250505b81806107da90611a44565b92505080806107e890611a44565b9150506106c9565b50819250505092915050565b6060600280548060200260200160405190810160405280929190818152602001828054801561088057602002820191906000526020600020905b8160009054906101000a900473ffffffffffffffffffffffffffffffffffffffff1673ffffffffffffffffffffffffffffffffffffffff1681526020019060010190808311610836575b5050505050905090565b606080600360008473ffffffffffffffffffffffffffffffffffffffff1673ffffffffffffffffffffffffffffffffffffffff16815260200190815260200160002090805190602001906108df92919061137c565b5060005b600280549050811015610a3457600061093f6002838154811061090957610908611a15565b5b9060005260206000200160009054906101000a900473ffffffffffffffffffffffffffffffffffffffff1660028054905061066a565b9050600061098b826002858154811061095b5761095a611a15565b5b9060005260206000200160009054906101000a900473ffffffffffffffffffffffffffffffffffffffff16610a39565b90508060036000600286815481106109a6576109a5611a15565b5b9060005260206000200160009054906101000a900473ffffffffffffffffffffffffffffffffffffffff1673ffffffffffffffffffffffffffffffffffffffff1673ffffffffffffffffffffffffffffffffffffffff1681526020019081526020016000209080519060200190610a1e92919061137c565b5050508080610a2c90611a44565b9150506108e3565b505050565b60606000835190506000600190505b81811015610f4a576000858281518110610a6557610a64611a15565b5b602002602001015190506000600183610a7e91906119e1565b90506000610c468373ffffffffffffffffffffffffffffffffffffffff1663ae7b6bd96040518163ffffffff1660e01b8152600401602060405180830381865afa158015610ad0573d6000803e3d6000fd5b505050506040513d601f19601f82011682018060405250810190610af49190611aa1565b8873ffffffffffffffffffffffffffffffffffffffff1663ae7b6bd96040518163ffffffff1660e01b8152600401602060405180830381865afa158015610b3f573d6000803e3d6000fd5b505050506040513d601f19601f82011682018060405250810190610b639190611aa1565b8573ffffffffffffffffffffffffffffffffffffffff166355b72f386040518163ffffffff1660e01b8152600401602060405180830381865afa158015610bae573d6000803e3d6000fd5b505050506040513d601f19601f82011682018060405250810190610bd29190611aa1565b8a73ffffffffffffffffffffffffffffffffffffffff166355b72f386040518163ffffffff1660e01b8152600401602060405180830381865afa158015610c1d573d6000803e3d6000fd5b505050506040513d601f19601f82011682018060405250810190610c419190611aa1565b6102e3565b90505b60008210158015610e505750610e4d888381518110610c6b57610c6a611a15565b5b602002602001015173ffffffffffffffffffffffffffffffffffffffff1663ae7b6bd96040518163ffffffff1660e01b8152600401602060405180830381865afa158015610cbd573d6000803e3d6000fd5b505050506040513d601f19601f82011682018060405250810190610ce19190611aa1565b8873ffffffffffffffffffffffffffffffffffffffff1663ae7b6bd96040518163ffffffff1660e01b8152600401602060405180830381865afa158015610d2c573d6000803e3d6000fd5b505050506040513d601f19601f82011682018060405250810190610d509190611aa1565b8a8581518110610d6357610d62611a15565b5b602002602001015173ffffffffffffffffffffffffffffffffffffffff166355b72f386040518163ffffffff1660e01b8152600401602060405180830381865afa158015610db5573d6000803e3d6000fd5b505050506040513d601f19601f82011682018060405250810190610dd99190611aa1565b8a73ffffffffffffffffffffffffffffffffffffffff166355b72f386040518163ffffffff1660e01b8152600401602060405180830381865afa158015610e24573d6000803e3d6000fd5b505050506040513d601f19601f82011682018060405250810190610e489190611aa1565b6102e3565b81105b15610eda57878281518110610e6857610e67611a15565b5b602002602001015188600184610e7e91906119ad565b81518110610e8f57610e8e611a15565b5b602002602001019073ffffffffffffffffffffffffffffffffffffffff16908173ffffffffffffffffffffffffffffffffffffffff168152505081610ed390611ace565b9150610c49565b8288600184610ee991906119ad565b81518110610efa57610ef9611a15565b5b602002602001019073ffffffffffffffffffffffffffffffffffffffff16908173ffffffffffffffffffffffffffffffffffffffff16815250505050508080610f4290611a44565b915050610a48565b508391505092915050565b610f5d611209565b600073ffffffffffffffffffffffffffffffffffffffff168173ffffffffffffffffffffffffffffffffffffffff1603610fcc576040517f08c379a0000000000000000000000000000000000000000000000000000000008152600401610fc390611b7a565b60405180910390fd5b610fd581611287565b50565b60008183610fe691906119e1565b905092915050565b60008183610ffc9190611b9a565b905092915050565b6000818361101291906119ad565b905092915050565b6000763d602d80600a3d3981f3363d3d373d3d3d363d730000008260601b60e81c176000526e5af43d82803e903d91602b57fd5bf38260781b17602052603760096000f09050600073ffffffffffffffffffffffffffffffffffffffff168173ffffffffffffffffffffffffffffffffffffffff16036110cf576040517f08c379a00000000000000000000000000000000000000000000000000000000081526004016110c690611c28565b60405180910390fd5b919050565b61116c82826040516024016110ea929190611cb6565b6040516020818303038152906040527f319af333000000000000000000000000000000000000000000000000000000007bffffffffffffffffffffffffffffffffffffffffffffffffffffffff19166020820180517bffffffffffffffffffffffffffffffffffffffffffffffffffffffff838183161783525050505061134b565b5050565b611206816040516024016111849190611ce6565b6040516020818303038152906040527f41304fac000000000000000000000000000000000000000000000000000000007bffffffffffffffffffffffffffffffffffffffffffffffffffffffff19166020820180517bffffffffffffffffffffffffffffffffffffffffffffffffffffffff838183161783525050505061134b565b50565b611211611374565b73ffffffffffffffffffffffffffffffffffffffff1661122f61061b565b73ffffffffffffffffffffffffffffffffffffffff1614611285576040517f08c379a000000000000000000000000000000000000000000000000000000000815260040161127c90611d54565b60405180910390fd5b565b60008060009054906101000a900473ffffffffffffffffffffffffffffffffffffffff169050816000806101000a81548173ffffffffffffffffffffffffffffffffffffffff021916908373ffffffffffffffffffffffffffffffffffffffff1602179055508173ffffffffffffffffffffffffffffffffffffffff168173ffffffffffffffffffffffffffffffffffffffff167f8be0079c531659141344cd1fd0a4f28419497f9722a3daafe3b4186f6b6457e060405160405180910390a35050565b60008151905060006a636f6e736f6c652e6c6f679050602083016000808483855afa5050505050565b600033905090565b8280548282559060005260206000209081019282156113f5579160200282015b828111156113f45782518260006101000a81548173ffffffffffffffffffffffffffffffffffffffff021916908373ffffffffffffffffffffffffffffffffffffffff1602179055509160200191906001019061139c565b5b5090506114029190611406565b5090565b5b8082111561141f576000816000905550600101611407565b5090565b6000604051905090565b600080fd5b600080fd5b6000819050919050565b61144a81611437565b811461145557600080fd5b50565b60008135905061146781611441565b92915050565b600080600080608085870312156114875761148661142d565b5b600061149587828801611458565b94505060206114a687828801611458565b93505060406114b787828801611458565b92505060606114c887828801611458565b91505092959194509250565b6114dd81611437565b82525050565b60006020820190506114f860008301846114d4565b92915050565b6000602082840312156115145761151361142d565b5b600061152284828501611458565b91505092915050565b600073ffffffffffffffffffffffffffffffffffffffff82169050919050565b60006115568261152b565b9050919050565b6115668161154b565b82525050565b6000602082019050611581600083018461155d565b92915050565b6115908161154b565b811461159b57600080fd5b50565b6000813590506115ad81611587565b92915050565b600080604083850312156115ca576115c961142d565b5b60006115d88582860161159e565b92505060206115e985828601611458565b9150509250929050565b6000602082840312156116095761160861142d565b5b60006116178482850161159e565b91505092915050565b600080604083850312156116375761163661142d565b5b600061164585828601611458565b925050602061165685828601611458565b9150509250929050565b600081519050919050565b600082825260208201905092915050565b6000819050602082019050919050565b6116958161154b565b82525050565b60006116a7838361168c565b60208301905092915050565b6000602082019050919050565b60006116cb82611660565b6116d5818561166b565b93506116e08361167c565b8060005b838110156117115781516116f8888261169b565b9750611703836116b3565b9250506001810190506116e4565b5085935050505092915050565b6000602082019050818103600083015261173881846116c0565b905092915050565b600080fd5b6000601f19601f8301169050919050565b7f4e487b7100000000000000000000000000000000000000000000000000000000600052604160045260246000fd5b61178e82611745565b810181811067ffffffffffffffff821117156117ad576117ac611756565b5b80604052505050565b60006117c0611423565b90506117cc8282611785565b919050565b600067ffffffffffffffff8211156117ec576117eb611756565b5b602082029050602081019050919050565b600080fd5b6000611815611810846117d1565b6117b6565b90508083825260208201905060208402830185811115611838576118376117fd565b5b835b81811015611861578061184d888261159e565b84526020840193505060208101905061183a565b5050509392505050565b600082601f8301126118805761187f611740565b5b8135611890848260208601611802565b91505092915050565b600080604083850312156118b0576118af61142d565b5b600083013567ffffffffffffffff8111156118ce576118cd611432565b5b6118da8582860161186b565b92505060206118eb8582860161159e565b9150509250929050565b600060408201905061190a60008301856114d4565b61191760208301846114d4565b9392505050565b7f4e487b7100000000000000000000000000000000000000000000000000000000600052601260045260246000fd5b7f4e487b7100000000000000000000000000000000000000000000000000000000600052601160045260246000fd5b600061198782611437565b915061199283611437565b9250826119a2576119a161191e565b5b828204905092915050565b60006119b882611437565b91506119c383611437565b92508282019050808211156119db576119da61194d565b5b92915050565b60006119ec82611437565b91506119f783611437565b9250828203905081811115611a0f57611a0e61194d565b5b92915050565b7f4e487b7100000000000000000000000000000000000000000000000000000000600052603260045260246000fd5b6000611a4f82611437565b91507fffffffffffffffffffffffffffffffffffffffffffffffffffffffffffffffff8203611a8157611a8061194d565b5b600182019050919050565b600081519050611a9b81611441565b92915050565b600060208284031215611ab757611ab661142d565b5b6000611ac584828501611a8c565b91505092915050565b6000611ad982611437565b915060008203611aec57611aeb61194d565b5b600182039050919050565b600082825260208201905092915050565b7f4f776e61626c653a206e6577206f776e657220697320746865207a65726f206160008201527f6464726573730000000000000000000000000000000000000000000000000000602082015250565b6000611b64602683611af7565b9150611b6f82611b08565b604082019050919050565b60006020820190508181036000830152611b9381611b57565b9050919050565b6000611ba582611437565b9150611bb083611437565b9250828202611bbe81611437565b91508282048414831517611bd557611bd461194d565b5b5092915050565b7f455243313136373a20637265617465206661696c656400000000000000000000600082015250565b6000611c12601683611af7565b9150611c1d82611bdc565b602082019050919050565b60006020820190508181036000830152611c4181611c05565b9050919050565b600081519050919050565b60005b83811015611c71578082015181840152602081019050611c56565b60008484015250505050565b6000611c8882611c48565b611c928185611af7565b9350611ca2818560208601611c53565b611cab81611745565b840191505092915050565b60006040820190508181036000830152611cd08185611c7d565b9050611cdf602083018461155d565b9392505050565b60006020820190508181036000830152611d008184611c7d565b905092915050565b7f4f776e61626c653a2063616c6c6572206973206e6f7420746865206f776e6572600082015250565b6000611d3e602083611af7565b9150611d4982611d08565b602082019050919050565b60006020820190508181036000830152611d6d81611d31565b905091905056fea2646970667358221220cadf96a2ad026b3b629249583ed89f28e525a04108fe86d513094c310a4e533064736f6c63430008130033",
  "immutableReferences": {},
  "source": "//SPDX-License-Identifier: Unlicense\n// contracts/HouseFactory.sol\n/// @title\n/// @author Julia Groza\n/// @notice \n\npragma solidity ^0.8.0;\n\nimport \"hardhat/console.sol\";\nimport \"./House.sol\";\nimport \"@openzeppelin/contracts/proxy/Clones.sol\";\nimport \"@openzeppelin/contracts/access/Ownable.sol\";\nimport \"@openzeppelin/contracts/utils/math/SafeMath.sol\";\n\ncontract HouseFactory is Ownable{\n\n    address public libraryAddress;\n    event HouseCreated(address newHouse);\n    address[] public clones;\n    mapping(address => address[]) public closestHouses;\n\n    // Initializing the address that deploys the HouseFactory contract\n    constructor(address _libraryAddress) {\n        libraryAddress = _libraryAddress;\n    }\n\n    function createHouse(uint _latitude, uint _longitude) external {\n        address house = Clones.clone(libraryAddress); // creates a new House object with the createClone function from CloneFactory.sol\n        House newHouse = House(house);\n        newHouse.initialize(_latitude, _longitude);\n        clones.push(house); // adds house to array of houses in the HouseFactory contract\n        emit HouseCreated(house); // emits an event for visibility purposes\n        console.log(\"House created with address: \", house);\n        addHouseToMap(house);\n        console.log(\"New house added to hash map\");\n    }\n\n    function getAllHouses() external view returns (address[] memory) {\n        return clones;\n    }\n\n    function makeTransfer(address houseWithSolar) public {\n    \n    }\n\n    function addHouseToMap(address houseAddress) public {\n        // add house with empty array to mapping\n        address[] memory emptyArray;\n        closestHouses[houseAddress] = emptyArray;\n\n        // for each house, we need to make an array of houses\n        for (uint i = 0; i < clones.length; i++){\n            // we need to remove the current house from the array\n            address[] memory houseArray = createHouseArrayMinusCurrentHouse(clones[i], clones.length);\n            // need to sort array based on distance from house we are selecting to the rest of the houses\n            address[] memory sortedArray = insertionSort(houseArray, clones[i]);\n            closestHouses[clones[i]] = sortedArray; // add new sorted array to hashmap for particular house address\n        }\n    }\n\n    function insertionSort(address[] memory houseArray, address curHouse) public view returns (address[] memory){\n        uint size = houseArray.length;\n        for (uint i = 1; i < size; i++){\n            address key = houseArray[i];\n            uint j = i - 1;\n\n            uint distanceFromKeyToHouse = calculateDistanceBetweenHouses(House(key).getLatitude(), House(curHouse).getLatitude(), House(key).getLongitude(), House(curHouse).getLongitude());\n            while (j >= 0 && distanceFromKeyToHouse < calculateDistanceBetweenHouses(House(houseArray[j]).getLatitude(), House(curHouse).getLatitude(), House(houseArray[j]).getLongitude(), House(curHouse).getLongitude())){\n                houseArray[j + 1] = houseArray[j];\n                --j;\n            }\n            houseArray[j + 1] = key;\n        }\n        return houseArray;\n    }\n\n    function createHouseArrayMinusCurrentHouse(address houseAddress, uint clonesSize) public view returns (address[] memory){\n        address[] memory houseArray = new address[](clonesSize - 1);\n        uint counter = 0;\n        for (uint i = 0; i < clonesSize; i++){\n            if (clones[i] != houseAddress){\n                houseArray[counter] = clones[i];\n            }\n            counter++;\n        }\n        return houseArray;\n    }\n\n    function calculateDistanceBetweenHouses(uint latitude1, uint latitude2, uint longitude1, uint longitude2) public pure returns (uint){\n        uint x = SafeMath.sub(latitude1, latitude2);\n        uint y = SafeMath.sub(longitude1, longitude2);\n        uint xPlusYSquared = SafeMath.add(SafeMath.mul(x, x), SafeMath.mul(y, y));\n        return sqrt(xPlusYSquared);\n    }\n\n    function sqrt(uint y) public pure returns (uint z) {\n        if (y > 3) {\n            z = y;\n            uint x = y / 2 + 1;\n            while (x < z) {\n                z = x;\n                x = (y / x + x) / 2;\n            }\n        } \n        else if (y != 0) {\n            z = 1;\n        }\n    }\n}",
  "sourcePath": "/Users/juliagroza/Desktop/virtual-net-metering/contracts/HouseFactory.sol",
  "compiler": {
    "name": "solc",
    "version": "0.8.19+commit.7dd6d404.Emscripten.clang"
  },
  "schemaVersion": "3.4.14",
  "updatedAt": "2023-07-07T20:15:04.240Z",
  "networkType": "ethereum",
  "devdoc": {
    "kind": "dev",
    "methods": {
      "owner()": {
        "details": "Returns the address of the current owner."
      },
      "renounceOwnership()": {
        "details": "Leaves the contract without owner. It will not be possible to call `onlyOwner` functions. Can only be called by the current owner. NOTE: Renouncing ownership will leave the contract without an owner, thereby disabling any functionality that is only available to the owner."
      },
      "transferOwnership(address)": {
        "details": "Transfers ownership of the contract to a new account (`newOwner`). Can only be called by the current owner."
      }
    },
    "version": 1
  },
  "userdoc": {
    "kind": "user",
    "methods": {},
    "version": 1
  }
}