{
  "contractName": "House",
  "abi": [
    {
      "inputs": [
        {
          "internalType": "uint256",
          "name": "_latitude",
          "type": "uint256"
        },
        {
          "internalType": "uint256",
          "name": "_longitude",
          "type": "uint256"
        },
        {
          "internalType": "address",
          "name": "_libraryAddress",
          "type": "address"
        }
      ],
      "stateMutability": "nonpayable",
      "type": "constructor"
    },
    {
      "inputs": [
        {
          "internalType": "uint256",
          "name": "_latitude",
          "type": "uint256"
        },
        {
          "internalType": "uint256",
          "name": "_longitude",
          "type": "uint256"
        }
      ],
      "name": "initialize",
      "outputs": [],
      "stateMutability": "nonpayable",
      "type": "function"
    },
    {
      "inputs": [
        {
          "internalType": "uint256",
          "name": "_pvGeneration",
          "type": "uint256"
        }
      ],
      "name": "setPVGeneration",
      "outputs": [],
      "stateMutability": "nonpayable",
      "type": "function"
    },
    {
      "inputs": [],
      "name": "getPVGeneration",
      "outputs": [
        {
          "internalType": "uint256",
          "name": "",
          "type": "uint256"
        }
      ],
      "stateMutability": "view",
      "type": "function",
      "constant": true
    },
    {
      "inputs": [
        {
          "internalType": "uint256",
          "name": "amount",
          "type": "uint256"
        }
      ],
      "name": "subtractFromPVGeneration",
      "outputs": [],
      "stateMutability": "nonpayable",
      "type": "function"
    },
    {
      "inputs": [
        {
          "internalType": "uint256",
          "name": "amount",
          "type": "uint256"
        }
      ],
      "name": "addToPVGeneration",
      "outputs": [],
      "stateMutability": "nonpayable",
      "type": "function"
    },
    {
      "inputs": [],
      "name": "getLatitude",
      "outputs": [
        {
          "internalType": "uint256",
          "name": "",
          "type": "uint256"
        }
      ],
      "stateMutability": "view",
      "type": "function",
      "constant": true
    },
    {
      "inputs": [],
      "name": "getLongitude",
      "outputs": [
        {
          "internalType": "uint256",
          "name": "",
          "type": "uint256"
        }
      ],
      "stateMutability": "view",
      "type": "function",
      "constant": true
    },
    {
      "inputs": [
        {
          "internalType": "uint256",
          "name": "_demand",
          "type": "uint256"
        }
      ],
      "name": "setDemand",
      "outputs": [],
      "stateMutability": "nonpayable",
      "type": "function"
    },
    {
      "inputs": [],
      "name": "getDemand",
      "outputs": [
        {
          "internalType": "uint256",
          "name": "",
          "type": "uint256"
        }
      ],
      "stateMutability": "view",
      "type": "function",
      "constant": true
    },
    {
      "inputs": [],
      "name": "booleanNeedPV",
      "outputs": [
        {
          "internalType": "bool",
          "name": "",
          "type": "bool"
        }
      ],
      "stateMutability": "view",
      "type": "function",
      "constant": true
    },
    {
      "inputs": [],
      "name": "getSolarTokenBalance",
      "outputs": [
        {
          "internalType": "uint256",
          "name": "",
          "type": "uint256"
        }
      ],
      "stateMutability": "view",
      "type": "function",
      "constant": true
    },
    {
      "inputs": [],
      "name": "getSolarToken",
      "outputs": [
        {
          "internalType": "contract Solar",
          "name": "",
          "type": "address"
        }
      ],
      "stateMutability": "view",
      "type": "function",
      "constant": true
    }
  ],
  "bytecode": "0x60806040523480156200001157600080fd5b5060405162002a6f38038062002a6f833981810160405281019062000037919062000134565b826002819055508160038190555080600560006101000a81548173ffffffffffffffffffffffffffffffffffffffff021916908373ffffffffffffffffffffffffffffffffffffffff16021790555050505062000190565b600080fd5b6000819050919050565b620000a98162000094565b8114620000b557600080fd5b50565b600081519050620000c9816200009e565b92915050565b600073ffffffffffffffffffffffffffffffffffffffff82169050919050565b6000620000fc82620000cf565b9050919050565b6200010e81620000ef565b81146200011a57600080fd5b50565b6000815190506200012e8162000103565b92915050565b60008060006060848603121562000150576200014f6200008f565b5b60006200016086828701620000b8565b93505060206200017386828701620000b8565b925050604062000186868287016200011d565b9150509250925092565b6128cf80620001a06000396000f3fe60806040523480156200001157600080fd5b5060043610620000c45760003560e01c8063dffe4176116200007b578063dffe41761462000191578063e1712fb714620001b1578063e4a3011614620001d1578063f202699214620001f1578063fa3c0a1b1462000213578063fb2d464c146200023557620000c4565b80631972f56414620000c957806355b72f3814620000e957806366742bb9146200010b578063747ee29d146200012d5780637b273f01146200014d578063ae7b6bd9146200016f575b600080fd5b620000e76004803603810190620000e19190620008e5565b62000257565b005b620000f3620002a2565b60405162000102919062000928565b60405180910390f35b62000115620002ac565b60405162000124919062000962565b60405180910390f35b6200014b6004803603810190620001459190620008e5565b620002cd565b005b62000157620002e6565b60405162000166919062000928565b60405180910390f35b6200017962000333565b60405162000188919062000928565b60405180910390f35b620001af6004803603810190620001a99190620008e5565b6200033d565b005b620001cf6004803603810190620001c99190620008e5565b62000394565b005b620001ef6004803603810190620001e991906200097f565b620003ad565b005b620001fb62000455565b6040516200020a919062000a51565b60405180910390f35b6200021d6200047f565b6040516200022c919062000928565b60405180910390f35b6200023f620004cc565b6040516200024e919062000928565b60405180910390f35b620002986040518060400160405280600e81526020017f5365742064656d616e6420746f200000000000000000000000000000000000008152508262000574565b8060018190555050565b6000600354905090565b60006001546000541115620002c55760009050620002ca565b600190505b90565b80600054620002dd919062000a9d565b60008190555050565b60006200032b6040518060400160405280600c81526020017f4765742064656d616e643a20000000000000000000000000000000000000000081525060015462000574565b600154905090565b6000600254905090565b80600081905550620003876040518060400160405280601481526020017f5365742050562067656e65726174656420746f2000000000000000000000000081525060005462000574565b6200039162000614565b50565b80600054620003a4919062000ad8565b60008190555050565b8160028190555080600381905550735f8e26facc23fa4cbd87b8d9dbbd33d5047abde1600560006101000a81548173ffffffffffffffffffffffffffffffffffffffff021916908373ffffffffffffffffffffffffffffffffffffffff160217905550620004516040518060400160405280601681526020017f4465706c6f79656420486f75736520627920272573270000000000000000000081525033620007d2565b5050565b6000600460009054906101000a900473ffffffffffffffffffffffffffffffffffffffff16905090565b6000620004c46040518060400160405280601281526020017f4765742050562067656e6572617465643a20000000000000000000000000000081525060005462000574565b600054905090565b6000600460009054906101000a900473ffffffffffffffffffffffffffffffffffffffff1673ffffffffffffffffffffffffffffffffffffffff166370a08231336040518263ffffffff1660e01b81526004016200052b919062000b38565b602060405180830381865afa15801562000549573d6000803e3d6000fd5b505050506040513d601f19601f820116820180604052508101906200056f919062000b6c565b905090565b6200061082826040516024016200058d92919062000c38565b6040516020818303038152906040527fb60e72cc000000000000000000000000000000000000000000000000000000007bffffffffffffffffffffffffffffffffffffffffffffffffffffffff19166020820180517bffffffffffffffffffffffffffffffffffffffffffffffffffffffff838183161783525050505062000872565b5050565b6001546000541115620007d05760015460005462000633919062000ad8565b33604051620006429062000897565b6200064f92919062000c6c565b604051809103906000f0801580156200066c573d6000803e3d6000fd5b50600460006101000a81548173ffffffffffffffffffffffffffffffffffffffff021916908373ffffffffffffffffffffffffffffffffffffffff1602179055506200078e6040518060400160405280602081526020017f536f6c617220746f6b656e2062616c616e6365206f66206163636f756e743a20815250600460009054906101000a900473ffffffffffffffffffffffffffffffffffffffff1673ffffffffffffffffffffffffffffffffffffffff166370a08231336040518263ffffffff1660e01b815260040162000744919062000b38565b602060405180830381865afa15801562000762573d6000803e3d6000fd5b505050506040513d601f19601f8201168201806040525081019062000788919062000b6c565b62000574565b620007cf6040518060400160405280600e81526020017f46726f6d206163636f756e743a2000000000000000000000000000000000000081525033620007d2565b5b565b6200086e8282604051602401620007eb92919062000c99565b6040516020818303038152906040527f319af333000000000000000000000000000000000000000000000000000000007bffffffffffffffffffffffffffffffffffffffffffffffffffffffff19166020820180517bffffffffffffffffffffffffffffffffffffffffffffffffffffffff838183161783525050505062000872565b5050565b60006a636f6e736f6c652e6c6f6790508151602083016000808383865afa5050505050565b611bcc8062000cce83390190565b600080fd5b6000819050919050565b620008bf81620008aa565b8114620008cb57600080fd5b50565b600081359050620008df81620008b4565b92915050565b600060208284031215620008fe57620008fd620008a5565b5b60006200090e84828501620008ce565b91505092915050565b6200092281620008aa565b82525050565b60006020820190506200093f600083018462000917565b92915050565b60008115159050919050565b6200095c8162000945565b82525050565b600060208201905062000979600083018462000951565b92915050565b60008060408385031215620009995762000998620008a5565b5b6000620009a985828601620008ce565b9250506020620009bc85828601620008ce565b9150509250929050565b600073ffffffffffffffffffffffffffffffffffffffff82169050919050565b6000819050919050565b600062000a1162000a0b62000a0584620009c6565b620009e6565b620009c6565b9050919050565b600062000a2582620009f0565b9050919050565b600062000a398262000a18565b9050919050565b62000a4b8162000a2c565b82525050565b600060208201905062000a68600083018462000a40565b92915050565b7f4e487b7100000000000000000000000000000000000000000000000000000000600052601160045260246000fd5b600062000aaa82620008aa565b915062000ab783620008aa565b925082820190508082111562000ad25762000ad162000a6e565b5b92915050565b600062000ae582620008aa565b915062000af283620008aa565b925082820390508181111562000b0d5762000b0c62000a6e565b5b92915050565b600062000b2082620009c6565b9050919050565b62000b328162000b13565b82525050565b600060208201905062000b4f600083018462000b27565b92915050565b60008151905062000b6681620008b4565b92915050565b60006020828403121562000b855762000b84620008a5565b5b600062000b958482850162000b55565b91505092915050565b600081519050919050565b600082825260208201905092915050565b60005b8381101562000bda57808201518184015260208101905062000bbd565b60008484015250505050565b6000601f19601f8301169050919050565b600062000c048262000b9e565b62000c10818562000ba9565b935062000c2281856020860162000bba565b62000c2d8162000be6565b840191505092915050565b6000604082019050818103600083015262000c54818562000bf7565b905062000c65602083018462000917565b9392505050565b600060408201905062000c83600083018562000917565b62000c92602083018462000b27565b9392505050565b6000604082019050818103600083015262000cb5818562000bf7565b905062000cc6602083018462000b27565b939250505056fe60806040523480156200001157600080fd5b5060405162001bcc38038062001bcc833981810160405281019062000037919062000411565b6040518060400160405280600581526020017f536f6c61720000000000000000000000000000000000000000000000000000008152506040518060400160405280600381526020017f534c5200000000000000000000000000000000000000000000000000000000008152508160039081620000b49190620006c8565b508060049081620000c69190620006c8565b505050620001106040518060400160405280601681526020017f4465706c6f79656420536f6c6172206279202725732700000000000000000000815250826200012a60201b60201c565b620001228183620001d060201b60201c565b50506200098d565b620001cc8282604051602401620001439291906200084f565b6040516020818303038152906040527f319af333000000000000000000000000000000000000000000000000000000007bffffffffffffffffffffffffffffffffffffffffffffffffffffffff19166020820180517bffffffffffffffffffffffffffffffffffffffffffffffffffffffff83818316178352505050506200033d60201b60201c565b5050565b600073ffffffffffffffffffffffffffffffffffffffff168273ffffffffffffffffffffffffffffffffffffffff160362000242576040517f08c379a00000000000000000000000000000000000000000000000000000000081526004016200023990620008d3565b60405180910390fd5b62000256600083836200036260201b60201c565b80600260008282546200026a919062000924565b92505081905550806000808473ffffffffffffffffffffffffffffffffffffffff1673ffffffffffffffffffffffffffffffffffffffff168152602001908152602001600020600082825401925050819055508173ffffffffffffffffffffffffffffffffffffffff16600073ffffffffffffffffffffffffffffffffffffffff167fddf252ad1be2c89b69c2b068fc378daa952ba7f163c4a11628f55a4df523b3ef836040516200031d919062000970565b60405180910390a362000339600083836200036760201b60201c565b5050565b60006a636f6e736f6c652e6c6f6790508151602083016000808383865afa5050505050565b505050565b505050565b600080fd5b6000819050919050565b620003868162000371565b81146200039257600080fd5b50565b600081519050620003a6816200037b565b92915050565b600073ffffffffffffffffffffffffffffffffffffffff82169050919050565b6000620003d982620003ac565b9050919050565b620003eb81620003cc565b8114620003f757600080fd5b50565b6000815190506200040b81620003e0565b92915050565b600080604083850312156200042b576200042a6200036c565b5b60006200043b8582860162000395565b92505060206200044e85828601620003fa565b9150509250929050565b600081519050919050565b7f4e487b7100000000000000000000000000000000000000000000000000000000600052604160045260246000fd5b7f4e487b7100000000000000000000000000000000000000000000000000000000600052602260045260246000fd5b60006002820490506001821680620004da57607f821691505b602082108103620004f057620004ef62000492565b5b50919050565b60008190508160005260206000209050919050565b60006020601f8301049050919050565b600082821b905092915050565b6000600883026200055a7fffffffffffffffffffffffffffffffffffffffffffffffffffffffffffffffff826200051b565b6200056686836200051b565b95508019841693508086168417925050509392505050565b6000819050919050565b6000620005a9620005a36200059d8462000371565b6200057e565b62000371565b9050919050565b6000819050919050565b620005c58362000588565b620005dd620005d482620005b0565b84845462000528565b825550505050565b600090565b620005f4620005e5565b62000601818484620005ba565b505050565b5b8181101562000629576200061d600082620005ea565b60018101905062000607565b5050565b601f82111562000678576200064281620004f6565b6200064d846200050b565b810160208510156200065d578190505b620006756200066c856200050b565b83018262000606565b50505b505050565b600082821c905092915050565b60006200069d600019846008026200067d565b1980831691505092915050565b6000620006b883836200068a565b9150826002028217905092915050565b620006d38262000458565b67ffffffffffffffff811115620006ef57620006ee62000463565b5b620006fb8254620004c1565b620007088282856200062d565b600060209050601f8311600181146200074057600084156200072b578287015190505b620007378582620006aa565b865550620007a7565b601f1984166200075086620004f6565b60005b828110156200077a5784890151825560018201915060208501945060208101905062000753565b868310156200079a578489015162000796601f8916826200068a565b8355505b6001600288020188555050505b505050505050565b600082825260208201905092915050565b60005b83811015620007e0578082015181840152602081019050620007c3565b60008484015250505050565b6000601f19601f8301169050919050565b60006200080a8262000458565b620008168185620007af565b935062000828818560208601620007c0565b6200083381620007ec565b840191505092915050565b6200084981620003cc565b82525050565b600060408201905081810360008301526200086b8185620007fd565b90506200087c60208301846200083e565b9392505050565b7f45524332303a206d696e7420746f20746865207a65726f206164647265737300600082015250565b6000620008bb601f83620007af565b9150620008c88262000883565b602082019050919050565b60006020820190508181036000830152620008ee81620008ac565b9050919050565b7f4e487b7100000000000000000000000000000000000000000000000000000000600052601160045260246000fd5b6000620009318262000371565b91506200093e8362000371565b9250828201905080821115620009595762000958620008f5565b5b92915050565b6200096a8162000371565b82525050565b60006020820190506200098760008301846200095f565b92915050565b61122f806200099d6000396000f3fe608060405234801561001057600080fd5b50600436106100a95760003560e01c80633950935111610071578063395093511461016857806370a082311461019857806395d89b41146101c8578063a457c2d7146101e6578063a9059cbb14610216578063dd62ed3e14610246576100a9565b806306fdde03146100ae578063095ea7b3146100cc57806318160ddd146100fc57806323b872dd1461011a578063313ce5671461014a575b600080fd5b6100b6610276565b6040516100c39190610b0c565b60405180910390f35b6100e660048036038101906100e19190610bc7565b610308565b6040516100f39190610c22565b60405180910390f35b61010461032b565b6040516101119190610c4c565b60405180910390f35b610134600480360381019061012f9190610c67565b610335565b6040516101419190610c22565b60405180910390f35b610152610364565b60405161015f9190610cd6565b60405180910390f35b610182600480360381019061017d9190610bc7565b61036d565b60405161018f9190610c22565b60405180910390f35b6101b260048036038101906101ad9190610cf1565b6103a4565b6040516101bf9190610c4c565b60405180910390f35b6101d06103ec565b6040516101dd9190610b0c565b60405180910390f35b61020060048036038101906101fb9190610bc7565b61047e565b60405161020d9190610c22565b60405180910390f35b610230600480360381019061022b9190610bc7565b6104f5565b60405161023d9190610c22565b60405180910390f35b610260600480360381019061025b9190610d1e565b610518565b60405161026d9190610c4c565b60405180910390f35b60606003805461028590610d8d565b80601f01602080910402602001604051908101604052809291908181526020018280546102b190610d8d565b80156102fe5780601f106102d3576101008083540402835291602001916102fe565b820191906000526020600020905b8154815290600101906020018083116102e157829003601f168201915b5050505050905090565b60008061031361059f565b90506103208185856105a7565b600191505092915050565b6000600254905090565b60008061034061059f565b905061034d858285610770565b6103588585856107fc565b60019150509392505050565b60006012905090565b60008061037861059f565b905061039981858561038a8589610518565b6103949190610ded565b6105a7565b600191505092915050565b60008060008373ffffffffffffffffffffffffffffffffffffffff1673ffffffffffffffffffffffffffffffffffffffff168152602001908152602001600020549050919050565b6060600480546103fb90610d8d565b80601f016020809104026020016040519081016040528092919081815260200182805461042790610d8d565b80156104745780601f1061044957610100808354040283529160200191610474565b820191906000526020600020905b81548152906001019060200180831161045757829003601f168201915b5050505050905090565b60008061048961059f565b905060006104978286610518565b9050838110156104dc576040517f08c379a00000000000000000000000000000000000000000000000000000000081526004016104d390610e93565b60405180910390fd5b6104e982868684036105a7565b60019250505092915050565b60008061050061059f565b905061050d8185856107fc565b600191505092915050565b6000600160008473ffffffffffffffffffffffffffffffffffffffff1673ffffffffffffffffffffffffffffffffffffffff16815260200190815260200160002060008373ffffffffffffffffffffffffffffffffffffffff1673ffffffffffffffffffffffffffffffffffffffff16815260200190815260200160002054905092915050565b600033905090565b600073ffffffffffffffffffffffffffffffffffffffff168373ffffffffffffffffffffffffffffffffffffffff1603610616576040517f08c379a000000000000000000000000000000000000000000000000000000000815260040161060d90610f25565b60405180910390fd5b600073ffffffffffffffffffffffffffffffffffffffff168273ffffffffffffffffffffffffffffffffffffffff1603610685576040517f08c379a000000000000000000000000000000000000000000000000000000000815260040161067c90610fb7565b60405180910390fd5b80600160008573ffffffffffffffffffffffffffffffffffffffff1673ffffffffffffffffffffffffffffffffffffffff16815260200190815260200160002060008473ffffffffffffffffffffffffffffffffffffffff1673ffffffffffffffffffffffffffffffffffffffff168152602001908152602001600020819055508173ffffffffffffffffffffffffffffffffffffffff168373ffffffffffffffffffffffffffffffffffffffff167f8c5be1e5ebec7d5bd14f71427d1e84f3dd0314c0f7b2291e5b200ac8c7c3b925836040516107639190610c4c565b60405180910390a3505050565b600061077c8484610518565b90507fffffffffffffffffffffffffffffffffffffffffffffffffffffffffffffffff81146107f657818110156107e8576040517f08c379a00000000000000000000000000000000000000000000000000000000081526004016107df90611023565b60405180910390fd5b6107f584848484036105a7565b5b50505050565b600073ffffffffffffffffffffffffffffffffffffffff168373ffffffffffffffffffffffffffffffffffffffff160361086b576040517f08c379a0000000000000000000000000000000000000000000000000000000008152600401610862906110b5565b60405180910390fd5b600073ffffffffffffffffffffffffffffffffffffffff168273ffffffffffffffffffffffffffffffffffffffff16036108da576040517f08c379a00000000000000000000000000000000000000000000000000000000081526004016108d190611147565b60405180910390fd5b6108e5838383610a72565b60008060008573ffffffffffffffffffffffffffffffffffffffff1673ffffffffffffffffffffffffffffffffffffffff1681526020019081526020016000205490508181101561096b576040517f08c379a0000000000000000000000000000000000000000000000000000000008152600401610962906111d9565b60405180910390fd5b8181036000808673ffffffffffffffffffffffffffffffffffffffff1673ffffffffffffffffffffffffffffffffffffffff16815260200190815260200160002081905550816000808573ffffffffffffffffffffffffffffffffffffffff1673ffffffffffffffffffffffffffffffffffffffff168152602001908152602001600020600082825401925050819055508273ffffffffffffffffffffffffffffffffffffffff168473ffffffffffffffffffffffffffffffffffffffff167fddf252ad1be2c89b69c2b068fc378daa952ba7f163c4a11628f55a4df523b3ef84604051610a599190610c4c565b60405180910390a3610a6c848484610a77565b50505050565b505050565b505050565b600081519050919050565b600082825260208201905092915050565b60005b83811015610ab6578082015181840152602081019050610a9b565b60008484015250505050565b6000601f19601f8301169050919050565b6000610ade82610a7c565b610ae88185610a87565b9350610af8818560208601610a98565b610b0181610ac2565b840191505092915050565b60006020820190508181036000830152610b268184610ad3565b905092915050565b600080fd5b600073ffffffffffffffffffffffffffffffffffffffff82169050919050565b6000610b5e82610b33565b9050919050565b610b6e81610b53565b8114610b7957600080fd5b50565b600081359050610b8b81610b65565b92915050565b6000819050919050565b610ba481610b91565b8114610baf57600080fd5b50565b600081359050610bc181610b9b565b92915050565b60008060408385031215610bde57610bdd610b2e565b5b6000610bec85828601610b7c565b9250506020610bfd85828601610bb2565b9150509250929050565b60008115159050919050565b610c1c81610c07565b82525050565b6000602082019050610c376000830184610c13565b92915050565b610c4681610b91565b82525050565b6000602082019050610c616000830184610c3d565b92915050565b600080600060608486031215610c8057610c7f610b2e565b5b6000610c8e86828701610b7c565b9350506020610c9f86828701610b7c565b9250506040610cb086828701610bb2565b9150509250925092565b600060ff82169050919050565b610cd081610cba565b82525050565b6000602082019050610ceb6000830184610cc7565b92915050565b600060208284031215610d0757610d06610b2e565b5b6000610d1584828501610b7c565b91505092915050565b60008060408385031215610d3557610d34610b2e565b5b6000610d4385828601610b7c565b9250506020610d5485828601610b7c565b9150509250929050565b7f4e487b7100000000000000000000000000000000000000000000000000000000600052602260045260246000fd5b60006002820490506001821680610da557607f821691505b602082108103610db857610db7610d5e565b5b50919050565b7f4e487b7100000000000000000000000000000000000000000000000000000000600052601160045260246000fd5b6000610df882610b91565b9150610e0383610b91565b9250828201905080821115610e1b57610e1a610dbe565b5b92915050565b7f45524332303a2064656372656173656420616c6c6f77616e63652062656c6f7760008201527f207a65726f000000000000000000000000000000000000000000000000000000602082015250565b6000610e7d602583610a87565b9150610e8882610e21565b604082019050919050565b60006020820190508181036000830152610eac81610e70565b9050919050565b7f45524332303a20617070726f76652066726f6d20746865207a65726f2061646460008201527f7265737300000000000000000000000000000000000000000000000000000000602082015250565b6000610f0f602483610a87565b9150610f1a82610eb3565b604082019050919050565b60006020820190508181036000830152610f3e81610f02565b9050919050565b7f45524332303a20617070726f766520746f20746865207a65726f20616464726560008201527f7373000000000000000000000000000000000000000000000000000000000000602082015250565b6000610fa1602283610a87565b9150610fac82610f45565b604082019050919050565b60006020820190508181036000830152610fd081610f94565b9050919050565b7f45524332303a20696e73756666696369656e7420616c6c6f77616e6365000000600082015250565b600061100d601d83610a87565b915061101882610fd7565b602082019050919050565b6000602082019050818103600083015261103c81611000565b9050919050565b7f45524332303a207472616e736665722066726f6d20746865207a65726f20616460008201527f6472657373000000000000000000000000000000000000000000000000000000602082015250565b600061109f602583610a87565b91506110aa82611043565b604082019050919050565b600060208201905081810360008301526110ce81611092565b9050919050565b7f45524332303a207472616e7366657220746f20746865207a65726f206164647260008201527f6573730000000000000000000000000000000000000000000000000000000000602082015250565b6000611131602383610a87565b915061113c826110d5565b604082019050919050565b6000602082019050818103600083015261116081611124565b9050919050565b7f45524332303a207472616e7366657220616d6f756e742065786365656473206260008201527f616c616e63650000000000000000000000000000000000000000000000000000602082015250565b60006111c3602683610a87565b91506111ce82611167565b604082019050919050565b600060208201905081810360008301526111f2816111b6565b905091905056fea26469706673582212201e60355da099e3060017acc8f474c51bbd850a7edf1418651516011dfccf390664736f6c63430008130033a2646970667358221220bff8c00e1a0751c6bdb392e8eecb57a221f7dc9ba990ea636d0c9ef7ee67ce4164736f6c63430008130033",
  "immutableReferences": {},
  "source": "//SPDX-License-Identifier: Unlicense\n// contracts/House.sol\n/// @title A contract with functions and state variables for a house creating solar energy\n/// @author Julia Groza\n/// @notice \n\npragma solidity ^0.8.0;\nimport \"./Solar.sol\";\n\ncontract House {\n\n    // Declaring state variables\n    uint private pvGeneration;\n    uint private demand;\n    uint private latitude;\n    uint private longitude;\n    Solar private token;\n    address private libraryAddress;\n\n    // Creating a constructor to set postal code of house and pv generated to 0\n    constructor(uint _latitude, uint _longitude, address _libraryAddress) {                 \n        latitude = _latitude;\n        longitude = _longitude;\n        libraryAddress = _libraryAddress;\n    } \n\n    // Creating an initializer for HouseFactory to set coordinates of house and pv generated to 0\n    function initialize(uint _latitude, uint _longitude) public {                 \n        latitude = _latitude;\n        longitude = _longitude;\n        libraryAddress = 0x5f8e26fAcC23FA4cbd87b8d9Dbbd33D5047abDE1;\n        console.log(\"Deployed House by '%s'\", msg.sender);\n    } \n\n    // Set pv generation value\n    function setPVGeneration(uint _pvGeneration) public\n    {\n        pvGeneration = _pvGeneration;\n        console.log(\"Set PV generated to \",pvGeneration);    \n        checkIfDemandExceeded();\n    }\n\n    // Get pv generation value\n    function getPVGeneration() public view returns (uint)\n    {\n        console.log(\"Get PV generated: \",pvGeneration); \n        return pvGeneration;\n    }\n\n    // Subtract from pv generation value\n    function subtractFromPVGeneration(uint amount) public\n    {\n        pvGeneration = pvGeneration - amount;\n    }\n\n    // Subtract from pv generation value\n    function addToPVGeneration(uint amount) public\n    {\n        pvGeneration = pvGeneration + amount;\n    }\n\n    // Get latitude\n    function getLatitude() public view returns (uint)\n    {\n        return latitude;\n    }\n\n    // Get longitude\n    function getLongitude() public view returns (uint)\n    {\n        return longitude;\n    }\n\n    // Set demand Value\n    function setDemand(uint _demand) public\n    {\n        console.log(\"Set demand to \",_demand); \n        demand = _demand;\n    }\n\n    // Get demand value\n    function getDemand() public view returns (uint)\n    {\n        console.log(\"Get demand: \",demand); \n        return demand;\n\n    }\n\n    // check if PVGeneration is greater than demand\n    function checkIfDemandExceeded() internal\n    {\n        if (pvGeneration > demand)\n        {\n            token = new Solar(pvGeneration - demand, msg.sender);\n            console.log(\"Solar token balance of account: \", token.balanceOf(msg.sender));\n            console.log(\"From account: \", msg.sender);\n            // makeTransfer(msg.sender); \n        }\n    }\n\n    function booleanNeedPV() public view returns (bool){\n        if (pvGeneration > demand){\n            return false;\n        }\n        else{\n            return true;\n        }\n    }\n\n    function getSolarTokenBalance() public view returns (uint)\n    {\n        return token.balanceOf(msg.sender);\n    }\n\n    function getSolarToken() public view returns (Solar)\n    {\n        return token;\n    }\n}",
  "sourcePath": "/Users/juliagroza/Desktop/virtual-net-metering/contracts/House.sol",
  "compiler": {
    "name": "solc",
    "version": "0.8.19+commit.7dd6d404.Emscripten.clang"
  },
  "schemaVersion": "3.4.14",
  "updatedAt": "2023-07-19T04:13:31.851Z",
  "networkType": "ethereum",
  "devdoc": {
    "kind": "dev",
    "methods": {},
    "version": 1
  },
  "userdoc": {
    "kind": "user",
    "methods": {},
    "version": 1
  }
}