{
  "contractName": "House",
  "abi": [
    {
      "inputs": [
        {
          "internalType": "string",
          "name": "_postalCode",
          "type": "string"
        }
      ],
      "stateMutability": "nonpayable",
      "type": "constructor"
    },
    {
      "inputs": [],
      "name": "demand",
      "outputs": [
        {
          "internalType": "uint256",
          "name": "",
          "type": "uint256"
        }
      ],
      "stateMutability": "view",
      "type": "function",
      "constant": true
    },
    {
      "inputs": [],
      "name": "postalCode",
      "outputs": [
        {
          "internalType": "string",
          "name": "",
          "type": "string"
        }
      ],
      "stateMutability": "view",
      "type": "function",
      "constant": true
    },
    {
      "inputs": [],
      "name": "pvGeneration",
      "outputs": [
        {
          "internalType": "uint256",
          "name": "",
          "type": "uint256"
        }
      ],
      "stateMutability": "view",
      "type": "function",
      "constant": true
    },
    {
      "inputs": [
        {
          "internalType": "uint256",
          "name": "_pvGeneration",
          "type": "uint256"
        }
      ],
      "name": "setPVGeneration",
      "outputs": [
        {
          "internalType": "bool",
          "name": "",
          "type": "bool"
        }
      ],
      "stateMutability": "nonpayable",
      "type": "function"
    },
    {
      "inputs": [],
      "name": "getPVGeneration",
      "outputs": [
        {
          "internalType": "uint256",
          "name": "",
          "type": "uint256"
        }
      ],
      "stateMutability": "view",
      "type": "function",
      "constant": true
    },
    {
      "inputs": [
        {
          "internalType": "uint256",
          "name": "_demand",
          "type": "uint256"
        }
      ],
      "name": "setDemand",
      "outputs": [],
      "stateMutability": "nonpayable",
      "type": "function"
    },
    {
      "inputs": [],
      "name": "getDemand",
      "outputs": [
        {
          "internalType": "uint256",
          "name": "",
          "type": "uint256"
        }
      ],
      "stateMutability": "view",
      "type": "function",
      "constant": true
    }
  ],
  "bytecode": "0x60806040523480156200001157600080fd5b50604051620009f6380380620009f68339818101604052810190620000379190620001ea565b806002908162000048919062000486565b5060008081905550506200056d565b6000604051905090565b600080fd5b600080fd5b600080fd5b600080fd5b6000601f19601f8301169050919050565b7f4e487b7100000000000000000000000000000000000000000000000000000000600052604160045260246000fd5b620000c08262000075565b810181811067ffffffffffffffff82111715620000e257620000e162000086565b5b80604052505050565b6000620000f762000057565b9050620001058282620000b5565b919050565b600067ffffffffffffffff82111562000128576200012762000086565b5b620001338262000075565b9050602081019050919050565b60005b838110156200016057808201518184015260208101905062000143565b60008484015250505050565b6000620001836200017d846200010a565b620000eb565b905082815260208101848484011115620001a257620001a162000070565b5b620001af84828562000140565b509392505050565b600082601f830112620001cf57620001ce6200006b565b5b8151620001e18482602086016200016c565b91505092915050565b60006020828403121562000203576200020262000061565b5b600082015167ffffffffffffffff81111562000224576200022362000066565b5b6200023284828501620001b7565b91505092915050565b600081519050919050565b7f4e487b7100000000000000000000000000000000000000000000000000000000600052602260045260246000fd5b600060028204905060018216806200028e57607f821691505b602082108103620002a457620002a362000246565b5b50919050565b60008190508160005260206000209050919050565b60006020601f8301049050919050565b600082821b905092915050565b6000600883026200030e7fffffffffffffffffffffffffffffffffffffffffffffffffffffffffffffffff82620002cf565b6200031a8683620002cf565b95508019841693508086168417925050509392505050565b6000819050919050565b6000819050919050565b600062000367620003616200035b8462000332565b6200033c565b62000332565b9050919050565b6000819050919050565b620003838362000346565b6200039b62000392826200036e565b848454620002dc565b825550505050565b600090565b620003b2620003a3565b620003bf81848462000378565b505050565b5b81811015620003e757620003db600082620003a8565b600181019050620003c5565b5050565b601f82111562000436576200040081620002aa565b6200040b84620002bf565b810160208510156200041b578190505b620004336200042a85620002bf565b830182620003c4565b50505b505050565b600082821c905092915050565b60006200045b600019846008026200043b565b1980831691505092915050565b600062000476838362000448565b9150826002028217905092915050565b62000491826200023b565b67ffffffffffffffff811115620004ad57620004ac62000086565b5b620004b9825462000275565b620004c6828285620003eb565b600060209050601f831160018114620004fe5760008415620004e9578287015190505b620004f5858262000468565b86555062000565565b601f1984166200050e86620002aa565b60005b82811015620005385784890151825560018201915060208501945060208101905062000511565b8683101562000558578489015162000554601f89168262000448565b8355505b6001600288020188555050505b505050505050565b610479806200057d6000396000f3fe608060405234801561001057600080fd5b506004361061007d5760003560e01c80637b273f011161005b5780637b273f01146100da578063a8dfd7fe146100f8578063dffe417614610116578063fa3c0a1b146101465761007d565b80631972f564146100825780632900d3f71461009e5780634d8a6b66146100bc575b600080fd5b61009c600480360381019061009791906102a4565b610164565b005b6100a661016e565b6040516100b391906102e0565b60405180910390f35b6100c4610174565b6040516100d191906102e0565b60405180910390f35b6100e261017a565b6040516100ef91906102e0565b60405180910390f35b610100610184565b60405161010d919061038b565b60405180910390f35b610130600480360381019061012b91906102a4565b610212565b60405161013d91906103c8565b60405180910390f35b61014e610241565b60405161015b91906102e0565b60405180910390f35b8060018190555050565b60005481565b60015481565b6000600154905090565b6002805461019190610412565b80601f01602080910402602001604051908101604052809291908181526020018280546101bd90610412565b801561020a5780601f106101df5761010080835404028352916020019161020a565b820191906000526020600020905b8154815290600101906020018083116101ed57829003601f168201915b505050505081565b6000816000819055506001151561022761024a565b151503610237576001905061023c565b600090505b919050565b60008054905090565b600060015460005411156102615760019050610266565b600090505b90565b600080fd5b6000819050919050565b6102818161026e565b811461028c57600080fd5b50565b60008135905061029e81610278565b92915050565b6000602082840312156102ba576102b9610269565b5b60006102c88482850161028f565b91505092915050565b6102da8161026e565b82525050565b60006020820190506102f560008301846102d1565b92915050565b600081519050919050565b600082825260208201905092915050565b60005b8381101561033557808201518184015260208101905061031a565b60008484015250505050565b6000601f19601f8301169050919050565b600061035d826102fb565b6103678185610306565b9350610377818560208601610317565b61038081610341565b840191505092915050565b600060208201905081810360008301526103a58184610352565b905092915050565b60008115159050919050565b6103c2816103ad565b82525050565b60006020820190506103dd60008301846103b9565b92915050565b7f4e487b7100000000000000000000000000000000000000000000000000000000600052602260045260246000fd5b6000600282049050600182168061042a57607f821691505b60208210810361043d5761043c6103e3565b5b5091905056fea264697066735822122086b9b90f1e0316f066e29396bfb985473138e26a92d764bb4f333e178f77896b64736f6c63430008130033",
  "immutableReferences": {},
  "source": "//SPDX-License-Identifier: Unlicense\n// contracts/House.sol\n/// @title A contract with functions and state variables for a house creating solar energy\n/// @author Julia Groza\n/// @notice \n\npragma solidity ^0.8.0;\n\ncontract House {\n\n    // Declaring state variables\n    uint public pvGeneration;\n    uint public demand;\n    string public postalCode;\n\n    // Creating a constructor to set postal code of house and pv generated to 0\n    constructor(string memory _postalCode) {                 \n        postalCode = _postalCode;\n        pvGeneration = 0;    \n    } \n\n    // Set pv generation value\n    function setPVGeneration(uint _pvGeneration) public returns (bool)\n    {\n        pvGeneration = _pvGeneration;\n        if (demandExceeded() == true)\n        {\n            return true;\n        }\n        else\n        {\n            return false;\n        }\n    }\n\n    // Get pv generation value\n    function getPVGeneration() public view returns (uint)\n    {\n        return pvGeneration;\n    }\n\n    // Set demand Value\n    function setDemand(uint _demand) public\n    {\n        demand = _demand;\n    }\n\n    // Get demand value\n    function getDemand() public view returns (uint)\n    {\n        return demand;\n    }\n\n    // check if PVGeneration is greater than demand\n    function demandExceeded() internal view returns (bool)\n    {\n        if (pvGeneration > demand)\n        {\n            return true;\n        }\n        else\n        {\n            return false;\n        }\n    }\n}",
  "sourcePath": "/Users/juliagroza/Desktop/virtual-net-metering/contracts/House.sol",
  "compiler": {
    "name": "solc",
    "version": "0.8.19+commit.7dd6d404.Emscripten.clang"
  },
  "schemaVersion": "3.4.14",
  "updatedAt": "2023-06-21T03:51:05.411Z",
  "networkType": "ethereum",
  "devdoc": {
    "kind": "dev",
    "methods": {},
    "version": 1
  },
  "userdoc": {
    "kind": "user",
    "methods": {},
    "version": 1
  }
}