{
  "contractName": "House",
  "abi": [
    {
      "inputs": [
        {
          "internalType": "uint256",
          "name": "_latitude",
          "type": "uint256"
        },
        {
          "internalType": "uint256",
          "name": "_longitude",
          "type": "uint256"
        }
      ],
      "stateMutability": "nonpayable",
      "type": "constructor"
    },
    {
      "inputs": [],
      "name": "demand",
      "outputs": [
        {
          "internalType": "uint256",
          "name": "",
          "type": "uint256"
        }
      ],
      "stateMutability": "view",
      "type": "function",
      "constant": true
    },
    {
      "inputs": [],
      "name": "latitude",
      "outputs": [
        {
          "internalType": "uint256",
          "name": "",
          "type": "uint256"
        }
      ],
      "stateMutability": "view",
      "type": "function",
      "constant": true
    },
    {
      "inputs": [],
      "name": "longitude",
      "outputs": [
        {
          "internalType": "uint256",
          "name": "",
          "type": "uint256"
        }
      ],
      "stateMutability": "view",
      "type": "function",
      "constant": true
    },
    {
      "inputs": [],
      "name": "pvGeneration",
      "outputs": [
        {
          "internalType": "uint256",
          "name": "",
          "type": "uint256"
        }
      ],
      "stateMutability": "view",
      "type": "function",
      "constant": true
    },
    {
      "inputs": [],
      "name": "token",
      "outputs": [
        {
          "internalType": "contract Solar",
          "name": "",
          "type": "address"
        }
      ],
      "stateMutability": "view",
      "type": "function",
      "constant": true
    },
    {
      "inputs": [
        {
          "internalType": "uint256",
          "name": "_latitude",
          "type": "uint256"
        },
        {
          "internalType": "uint256",
          "name": "_longitude",
          "type": "uint256"
        }
      ],
      "name": "initialize",
      "outputs": [],
      "stateMutability": "nonpayable",
      "type": "function"
    },
    {
      "inputs": [
        {
          "internalType": "uint256",
          "name": "_pvGeneration",
          "type": "uint256"
        }
      ],
      "name": "setPVGeneration",
      "outputs": [],
      "stateMutability": "nonpayable",
      "type": "function"
    },
    {
      "inputs": [],
      "name": "getPVGeneration",
      "outputs": [
        {
          "internalType": "uint256",
          "name": "",
          "type": "uint256"
        }
      ],
      "stateMutability": "view",
      "type": "function",
      "constant": true
    },
    {
      "inputs": [],
      "name": "getLatitude",
      "outputs": [
        {
          "internalType": "uint256",
          "name": "",
          "type": "uint256"
        }
      ],
      "stateMutability": "view",
      "type": "function",
      "constant": true
    },
    {
      "inputs": [],
      "name": "getLongitude",
      "outputs": [
        {
          "internalType": "uint256",
          "name": "",
          "type": "uint256"
        }
      ],
      "stateMutability": "view",
      "type": "function",
      "constant": true
    },
    {
      "inputs": [
        {
          "internalType": "uint256",
          "name": "_demand",
          "type": "uint256"
        }
      ],
      "name": "setDemand",
      "outputs": [],
      "stateMutability": "nonpayable",
      "type": "function"
    },
    {
      "inputs": [],
      "name": "getDemand",
      "outputs": [
        {
          "internalType": "uint256",
          "name": "",
          "type": "uint256"
        }
      ],
      "stateMutability": "view",
      "type": "function",
      "constant": true
    },
    {
      "inputs": [],
      "name": "getTokenBalance",
      "outputs": [
        {
          "internalType": "uint256",
          "name": "",
          "type": "uint256"
        }
      ],
      "stateMutability": "view",
      "type": "function",
      "constant": true
    }
  ],
  "bytecode": "0x60806040523480156200001157600080fd5b5060405162002be438038062002be48339818101604052810190620000379190620001aa565b816002819055508060038190555060008081905550620000936040518060400160405280601681526020017f4465706c6f79656420486f757365206279202725732700000000000000000000815250336200009b60201b60201c565b505062000304565b6200013d8282604051602401620000b4929190620002d0565b6040516020818303038152906040527f319af333000000000000000000000000000000000000000000000000000000007bffffffffffffffffffffffffffffffffffffffffffffffffffffffff19166020820180517bffffffffffffffffffffffffffffffffffffffffffffffffffffffff83818316178352505050506200014160201b60201c565b5050565b60008151905060006a636f6e736f6c652e6c6f679050602083016000808483855afa5050505050565b600080fd5b6000819050919050565b62000184816200016f565b81146200019057600080fd5b50565b600081519050620001a48162000179565b92915050565b60008060408385031215620001c457620001c36200016a565b5b6000620001d48582860162000193565b9250506020620001e78582860162000193565b9150509250929050565b600081519050919050565b600082825260208201905092915050565b60005b838110156200022d57808201518184015260208101905062000210565b60008484015250505050565b6000601f19601f8301169050919050565b60006200025782620001f1565b620002638185620001fc565b9350620002758185602086016200020d565b620002808162000239565b840191505092915050565b600073ffffffffffffffffffffffffffffffffffffffff82169050919050565b6000620002b8826200028b565b9050919050565b620002ca81620002ab565b82525050565b60006040820190508181036000830152620002ec81856200024a565b9050620002fd6020830184620002bf565b9392505050565b6128d080620003146000396000f3fe60806040523480156200001157600080fd5b5060043610620000e25760003560e01c80637b273f011162000099578063dffe4176116200006f578063dffe41761462000217578063e4a301161462000237578063fa3c0a1b1462000257578063fc0c546a146200027957620000e2565b80637b273f0114620001b157806382b2e25714620001d3578063ae7b6bd914620001f557620000e2565b80631972f56414620000e75780632900d3f714620001075780634d8a6b6614620001295780634fd7d76a146200014b57806355b72f38146200016d578063589af69c146200018f575b600080fd5b620001056004803603810190620000ff919062000957565b6200029b565b005b62000111620002e6565b6040516200012091906200099a565b60405180910390f35b62000133620002ec565b6040516200014291906200099a565b60405180910390f35b62000155620002f2565b6040516200016491906200099a565b60405180910390f35b62000177620002f8565b6040516200018691906200099a565b60405180910390f35b620001996200030f565b604051620001a891906200099a565b60405180910390f35b620001bb62000315565b604051620001ca91906200099a565b60405180910390f35b620001dd62000362565b604051620001ec91906200099a565b60405180910390f35b620001ff6200040a565b6040516200020e91906200099a565b60405180910390f35b6200023560048036038101906200022f919062000957565b62000421565b005b6200025560048036038101906200024f9190620009b7565b62000478565b005b62000261620004d2565b6040516200027091906200099a565b60405180910390f35b620002836200051f565b60405162000292919062000a89565b60405180910390f35b620002dc6040518060400160405280600e81526020017f5365742064656d616e6420746f200000000000000000000000000000000000008152508262000545565b8060018190555050565b60005481565b60015481565b60025481565b600062000307600354620005e5565b600354905090565b60035481565b60006200035a6040518060400160405280600c81526020017f4765742064656d616e643a20000000000000000000000000000000000000000081525060015462000545565b600154905090565b6000600460009054906101000a900473ffffffffffffffffffffffffffffffffffffffff1673ffffffffffffffffffffffffffffffffffffffff166370a08231336040518263ffffffff1660e01b8152600401620003c1919062000acb565b602060405180830381865afa158015620003df573d6000803e3d6000fd5b505050506040513d601f19601f8201168201806040525081019062000405919062000aff565b905090565b600062000419600254620005e5565b600254905090565b806000819055506200046b6040518060400160405280601481526020017f5365742050562067656e65726174656420746f2000000000000000000000000081525060005462000545565b6200047562000682565b50565b816002819055508060038190555060008081905550620004ce6040518060400160405280601681526020017f4465706c6f79656420486f7573652062792027257327000000000000000000008152503362000840565b5050565b6000620005176040518060400160405280601281526020017f4765742050562067656e6572617465643a20000000000000000000000000000081525060005462000545565b600054905090565b600460009054906101000a900473ffffffffffffffffffffffffffffffffffffffff1681565b620005e182826040516024016200055e92919062000bcb565b6040516020818303038152906040527fb60e72cc000000000000000000000000000000000000000000000000000000007bffffffffffffffffffffffffffffffffffffffffffffffffffffffff19166020820180517bffffffffffffffffffffffffffffffffffffffffffffffffffffffff8381831617835250505050620008e0565b5050565b6200067f81604051602401620005fc91906200099a565b6040516020818303038152906040527ff82c50f1000000000000000000000000000000000000000000000000000000007bffffffffffffffffffffffffffffffffffffffffffffffffffffffff19166020820180517bffffffffffffffffffffffffffffffffffffffffffffffffffffffff8381831617835250505050620008e0565b50565b60015460005411156200083e57600154600054620006a1919062000c2e565b33604051620006b09062000909565b620006bd92919062000c69565b604051809103906000f080158015620006da573d6000803e3d6000fd5b50600460006101000a81548173ffffffffffffffffffffffffffffffffffffffff021916908373ffffffffffffffffffffffffffffffffffffffff160217905550620007fc6040518060400160405280602081526020017f536f6c617220746f6b656e2062616c616e6365206f66206163636f756e743a20815250600460009054906101000a900473ffffffffffffffffffffffffffffffffffffffff1673ffffffffffffffffffffffffffffffffffffffff166370a08231336040518263ffffffff1660e01b8152600401620007b2919062000acb565b602060405180830381865afa158015620007d0573d6000803e3d6000fd5b505050506040513d601f19601f82011682018060405250810190620007f6919062000aff565b62000545565b6200083d6040518060400160405280600e81526020017f46726f6d206163636f756e743a200000000000000000000000000000000000008152503362000840565b5b565b620008dc82826040516024016200085992919062000c96565b6040516020818303038152906040527f319af333000000000000000000000000000000000000000000000000000000007bffffffffffffffffffffffffffffffffffffffffffffffffffffffff19166020820180517bffffffffffffffffffffffffffffffffffffffffffffffffffffffff8381831617835250505050620008e0565b5050565b60008151905060006a636f6e736f6c652e6c6f679050602083016000808483855afa5050505050565b611bd08062000ccb83390190565b600080fd5b6000819050919050565b62000931816200091c565b81146200093d57600080fd5b50565b600081359050620009518162000926565b92915050565b60006020828403121562000970576200096f62000917565b5b6000620009808482850162000940565b91505092915050565b62000994816200091c565b82525050565b6000602082019050620009b1600083018462000989565b92915050565b60008060408385031215620009d157620009d062000917565b5b6000620009e18582860162000940565b9250506020620009f48582860162000940565b9150509250929050565b600073ffffffffffffffffffffffffffffffffffffffff82169050919050565b6000819050919050565b600062000a4962000a4362000a3d84620009fe565b62000a1e565b620009fe565b9050919050565b600062000a5d8262000a28565b9050919050565b600062000a718262000a50565b9050919050565b62000a838162000a64565b82525050565b600060208201905062000aa0600083018462000a78565b92915050565b600062000ab382620009fe565b9050919050565b62000ac58162000aa6565b82525050565b600060208201905062000ae2600083018462000aba565b92915050565b60008151905062000af98162000926565b92915050565b60006020828403121562000b185762000b1762000917565b5b600062000b288482850162000ae8565b91505092915050565b600081519050919050565b600082825260208201905092915050565b60005b8381101562000b6d57808201518184015260208101905062000b50565b60008484015250505050565b6000601f19601f8301169050919050565b600062000b978262000b31565b62000ba3818562000b3c565b935062000bb581856020860162000b4d565b62000bc08162000b79565b840191505092915050565b6000604082019050818103600083015262000be7818562000b8a565b905062000bf8602083018462000989565b9392505050565b7f4e487b7100000000000000000000000000000000000000000000000000000000600052601160045260246000fd5b600062000c3b826200091c565b915062000c48836200091c565b925082820390508181111562000c635762000c6262000bff565b5b92915050565b600060408201905062000c80600083018562000989565b62000c8f602083018462000aba565b9392505050565b6000604082019050818103600083015262000cb2818562000b8a565b905062000cc3602083018462000aba565b939250505056fe60806040523480156200001157600080fd5b5060405162001bd038038062001bd0833981810160405281019062000037919062000415565b6040518060400160405280600581526020017f536f6c61720000000000000000000000000000000000000000000000000000008152506040518060400160405280600381526020017f534c5200000000000000000000000000000000000000000000000000000000008152508160039081620000b49190620006cc565b508060049081620000c69190620006cc565b505050620001106040518060400160405280601681526020017f4465706c6f79656420536f6c6172206279202725732700000000000000000000815250826200012a60201b60201c565b620001228183620001d060201b60201c565b505062000991565b620001cc82826040516024016200014392919062000853565b6040516020818303038152906040527f319af333000000000000000000000000000000000000000000000000000000007bffffffffffffffffffffffffffffffffffffffffffffffffffffffff19166020820180517bffffffffffffffffffffffffffffffffffffffffffffffffffffffff83818316178352505050506200033d60201b60201c565b5050565b600073ffffffffffffffffffffffffffffffffffffffff168273ffffffffffffffffffffffffffffffffffffffff160362000242576040517f08c379a00000000000000000000000000000000000000000000000000000000081526004016200023990620008d7565b60405180910390fd5b62000256600083836200036660201b60201c565b80600260008282546200026a919062000928565b92505081905550806000808473ffffffffffffffffffffffffffffffffffffffff1673ffffffffffffffffffffffffffffffffffffffff168152602001908152602001600020600082825401925050819055508173ffffffffffffffffffffffffffffffffffffffff16600073ffffffffffffffffffffffffffffffffffffffff167fddf252ad1be2c89b69c2b068fc378daa952ba7f163c4a11628f55a4df523b3ef836040516200031d919062000974565b60405180910390a362000339600083836200036b60201b60201c565b5050565b60008151905060006a636f6e736f6c652e6c6f679050602083016000808483855afa5050505050565b505050565b505050565b600080fd5b6000819050919050565b6200038a8162000375565b81146200039657600080fd5b50565b600081519050620003aa816200037f565b92915050565b600073ffffffffffffffffffffffffffffffffffffffff82169050919050565b6000620003dd82620003b0565b9050919050565b620003ef81620003d0565b8114620003fb57600080fd5b50565b6000815190506200040f81620003e4565b92915050565b600080604083850312156200042f576200042e62000370565b5b60006200043f8582860162000399565b92505060206200045285828601620003fe565b9150509250929050565b600081519050919050565b7f4e487b7100000000000000000000000000000000000000000000000000000000600052604160045260246000fd5b7f4e487b7100000000000000000000000000000000000000000000000000000000600052602260045260246000fd5b60006002820490506001821680620004de57607f821691505b602082108103620004f457620004f362000496565b5b50919050565b60008190508160005260206000209050919050565b60006020601f8301049050919050565b600082821b905092915050565b6000600883026200055e7fffffffffffffffffffffffffffffffffffffffffffffffffffffffffffffffff826200051f565b6200056a86836200051f565b95508019841693508086168417925050509392505050565b6000819050919050565b6000620005ad620005a7620005a18462000375565b62000582565b62000375565b9050919050565b6000819050919050565b620005c9836200058c565b620005e1620005d882620005b4565b8484546200052c565b825550505050565b600090565b620005f8620005e9565b62000605818484620005be565b505050565b5b818110156200062d5762000621600082620005ee565b6001810190506200060b565b5050565b601f8211156200067c576200064681620004fa565b62000651846200050f565b8101602085101562000661578190505b6200067962000670856200050f565b8301826200060a565b50505b505050565b600082821c905092915050565b6000620006a16000198460080262000681565b1980831691505092915050565b6000620006bc83836200068e565b9150826002028217905092915050565b620006d7826200045c565b67ffffffffffffffff811115620006f357620006f262000467565b5b620006ff8254620004c5565b6200070c82828562000631565b600060209050601f8311600181146200074457600084156200072f578287015190505b6200073b8582620006ae565b865550620007ab565b601f1984166200075486620004fa565b60005b828110156200077e5784890151825560018201915060208501945060208101905062000757565b868310156200079e57848901516200079a601f8916826200068e565b8355505b6001600288020188555050505b505050505050565b600082825260208201905092915050565b60005b83811015620007e4578082015181840152602081019050620007c7565b60008484015250505050565b6000601f19601f8301169050919050565b60006200080e826200045c565b6200081a8185620007b3565b93506200082c818560208601620007c4565b6200083781620007f0565b840191505092915050565b6200084d81620003d0565b82525050565b600060408201905081810360008301526200086f818562000801565b905062000880602083018462000842565b9392505050565b7f45524332303a206d696e7420746f20746865207a65726f206164647265737300600082015250565b6000620008bf601f83620007b3565b9150620008cc8262000887565b602082019050919050565b60006020820190508181036000830152620008f281620008b0565b9050919050565b7f4e487b7100000000000000000000000000000000000000000000000000000000600052601160045260246000fd5b6000620009358262000375565b9150620009428362000375565b92508282019050808211156200095d576200095c620008f9565b5b92915050565b6200096e8162000375565b82525050565b60006020820190506200098b600083018462000963565b92915050565b61122f80620009a16000396000f3fe608060405234801561001057600080fd5b50600436106100a95760003560e01c80633950935111610071578063395093511461016857806370a082311461019857806395d89b41146101c8578063a457c2d7146101e6578063a9059cbb14610216578063dd62ed3e14610246576100a9565b806306fdde03146100ae578063095ea7b3146100cc57806318160ddd146100fc57806323b872dd1461011a578063313ce5671461014a575b600080fd5b6100b6610276565b6040516100c39190610b0c565b60405180910390f35b6100e660048036038101906100e19190610bc7565b610308565b6040516100f39190610c22565b60405180910390f35b61010461032b565b6040516101119190610c4c565b60405180910390f35b610134600480360381019061012f9190610c67565b610335565b6040516101419190610c22565b60405180910390f35b610152610364565b60405161015f9190610cd6565b60405180910390f35b610182600480360381019061017d9190610bc7565b61036d565b60405161018f9190610c22565b60405180910390f35b6101b260048036038101906101ad9190610cf1565b6103a4565b6040516101bf9190610c4c565b60405180910390f35b6101d06103ec565b6040516101dd9190610b0c565b60405180910390f35b61020060048036038101906101fb9190610bc7565b61047e565b60405161020d9190610c22565b60405180910390f35b610230600480360381019061022b9190610bc7565b6104f5565b60405161023d9190610c22565b60405180910390f35b610260600480360381019061025b9190610d1e565b610518565b60405161026d9190610c4c565b60405180910390f35b60606003805461028590610d8d565b80601f01602080910402602001604051908101604052809291908181526020018280546102b190610d8d565b80156102fe5780601f106102d3576101008083540402835291602001916102fe565b820191906000526020600020905b8154815290600101906020018083116102e157829003601f168201915b5050505050905090565b60008061031361059f565b90506103208185856105a7565b600191505092915050565b6000600254905090565b60008061034061059f565b905061034d858285610770565b6103588585856107fc565b60019150509392505050565b60006012905090565b60008061037861059f565b905061039981858561038a8589610518565b6103949190610ded565b6105a7565b600191505092915050565b60008060008373ffffffffffffffffffffffffffffffffffffffff1673ffffffffffffffffffffffffffffffffffffffff168152602001908152602001600020549050919050565b6060600480546103fb90610d8d565b80601f016020809104026020016040519081016040528092919081815260200182805461042790610d8d565b80156104745780601f1061044957610100808354040283529160200191610474565b820191906000526020600020905b81548152906001019060200180831161045757829003601f168201915b5050505050905090565b60008061048961059f565b905060006104978286610518565b9050838110156104dc576040517f08c379a00000000000000000000000000000000000000000000000000000000081526004016104d390610e93565b60405180910390fd5b6104e982868684036105a7565b60019250505092915050565b60008061050061059f565b905061050d8185856107fc565b600191505092915050565b6000600160008473ffffffffffffffffffffffffffffffffffffffff1673ffffffffffffffffffffffffffffffffffffffff16815260200190815260200160002060008373ffffffffffffffffffffffffffffffffffffffff1673ffffffffffffffffffffffffffffffffffffffff16815260200190815260200160002054905092915050565b600033905090565b600073ffffffffffffffffffffffffffffffffffffffff168373ffffffffffffffffffffffffffffffffffffffff1603610616576040517f08c379a000000000000000000000000000000000000000000000000000000000815260040161060d90610f25565b60405180910390fd5b600073ffffffffffffffffffffffffffffffffffffffff168273ffffffffffffffffffffffffffffffffffffffff1603610685576040517f08c379a000000000000000000000000000000000000000000000000000000000815260040161067c90610fb7565b60405180910390fd5b80600160008573ffffffffffffffffffffffffffffffffffffffff1673ffffffffffffffffffffffffffffffffffffffff16815260200190815260200160002060008473ffffffffffffffffffffffffffffffffffffffff1673ffffffffffffffffffffffffffffffffffffffff168152602001908152602001600020819055508173ffffffffffffffffffffffffffffffffffffffff168373ffffffffffffffffffffffffffffffffffffffff167f8c5be1e5ebec7d5bd14f71427d1e84f3dd0314c0f7b2291e5b200ac8c7c3b925836040516107639190610c4c565b60405180910390a3505050565b600061077c8484610518565b90507fffffffffffffffffffffffffffffffffffffffffffffffffffffffffffffffff81146107f657818110156107e8576040517f08c379a00000000000000000000000000000000000000000000000000000000081526004016107df90611023565b60405180910390fd5b6107f584848484036105a7565b5b50505050565b600073ffffffffffffffffffffffffffffffffffffffff168373ffffffffffffffffffffffffffffffffffffffff160361086b576040517f08c379a0000000000000000000000000000000000000000000000000000000008152600401610862906110b5565b60405180910390fd5b600073ffffffffffffffffffffffffffffffffffffffff168273ffffffffffffffffffffffffffffffffffffffff16036108da576040517f08c379a00000000000000000000000000000000000000000000000000000000081526004016108d190611147565b60405180910390fd5b6108e5838383610a72565b60008060008573ffffffffffffffffffffffffffffffffffffffff1673ffffffffffffffffffffffffffffffffffffffff1681526020019081526020016000205490508181101561096b576040517f08c379a0000000000000000000000000000000000000000000000000000000008152600401610962906111d9565b60405180910390fd5b8181036000808673ffffffffffffffffffffffffffffffffffffffff1673ffffffffffffffffffffffffffffffffffffffff16815260200190815260200160002081905550816000808573ffffffffffffffffffffffffffffffffffffffff1673ffffffffffffffffffffffffffffffffffffffff168152602001908152602001600020600082825401925050819055508273ffffffffffffffffffffffffffffffffffffffff168473ffffffffffffffffffffffffffffffffffffffff167fddf252ad1be2c89b69c2b068fc378daa952ba7f163c4a11628f55a4df523b3ef84604051610a599190610c4c565b60405180910390a3610a6c848484610a77565b50505050565b505050565b505050565b600081519050919050565b600082825260208201905092915050565b60005b83811015610ab6578082015181840152602081019050610a9b565b60008484015250505050565b6000601f19601f8301169050919050565b6000610ade82610a7c565b610ae88185610a87565b9350610af8818560208601610a98565b610b0181610ac2565b840191505092915050565b60006020820190508181036000830152610b268184610ad3565b905092915050565b600080fd5b600073ffffffffffffffffffffffffffffffffffffffff82169050919050565b6000610b5e82610b33565b9050919050565b610b6e81610b53565b8114610b7957600080fd5b50565b600081359050610b8b81610b65565b92915050565b6000819050919050565b610ba481610b91565b8114610baf57600080fd5b50565b600081359050610bc181610b9b565b92915050565b60008060408385031215610bde57610bdd610b2e565b5b6000610bec85828601610b7c565b9250506020610bfd85828601610bb2565b9150509250929050565b60008115159050919050565b610c1c81610c07565b82525050565b6000602082019050610c376000830184610c13565b92915050565b610c4681610b91565b82525050565b6000602082019050610c616000830184610c3d565b92915050565b600080600060608486031215610c8057610c7f610b2e565b5b6000610c8e86828701610b7c565b9350506020610c9f86828701610b7c565b9250506040610cb086828701610bb2565b9150509250925092565b600060ff82169050919050565b610cd081610cba565b82525050565b6000602082019050610ceb6000830184610cc7565b92915050565b600060208284031215610d0757610d06610b2e565b5b6000610d1584828501610b7c565b91505092915050565b60008060408385031215610d3557610d34610b2e565b5b6000610d4385828601610b7c565b9250506020610d5485828601610b7c565b9150509250929050565b7f4e487b7100000000000000000000000000000000000000000000000000000000600052602260045260246000fd5b60006002820490506001821680610da557607f821691505b602082108103610db857610db7610d5e565b5b50919050565b7f4e487b7100000000000000000000000000000000000000000000000000000000600052601160045260246000fd5b6000610df882610b91565b9150610e0383610b91565b9250828201905080821115610e1b57610e1a610dbe565b5b92915050565b7f45524332303a2064656372656173656420616c6c6f77616e63652062656c6f7760008201527f207a65726f000000000000000000000000000000000000000000000000000000602082015250565b6000610e7d602583610a87565b9150610e8882610e21565b604082019050919050565b60006020820190508181036000830152610eac81610e70565b9050919050565b7f45524332303a20617070726f76652066726f6d20746865207a65726f2061646460008201527f7265737300000000000000000000000000000000000000000000000000000000602082015250565b6000610f0f602483610a87565b9150610f1a82610eb3565b604082019050919050565b60006020820190508181036000830152610f3e81610f02565b9050919050565b7f45524332303a20617070726f766520746f20746865207a65726f20616464726560008201527f7373000000000000000000000000000000000000000000000000000000000000602082015250565b6000610fa1602283610a87565b9150610fac82610f45565b604082019050919050565b60006020820190508181036000830152610fd081610f94565b9050919050565b7f45524332303a20696e73756666696369656e7420616c6c6f77616e6365000000600082015250565b600061100d601d83610a87565b915061101882610fd7565b602082019050919050565b6000602082019050818103600083015261103c81611000565b9050919050565b7f45524332303a207472616e736665722066726f6d20746865207a65726f20616460008201527f6472657373000000000000000000000000000000000000000000000000000000602082015250565b600061109f602583610a87565b91506110aa82611043565b604082019050919050565b600060208201905081810360008301526110ce81611092565b9050919050565b7f45524332303a207472616e7366657220746f20746865207a65726f206164647260008201527f6573730000000000000000000000000000000000000000000000000000000000602082015250565b6000611131602383610a87565b915061113c826110d5565b604082019050919050565b6000602082019050818103600083015261116081611124565b9050919050565b7f45524332303a207472616e7366657220616d6f756e742065786365656473206260008201527f616c616e63650000000000000000000000000000000000000000000000000000602082015250565b60006111c3602683610a87565b91506111ce82611167565b604082019050919050565b600060208201905081810360008301526111f2816111b6565b905091905056fea2646970667358221220eb28ac7c351a684a4bf610b7d7bf05b4cac78634bca5b21f0dc2e19cf35316bb64736f6c63430008130033a2646970667358221220ee26d7d1da7790d9131dc5453476327a649ee61bad520d3f8aa79892d56f38e764736f6c63430008130033",
  "immutableReferences": {},
  "source": "//SPDX-License-Identifier: Unlicense\n// contracts/House.sol\n/// @title A contract with functions and state variables for a house creating solar energy\n/// @author Julia Groza\n/// @notice \n\npragma solidity ^0.8.0;\nimport \"hardhat/console.sol\";\nimport \"./Solar.sol\";\n\ncontract House {\n\n    // Declaring state variables\n    uint public pvGeneration;\n    uint public demand;\n    uint public latitude;\n    uint public longitude;\n    Solar public token;\n\n    // Creating a constructor to set postal code of house and pv generated to 0\n    constructor(uint _latitude, uint _longitude) {                 \n        latitude = _latitude;\n        longitude = _longitude;\n        pvGeneration = 0;\n        console.log(\"Deployed House by '%s'\", msg.sender);\n    } \n\n    // Creating an initializer for HouseFactory to set coordinates of house and pv generated to 0\n    function initialize(uint _latitude, uint _longitude) public {                 \n        latitude = _latitude;\n        longitude = _longitude;\n        pvGeneration = 0;\n        console.log(\"Deployed House by '%s'\", msg.sender);\n    } \n\n    // Set pv generation value\n    function setPVGeneration(uint _pvGeneration) public\n    {\n        pvGeneration = _pvGeneration;\n        console.log(\"Set PV generated to \",pvGeneration);    \n        checkIfDemandExceeded();\n    }\n\n    // Get pv generation value\n    function getPVGeneration() public view returns (uint)\n    {\n        console.log(\"Get PV generated: \",pvGeneration); \n        return pvGeneration;\n    }\n\n    // Get latitude\n    function getLatitude() public view returns (uint)\n    {\n        console.logUint(latitude); \n        return latitude;\n    }\n\n    // Get longitude\n    function getLongitude() public view returns (uint)\n    {\n        console.logUint(longitude); \n        return longitude;\n    }\n\n    // Set demand Value\n    function setDemand(uint _demand) public\n    {\n        console.log(\"Set demand to \",_demand); \n        demand = _demand;\n    }\n\n    // Get demand value\n    function getDemand() public view returns (uint)\n    {\n        console.log(\"Get demand: \",demand); \n        return demand;\n\n    }\n\n    // check if PVGeneration is greater than demand\n    function checkIfDemandExceeded() internal\n    {\n        if (pvGeneration > demand)\n        {\n            token = new Solar(pvGeneration - demand, msg.sender);\n            console.log(\"Solar token balance of account: \", token.balanceOf(msg.sender));\n            console.log(\"From account: \", msg.sender);\n            // makeTransfer(msg.sender); \n        }\n    }\n\n    function getTokenBalance() public view returns (uint)\n    {\n        return token.balanceOf(msg.sender);\n    }\n}",
  "sourcePath": "/Users/juliagroza/Desktop/virtual-net-metering/contracts/House.sol",
  "compiler": {
    "name": "solc",
    "version": "0.8.19+commit.7dd6d404.Emscripten.clang"
  },
  "schemaVersion": "3.4.14",
  "updatedAt": "2023-07-07T20:15:04.236Z",
  "networkType": "ethereum",
  "devdoc": {
    "kind": "dev",
    "methods": {},
    "version": 1
  },
  "userdoc": {
    "kind": "user",
    "methods": {},
    "version": 1
  }
}