{
  "contractName": "HouseFactory",
  "abi": [
    {
      "inputs": [
        {
          "internalType": "address",
          "name": "_libraryAddress",
          "type": "address"
        }
      ],
      "stateMutability": "nonpayable",
      "type": "constructor"
    },
    {
      "anonymous": false,
      "inputs": [
        {
          "indexed": false,
          "internalType": "address",
          "name": "newHouse",
          "type": "address"
        }
      ],
      "name": "HouseCreated",
      "type": "event"
    },
    {
      "anonymous": false,
      "inputs": [
        {
          "indexed": true,
          "internalType": "address",
          "name": "previousOwner",
          "type": "address"
        },
        {
          "indexed": true,
          "internalType": "address",
          "name": "newOwner",
          "type": "address"
        }
      ],
      "name": "OwnershipTransferred",
      "type": "event"
    },
    {
      "inputs": [
        {
          "internalType": "uint256",
          "name": "",
          "type": "uint256"
        }
      ],
      "name": "clones",
      "outputs": [
        {
          "internalType": "address",
          "name": "",
          "type": "address"
        }
      ],
      "stateMutability": "view",
      "type": "function",
      "constant": true
    },
    {
      "inputs": [
        {
          "internalType": "address",
          "name": "",
          "type": "address"
        },
        {
          "internalType": "uint256",
          "name": "",
          "type": "uint256"
        }
      ],
      "name": "closestHouses",
      "outputs": [
        {
          "internalType": "address",
          "name": "",
          "type": "address"
        }
      ],
      "stateMutability": "view",
      "type": "function",
      "constant": true
    },
    {
      "inputs": [],
      "name": "libraryAddress",
      "outputs": [
        {
          "internalType": "address",
          "name": "",
          "type": "address"
        }
      ],
      "stateMutability": "view",
      "type": "function",
      "constant": true
    },
    {
      "inputs": [],
      "name": "owner",
      "outputs": [
        {
          "internalType": "address",
          "name": "",
          "type": "address"
        }
      ],
      "stateMutability": "view",
      "type": "function",
      "constant": true
    },
    {
      "inputs": [],
      "name": "renounceOwnership",
      "outputs": [],
      "stateMutability": "nonpayable",
      "type": "function"
    },
    {
      "inputs": [
        {
          "internalType": "address",
          "name": "newOwner",
          "type": "address"
        }
      ],
      "name": "transferOwnership",
      "outputs": [],
      "stateMutability": "nonpayable",
      "type": "function"
    },
    {
      "inputs": [
        {
          "internalType": "uint256",
          "name": "_latitude",
          "type": "uint256"
        },
        {
          "internalType": "uint256",
          "name": "_longitude",
          "type": "uint256"
        }
      ],
      "name": "createHouse",
      "outputs": [],
      "stateMutability": "nonpayable",
      "type": "function"
    },
    {
      "inputs": [],
      "name": "getAllHouses",
      "outputs": [
        {
          "internalType": "address[]",
          "name": "",
          "type": "address[]"
        }
      ],
      "stateMutability": "view",
      "type": "function",
      "constant": true
    },
    {
      "inputs": [],
      "name": "printClosestHousesForEachHouse",
      "outputs": [],
      "stateMutability": "view",
      "type": "function",
      "constant": true
    },
    {
      "inputs": [
        {
          "internalType": "address",
          "name": "houseWithSolar",
          "type": "address"
        }
      ],
      "name": "makeTransfer",
      "outputs": [],
      "stateMutability": "nonpayable",
      "type": "function"
    }
  ],
  "bytecode": "0x60806040523480156200001157600080fd5b506040516200236d3803806200236d8339818101604052810190620000379190620001d5565b620000576200004b6200009f60201b60201c565b620000a760201b60201c565b80600160006101000a81548173ffffffffffffffffffffffffffffffffffffffff021916908373ffffffffffffffffffffffffffffffffffffffff1602179055505062000207565b600033905090565b60008060009054906101000a900473ffffffffffffffffffffffffffffffffffffffff169050816000806101000a81548173ffffffffffffffffffffffffffffffffffffffff021916908373ffffffffffffffffffffffffffffffffffffffff1602179055508173ffffffffffffffffffffffffffffffffffffffff168173ffffffffffffffffffffffffffffffffffffffff167f8be0079c531659141344cd1fd0a4f28419497f9722a3daafe3b4186f6b6457e060405160405180910390a35050565b600080fd5b600073ffffffffffffffffffffffffffffffffffffffff82169050919050565b60006200019d8262000170565b9050919050565b620001af8162000190565b8114620001bb57600080fd5b50565b600081519050620001cf81620001a4565b92915050565b600060208284031215620001ee57620001ed6200016b565b5b6000620001fe84828501620001be565b91505092915050565b61215680620002176000396000f3fe608060405234801561001057600080fd5b506004361061009e5760003560e01c8063715018a611610066578063715018a6146101455780638da5cb5b1461014f578063b816f5131461016d578063d87deea81461018b578063f2fde38b146101a95761009e565b80630e039916146100a357806318d73d2c146100d35780632d5cea8e146101035780632e4b2dc01461011f578063605e54b61461013b575b600080fd5b6100bd60048036038101906100b891906118db565b6101c5565b6040516100ca9190611949565b60405180910390f35b6100ed60048036038101906100e89190611990565b610204565b6040516100fa9190611949565b60405180910390f35b61011d600480360381019061011891906119d0565b610252565b005b610139600480360381019061013491906119fd565b610616565b005b61014361082d565b005b61014d610a82565b005b610157610a96565b6040516101649190611949565b60405180910390f35b610175610abf565b6040516101829190611949565b60405180910390f35b610193610ae5565b6040516101a09190611afb565b60405180910390f35b6101c360048036038101906101be91906119d0565b610b73565b005b600281815481106101d557600080fd5b906000526020600020016000915054906101000a900473ffffffffffffffffffffffffffffffffffffffff1681565b6003602052816000526040600020818154811061022057600080fd5b906000526020600020016000915091509054906101000a900473ffffffffffffffffffffffffffffffffffffffff1681565b600061025d82610bf6565b90506000808273ffffffffffffffffffffffffffffffffffffffff1663fa3c0a1b6040518163ffffffff1660e01b8152600401602060405180830381865afa1580156102ad573d6000803e3d6000fd5b505050506040513d601f19601f820116820180604052508101906102d19190611b32565b8373ffffffffffffffffffffffffffffffffffffffff16637b273f016040518163ffffffff1660e01b8152600401602060405180830381865afa15801561031c573d6000803e3d6000fd5b505050506040513d601f19601f820116820180604052508101906103409190611b32565b61034a9190611b8e565b905060008473ffffffffffffffffffffffffffffffffffffffff16637b273f016040518163ffffffff1660e01b8152600401602060405180830381865afa158015610399573d6000803e3d6000fd5b505050506040513d601f19601f820116820180604052508101906103bd9190611b32565b8573ffffffffffffffffffffffffffffffffffffffff1663fa3c0a1b6040518163ffffffff1660e01b8152600401602060405180830381865afa158015610408573d6000803e3d6000fd5b505050506040513d601f19601f8201168201806040525081019061042c9190611b32565b6104369190611b8e565b9050808210156104485781925061044c565b8092505b8473ffffffffffffffffffffffffffffffffffffffff1663f20269926040518163ffffffff1660e01b8152600401602060405180830381865afa158015610497573d6000803e3d6000fd5b505050506040513d601f19601f820116820180604052508101906104bb9190611c00565b73ffffffffffffffffffffffffffffffffffffffff1663a9059cbb85856040518363ffffffff1660e01b81526004016104f5929190611c3c565b6020604051808303816000875af1158015610514573d6000803e3d6000fd5b505050506040513d601f19601f820116820180604052508101906105389190611c9d565b508473ffffffffffffffffffffffffffffffffffffffff1663e1712fb7846040518263ffffffff1660e01b81526004016105729190611cca565b600060405180830381600087803b15801561058c57600080fd5b505af11580156105a0573d6000803e3d6000fd5b505050508373ffffffffffffffffffffffffffffffffffffffff1663e1712fb7846040518263ffffffff1660e01b81526004016105dd9190611cca565b600060405180830381600087803b1580156105f757600080fd5b505af115801561060b573d6000803e3d6000fd5b505050505050505050565b60005a90506000610648600160009054906101000a900473ffffffffffffffffffffffffffffffffffffffff16610d98565b905060008190508073ffffffffffffffffffffffffffffffffffffffff1663e4a3011686866040518363ffffffff1660e01b815260040161068a929190611ce5565b600060405180830381600087803b1580156106a457600080fd5b505af11580156106b8573d6000803e3d6000fd5b505050506002829080600181540180825580915050600190039060005260206000200160009091909190916101000a81548173ffffffffffffffffffffffffffffffffffffffff021916908373ffffffffffffffffffffffffffffffffffffffff1602179055507f37acd5820bb80999bd4703a1876fd351428c2fe9f93363014f4081a6f5e434d88260405161074e9190611949565b60405180910390a16107956040518060400160405280601e81526020017f486f7573652063726561746564207769746820616464726573733a20256f000081525083610e52565b61079e82610eee565b6107dc6040518060400160405280601281526020017f416464656420686f75736520746f206d6170000000000000000000000000000081525061113d565b6108266040518060400160405280601e81526020017f476173207573656420666f7220637265617465486f75736528293a20256f00008152505a856108219190611b8e565b6111d6565b5050505050565b61086b6040518060400160405280601781526020017f5072696e74696e672066726f6d20686173686d61703a2000000000000000000081525061113d565b60005b600280549050811015610a7f576108f86040518060400160405280600781526020017f486f7573653a2000000000000000000000000000000000000000000000000000815250600283815481106108c8576108c7611d0e565b5b9060005260206000200160009054906101000a900473ffffffffffffffffffffffffffffffffffffffff16610e52565b6000600360006002848154811061091257610911611d0e565b5b9060005260206000200160009054906101000a900473ffffffffffffffffffffffffffffffffffffffff1673ffffffffffffffffffffffffffffffffffffffff1673ffffffffffffffffffffffffffffffffffffffff1681526020019081526020016000208054806020026020016040519081016040528092919081815260200182805480156109f757602002820191906000526020600020905b8160009054906101000a900473ffffffffffffffffffffffffffffffffffffffff1673ffffffffffffffffffffffffffffffffffffffff16815260200190600101908083116109ad575b5050505050905060005b8151811015610a7057610a636040518060400160405280601481526020017f4e65787420636c6f7365737420686f7573653a20000000000000000000000000815250838381518110610a5657610a55611d0e565b5b6020026020010151610e52565b8080600101915050610a01565b5081806001019250505061086e565b50565b610a8a611272565b610a9460006112f0565b565b60008060009054906101000a900473ffffffffffffffffffffffffffffffffffffffff16905090565b600160009054906101000a900473ffffffffffffffffffffffffffffffffffffffff1681565b60606002805480602002602001604051908101604052809291908181526020018280548015610b6957602002820191906000526020600020905b8160009054906101000a900473ffffffffffffffffffffffffffffffffffffffff1673ffffffffffffffffffffffffffffffffffffffff1681526020019060010190808311610b1f575b5050505050905090565b610b7b611272565b600073ffffffffffffffffffffffffffffffffffffffff168173ffffffffffffffffffffffffffffffffffffffff1603610bea576040517f08c379a0000000000000000000000000000000000000000000000000000000008152600401610be190611dc0565b60405180910390fd5b610bf3816112f0565b50565b600080600360008473ffffffffffffffffffffffffffffffffffffffff1673ffffffffffffffffffffffffffffffffffffffff168152602001908152602001600020805480602002602001604051908101604052809291908181526020018280548015610cb857602002820191906000526020600020905b8160009054906101000a900473ffffffffffffffffffffffffffffffffffffffff1673ffffffffffffffffffffffffffffffffffffffff1681526020019060010190808311610c6e575b5050505050905060005b8151811015610d905760011515828281518110610ce257610ce1611d0e565b5b602002602001015173ffffffffffffffffffffffffffffffffffffffff166366742bb96040518163ffffffff1660e01b8152600401602060405180830381865afa158015610d34573d6000803e3d6000fd5b505050506040513d601f19601f82011682018060405250810190610d589190611c9d565b151503610d8357818181518110610d7257610d71611d0e565b5b602002602001015192505050610d93565b8080600101915050610cc2565b50505b919050565b6000763d602d80600a3d3981f3363d3d373d3d3d363d730000008260601b60e81c176000526e5af43d82803e903d91602b57fd5bf38260781b17602052603760096000f09050600073ffffffffffffffffffffffffffffffffffffffff168173ffffffffffffffffffffffffffffffffffffffff1603610e4d576040517f08c379a0000000000000000000000000000000000000000000000000000000008152600401610e4490611e2c565b60405180910390fd5b919050565b610eea8282604051602401610e68929190611ecb565b6040516020818303038152906040527f319af333000000000000000000000000000000000000000000000000000000007bffffffffffffffffffffffffffffffffffffffffffffffffffffffff19166020820180517bffffffffffffffffffffffffffffffffffffffffffffffffffffffff83818316178352505050506113b4565b5050565b60005a905060006001600280549050610f079190611b8e565b67ffffffffffffffff811115610f2057610f1f611efb565b5b604051908082528060200260200182016040528015610f4e5781602001602082028036833780820191505090505b50905080600360008573ffffffffffffffffffffffffffffffffffffffff1673ffffffffffffffffffffffffffffffffffffffff1681526020019081526020016000209080519060200190610fa49291906117f9565b5060005b6002805490508110156110ed576000610ffe60028381548110610fce57610fcd611d0e565b5b9060005260206000200160009054906101000a900473ffffffffffffffffffffffffffffffffffffffff166113d9565b9050600061104a826002858154811061101a57611019611d0e565b5b9060005260206000200160009054906101000a900473ffffffffffffffffffffffffffffffffffffffff16611562565b905080600360006002868154811061106557611064611d0e565b5b9060005260206000200160009054906101000a900473ffffffffffffffffffffffffffffffffffffffff1673ffffffffffffffffffffffffffffffffffffffff1673ffffffffffffffffffffffffffffffffffffffff16815260200190815260200160002090805190602001906110dd9291906117f9565b5082806001019350505050610fa8565b506111386040518060400160405280602081526020017f476173207573656420666f7220616464486f757365546f4d617028293a20256f8152505a846111339190611b8e565b6111d6565b505050565b6111d3816040516024016111519190611f2a565b6040516020818303038152906040527f41304fac000000000000000000000000000000000000000000000000000000007bffffffffffffffffffffffffffffffffffffffffffffffffffffffff19166020820180517bffffffffffffffffffffffffffffffffffffffffffffffffffffffff83818316178352505050506113b4565b50565b61126e82826040516024016111ec929190611f4c565b6040516020818303038152906040527fb60e72cc000000000000000000000000000000000000000000000000000000007bffffffffffffffffffffffffffffffffffffffffffffffffffffffff19166020820180517bffffffffffffffffffffffffffffffffffffffffffffffffffffffff83818316178352505050506113b4565b5050565b61127a61171d565b73ffffffffffffffffffffffffffffffffffffffff16611298610a96565b73ffffffffffffffffffffffffffffffffffffffff16146112ee576040517f08c379a00000000000000000000000000000000000000000000000000000000081526004016112e590611fc8565b60405180910390fd5b565b60008060009054906101000a900473ffffffffffffffffffffffffffffffffffffffff169050816000806101000a81548173ffffffffffffffffffffffffffffffffffffffff021916908373ffffffffffffffffffffffffffffffffffffffff1602179055508173ffffffffffffffffffffffffffffffffffffffff168173ffffffffffffffffffffffffffffffffffffffff167f8be0079c531659141344cd1fd0a4f28419497f9722a3daafe3b4186f6b6457e060405160405180910390a35050565b60006a636f6e736f6c652e6c6f6790508151602083016000808383865afa5050505050565b606060016002805490506113ed9190611b8e565b67ffffffffffffffff81111561140657611405611efb565b5b6040519080825280602002602001820160405280156114345781602001602082028036833780820191505090505b5090506000805b60028054905081101561155b578373ffffffffffffffffffffffffffffffffffffffff166002828154811061147357611472611d0e565b5b9060005260206000200160009054906101000a900473ffffffffffffffffffffffffffffffffffffffff1673ffffffffffffffffffffffffffffffffffffffff161461154e57600281815481106114cd576114cc611d0e565b5b9060005260206000200160009054906101000a900473ffffffffffffffffffffffffffffffffffffffff1683838151811061150b5761150a611d0e565b5b602002602001019073ffffffffffffffffffffffffffffffffffffffff16908173ffffffffffffffffffffffffffffffffffffffff168152505081806001019250505b808060010191505061143b565b5050919050565b606060005a90506000845190506000600190505b818110156116c757600086828151811061159357611592611d0e565b5b60200260200101519050600060018303905060006115b76001600260036004611725565b90505b600082121580156115d957506115d66005600660076008611725565b81105b1561165d578882815181106115f1576115f0611d0e565b5b6020026020010151896001846116079190611ff2565b8151811061161857611617611d0e565b5b602002602001019073ffffffffffffffffffffffffffffffffffffffff16908173ffffffffffffffffffffffffffffffffffffffff16815250506001820391506115ba565b828960018461166c9190611ff2565b8151811061167d5761167c611d0e565b5b602002602001019073ffffffffffffffffffffffffffffffffffffffff16908173ffffffffffffffffffffffffffffffffffffffff16815250508380600101945050505050611576565b506117126040518060400160405280602081526020017f476173207573656420666f7220696e73657274696f6e536f727428293a20256f8152505a8461170d9190611b8e565b6111d6565b849250505092915050565b600033905090565b60008084866117349190612036565b9050600083856117449190612036565b9050600081826117549190612079565b83846117609190612079565b61176a9190611ff2565b905061177581611782565b9350505050949350505050565b600060038211156117e65781905060006001600284816117a5576117a46120f1565b5b040190505b818110156117e0578091506002818285816117c8576117c76120f1565b5b0401816117d8576117d76120f1565b5b0490506117aa565b506117f4565b600082146117f357600190505b5b919050565b828054828255906000526020600020908101928215611872579160200282015b828111156118715782518260006101000a81548173ffffffffffffffffffffffffffffffffffffffff021916908373ffffffffffffffffffffffffffffffffffffffff16021790555091602001919060010190611819565b5b50905061187f9190611883565b5090565b5b8082111561189c576000816000905550600101611884565b5090565b600080fd5b6000819050919050565b6118b8816118a5565b81146118c357600080fd5b50565b6000813590506118d5816118af565b92915050565b6000602082840312156118f1576118f06118a0565b5b60006118ff848285016118c6565b91505092915050565b600073ffffffffffffffffffffffffffffffffffffffff82169050919050565b600061193382611908565b9050919050565b61194381611928565b82525050565b600060208201905061195e600083018461193a565b92915050565b61196d81611928565b811461197857600080fd5b50565b60008135905061198a81611964565b92915050565b600080604083850312156119a7576119a66118a0565b5b60006119b58582860161197b565b92505060206119c6858286016118c6565b9150509250929050565b6000602082840312156119e6576119e56118a0565b5b60006119f48482850161197b565b91505092915050565b60008060408385031215611a1457611a136118a0565b5b6000611a22858286016118c6565b9250506020611a33858286016118c6565b9150509250929050565b600081519050919050565b600082825260208201905092915050565b6000819050602082019050919050565b611a7281611928565b82525050565b6000611a848383611a69565b60208301905092915050565b6000602082019050919050565b6000611aa882611a3d565b611ab28185611a48565b9350611abd83611a59565b8060005b83811015611aee578151611ad58882611a78565b9750611ae083611a90565b925050600181019050611ac1565b5085935050505092915050565b60006020820190508181036000830152611b158184611a9d565b905092915050565b600081519050611b2c816118af565b92915050565b600060208284031215611b4857611b476118a0565b5b6000611b5684828501611b1d565b91505092915050565b7f4e487b7100000000000000000000000000000000000000000000000000000000600052601160045260246000fd5b6000611b99826118a5565b9150611ba4836118a5565b9250828203905081811115611bbc57611bbb611b5f565b5b92915050565b6000611bcd82611928565b9050919050565b611bdd81611bc2565b8114611be857600080fd5b50565b600081519050611bfa81611bd4565b92915050565b600060208284031215611c1657611c156118a0565b5b6000611c2484828501611beb565b91505092915050565b611c36816118a5565b82525050565b6000604082019050611c51600083018561193a565b611c5e6020830184611c2d565b9392505050565b60008115159050919050565b611c7a81611c65565b8114611c8557600080fd5b50565b600081519050611c9781611c71565b92915050565b600060208284031215611cb357611cb26118a0565b5b6000611cc184828501611c88565b91505092915050565b6000602082019050611cdf6000830184611c2d565b92915050565b6000604082019050611cfa6000830185611c2d565b611d076020830184611c2d565b9392505050565b7f4e487b7100000000000000000000000000000000000000000000000000000000600052603260045260246000fd5b600082825260208201905092915050565b7f4f776e61626c653a206e6577206f776e657220697320746865207a65726f206160008201527f6464726573730000000000000000000000000000000000000000000000000000602082015250565b6000611daa602683611d3d565b9150611db582611d4e565b604082019050919050565b60006020820190508181036000830152611dd981611d9d565b9050919050565b7f455243313136373a20637265617465206661696c656400000000000000000000600082015250565b6000611e16601683611d3d565b9150611e2182611de0565b602082019050919050565b60006020820190508181036000830152611e4581611e09565b9050919050565b600081519050919050565b60005b83811015611e75578082015181840152602081019050611e5a565b60008484015250505050565b6000601f19601f8301169050919050565b6000611e9d82611e4c565b611ea78185611d3d565b9350611eb7818560208601611e57565b611ec081611e81565b840191505092915050565b60006040820190508181036000830152611ee58185611e92565b9050611ef4602083018461193a565b9392505050565b7f4e487b7100000000000000000000000000000000000000000000000000000000600052604160045260246000fd5b60006020820190508181036000830152611f448184611e92565b905092915050565b60006040820190508181036000830152611f668185611e92565b9050611f756020830184611c2d565b9392505050565b7f4f776e61626c653a2063616c6c6572206973206e6f7420746865206f776e6572600082015250565b6000611fb2602083611d3d565b9150611fbd82611f7c565b602082019050919050565b60006020820190508181036000830152611fe181611fa5565b9050919050565b6000819050919050565b6000611ffd82611fe8565b915061200883611fe8565b9250828201905082811215600083121683821260008412151617156120305761202f611b5f565b5b92915050565b600061204182611fe8565b915061204c83611fe8565b925082820390508181126000841216828213600085121516171561207357612072611b5f565b5b92915050565b600061208482611fe8565b915061208f83611fe8565b925082820261209d81611fe8565b91507f800000000000000000000000000000000000000000000000000000000000000084146000841216156120d5576120d4611b5f565b5b82820584148315176120ea576120e9611b5f565b5b5092915050565b7f4e487b7100000000000000000000000000000000000000000000000000000000600052601260045260246000fdfea26469706673582212208a6dd12846b00f656ccc340123e396c6786a0738073c1b21abf2f1713632cc0e64736f6c63430008130033",
  "immutableReferences": {},
  "source": "//SPDX-License-Identifier: Unlicense\n// contracts/HouseFactory.sol\n/// @title\n/// @author Julia Groza\n/// @notice \n\npragma solidity ^0.8.0;\n\nimport \"./House.sol\";\nimport \"@openzeppelin/contracts/proxy/Clones.sol\";\nimport \"@openzeppelin/contracts/access/Ownable.sol\";\n\ncontract HouseFactory is Ownable{\n\n    address public libraryAddress;\n    event HouseCreated(address newHouse);\n    address[] public clones; // this array is in storage\n    mapping(address => address[]) public closestHouses; \n\n    // Initializing the address that deploys the HouseFactory contract\n    constructor(address _libraryAddress) {\n        libraryAddress = _libraryAddress;\n    }\n\n    function createHouse(uint _latitude, uint _longitude) public {\n        uint startGas = gasleft();\n        address house = Clones.clone(libraryAddress); // creates a new House object with the createClone function from CloneFactory.sol\n        House newHouse = House(house);\n        newHouse.initialize(_latitude, _longitude);\n        clones.push(house); // adds house to array of houses in the HouseFactory contract\n        emit HouseCreated(house);\n        console.log(\"House created with address: %o\", house);\n        addHouseToMap(house);\n        console.log(\"Added house to map\");\n        console.log(\"Gas used for createHouse(): %o\", startGas - gasleft());\n    }\n\n    function getAllHouses() external view returns (address[] memory) {\n        return clones;\n    }\n\n    function printClosestHousesForEachHouse() external view {\n        console.log(\"Printing from hashmap: \");\n        for (uint r = 0; r < clones.length;){\n            console.log(\"House: \", clones[r]);\n            address[] memory houses = closestHouses[clones[r]];\n\n            for (uint s = 0; s < houses.length;){\n                console.log(\"Next closest house: \", houses[s]);\n                unchecked{ s++; }\n            }\n            unchecked{ r++; }\n        }\n    }\n\n    function makeTransfer(address houseWithSolar) public {\n        address houseThatNeedsPV = findHouseThatNeedsPV(houseWithSolar);\n\n        uint amount;\n        uint diffHouseThatNeedsPV = House(houseThatNeedsPV).getDemand() - House(houseThatNeedsPV).getPVGeneration();\n        uint diffHouseWithSolar = House(houseWithSolar).getPVGeneration() - House(houseWithSolar).getDemand();\n        if (diffHouseThatNeedsPV < diffHouseWithSolar){\n            amount = diffHouseThatNeedsPV;\n        }\n        else {\n            amount = diffHouseWithSolar;\n        }\n\n        House(houseWithSolar).getSolarToken().transfer(houseThatNeedsPV, amount); // need to work on amount\n        // reset PV generated for each house\n        House(houseWithSolar).subtractFromPVGeneration(amount);\n        House(houseThatNeedsPV).subtractFromPVGeneration(amount);\n    }\n\n    function findHouseThatNeedsPV(address houseWithSolar) internal view returns (address houseNeedsPV) {\n        address[] memory houseArray = closestHouses[houseWithSolar];\n        for (uint p = 0; p < houseArray.length;){\n            if (House(houseArray[p]).booleanNeedPV() == true){\n                houseNeedsPV = houseArray[p];\n                return houseNeedsPV;\n            }\n            unchecked{ p++; }\n        }\n    }\n\n    function addHouseToMap(address houseAddress) internal {\n        uint startGas = gasleft();\n        // add house with empty array to mapping\n        address[] memory emptyArray = new address[](clones.length - 1);\n        closestHouses[houseAddress] = emptyArray;\n\n        // for each house, we need to make an array of houses\n        for (uint i = 0; i < clones.length;){\n            // we need to remove the current house from the array\n            address[] memory houseArray = createHouseArrayMinusCurrentHouse(clones[i]);\n            // need to sort array based on distance from house we are selecting to the rest of the houses\n            address[] memory sortedArray = insertionSort(houseArray, clones[i]);\n            closestHouses[clones[i]] = sortedArray; // add new sorted array to hashmap for particular house address\n            unchecked{ i++; }\n        }\n        console.log(\"Gas used for addHouseToMap(): %o\", startGas - gasleft());\n    }\n\n    function insertionSort(address[] memory houseArray, address curHouse) internal returns (address[] memory){\n        uint startGas = gasleft();\n        uint size = houseArray.length;\n        for (uint g = 1; g < size;){\n            address key = houseArray[g];\n            int h;\n            unchecked{ h = int(g - 1); }\n\n            uint distanceFromKeyToHouse = calculateDistanceBetweenHouses(1, 2, 3, 4);\n            while (h >= 0 && distanceFromKeyToHouse < calculateDistanceBetweenHouses(5, 6, 7, 8)){\n                houseArray[uint(h + 1)] = houseArray[uint(h)];\n                unchecked{ h = h - 1; }\n            }\n            houseArray[uint(h + 1)] = key;\n            unchecked{ g++; }\n        }\n        console.log(\"Gas used for insertionSort(): %o\", startGas - gasleft());\n        return houseArray;\n    }\n\n    function createHouseArrayMinusCurrentHouse(address houseAddress) internal view returns (address[] memory houseArray){\n        houseArray = new address[](clones.length - 1);\n        uint counter = 0;\n        for (uint a = 0; a < clones.length;){\n            if (clones[a] != houseAddress){\n                houseArray[counter] = clones[a];\n                unchecked{ counter++; }\n            }\n            unchecked{ a++; }\n        }\n        return houseArray;\n    }\n\n    function calculateDistanceBetweenHouses(uint latitude1, uint latitude2, uint longitude1, uint longitude2) internal pure returns (uint){\n        int x = int(latitude1) - int(latitude2);\n        int y = int(longitude1) - int(longitude2);\n        uint xPlusYSquared = uint((x*x) + (y*y));\n        return sqrt(xPlusYSquared);\n    }\n\n    function sqrt(uint y) internal pure returns (uint z) {\n        if (y > 3) {\n            z = y;\n            uint x;\n            unchecked{ x = (y / 2) + 1; }\n            while (x < z) {\n                z = x;\n                unchecked{ x = ((y / x) + x) / 2; }\n            }\n        } \n        else if (y != 0) {\n            z = 1;\n        }\n    }\n}",
  "sourcePath": "/Users/juliagroza/Desktop/virtual-net-metering/contracts/HouseFactory.sol",
  "compiler": {
    "name": "solc",
    "version": "0.8.19+commit.7dd6d404.Emscripten.clang"
  },
  "schemaVersion": "3.4.14",
  "updatedAt": "2023-07-19T04:13:31.855Z",
  "networkType": "ethereum",
  "devdoc": {
    "kind": "dev",
    "methods": {
      "owner()": {
        "details": "Returns the address of the current owner."
      },
      "renounceOwnership()": {
        "details": "Leaves the contract without owner. It will not be possible to call `onlyOwner` functions. Can only be called by the current owner. NOTE: Renouncing ownership will leave the contract without an owner, thereby disabling any functionality that is only available to the owner."
      },
      "transferOwnership(address)": {
        "details": "Transfers ownership of the contract to a new account (`newOwner`). Can only be called by the current owner."
      }
    },
    "version": 1
  },
  "userdoc": {
    "kind": "user",
    "methods": {},
    "version": 1
  }
}