{
  "contractName": "HouseFactory",
  "abi": [
    {
      "inputs": [
        {
          "internalType": "address",
          "name": "_libraryAddress",
          "type": "address"
        }
      ],
      "stateMutability": "nonpayable",
      "type": "constructor"
    },
    {
      "anonymous": false,
      "inputs": [
        {
          "indexed": false,
          "internalType": "address",
          "name": "newHouse",
          "type": "address"
        }
      ],
      "name": "HouseCreated",
      "type": "event"
    },
    {
      "anonymous": false,
      "inputs": [
        {
          "indexed": true,
          "internalType": "address",
          "name": "previousOwner",
          "type": "address"
        },
        {
          "indexed": true,
          "internalType": "address",
          "name": "newOwner",
          "type": "address"
        }
      ],
      "name": "OwnershipTransferred",
      "type": "event"
    },
    {
      "inputs": [
        {
          "internalType": "uint256",
          "name": "",
          "type": "uint256"
        }
      ],
      "name": "clones",
      "outputs": [
        {
          "internalType": "address",
          "name": "",
          "type": "address"
        }
      ],
      "stateMutability": "view",
      "type": "function",
      "constant": true
    },
    {
      "inputs": [],
      "name": "libraryAddress",
      "outputs": [
        {
          "internalType": "address",
          "name": "",
          "type": "address"
        }
      ],
      "stateMutability": "view",
      "type": "function",
      "constant": true
    },
    {
      "inputs": [],
      "name": "owner",
      "outputs": [
        {
          "internalType": "address",
          "name": "",
          "type": "address"
        }
      ],
      "stateMutability": "view",
      "type": "function",
      "constant": true
    },
    {
      "inputs": [],
      "name": "renounceOwnership",
      "outputs": [],
      "stateMutability": "nonpayable",
      "type": "function"
    },
    {
      "inputs": [
        {
          "internalType": "address",
          "name": "newOwner",
          "type": "address"
        }
      ],
      "name": "transferOwnership",
      "outputs": [],
      "stateMutability": "nonpayable",
      "type": "function"
    },
    {
      "inputs": [
        {
          "internalType": "int256",
          "name": "_latitude",
          "type": "int256"
        },
        {
          "internalType": "int256",
          "name": "_longitude",
          "type": "int256"
        }
      ],
      "name": "createHouse",
      "outputs": [],
      "stateMutability": "nonpayable",
      "type": "function"
    },
    {
      "inputs": [],
      "name": "getAllHouses",
      "outputs": [
        {
          "internalType": "address[]",
          "name": "",
          "type": "address[]"
        }
      ],
      "stateMutability": "view",
      "type": "function",
      "constant": true
    },
    {
      "inputs": [
        {
          "internalType": "address",
          "name": "houseWithSolar",
          "type": "address"
        }
      ],
      "name": "makeTransfer",
      "outputs": [],
      "stateMutability": "nonpayable",
      "type": "function"
    }
  ],
  "bytecode": "0x60806040523480156200001157600080fd5b5060405162000e9638038062000e968339818101604052810190620000379190620001d5565b620000576200004b6200009f60201b60201c565b620000a760201b60201c565b80600160006101000a81548173ffffffffffffffffffffffffffffffffffffffff021916908373ffffffffffffffffffffffffffffffffffffffff1602179055505062000207565b600033905090565b60008060009054906101000a900473ffffffffffffffffffffffffffffffffffffffff169050816000806101000a81548173ffffffffffffffffffffffffffffffffffffffff021916908373ffffffffffffffffffffffffffffffffffffffff1602179055508173ffffffffffffffffffffffffffffffffffffffff168173ffffffffffffffffffffffffffffffffffffffff167f8be0079c531659141344cd1fd0a4f28419497f9722a3daafe3b4186f6b6457e060405160405180910390a35050565b600080fd5b600073ffffffffffffffffffffffffffffffffffffffff82169050919050565b60006200019d8262000170565b9050919050565b620001af8162000190565b8114620001bb57600080fd5b50565b600081519050620001cf81620001a4565b92915050565b600060208284031215620001ee57620001ed6200016b565b5b6000620001fe84828501620001be565b91505092915050565b610c7f80620002176000396000f3fe608060405234801561001057600080fd5b50600436106100885760003560e01c80638da5cb5b1161005b5780638da5cb5b146100ff578063b816f5131461011d578063d87deea81461013b578063f2fde38b1461015957610088565b80630e0399161461008d5780630f5898f3146100bd5780632d5cea8e146100d9578063715018a6146100f5575b600080fd5b6100a760048036038101906100a291906107af565b610175565b6040516100b4919061081d565b60405180910390f35b6100d760048036038101906100d2919061086e565b6101b4565b005b6100f360048036038101906100ee91906108da565b610334565b005b6100fd610337565b005b61010761034b565b604051610114919061081d565b60405180910390f35b610125610374565b604051610132919061081d565b60405180910390f35b61014361039a565b60405161015091906109c5565b60405180910390f35b610173600480360381019061016e91906108da565b610428565b005b6002818154811061018557600080fd5b906000526020600020016000915054906101000a900473ffffffffffffffffffffffffffffffffffffffff1681565b60006101e1600160009054906101000a900473ffffffffffffffffffffffffffffffffffffffff166104ab565b905060008190508073ffffffffffffffffffffffffffffffffffffffff16630c8f420785856040518363ffffffff1660e01b81526004016102239291906109f6565b600060405180830381600087803b15801561023d57600080fd5b505af1158015610251573d6000803e3d6000fd5b505050506002829080600181540180825580915050600190039060005260206000200160009091909190916101000a81548173ffffffffffffffffffffffffffffffffffffffff021916908373ffffffffffffffffffffffffffffffffffffffff1602179055507f37acd5820bb80999bd4703a1876fd351428c2fe9f93363014f4081a6f5e434d8826040516102e7919061081d565b60405180910390a161032e6040518060400160405280601c81526020017f486f7573652063726561746564207769746820616464726573733a200000000081525083610565565b50505050565b50565b61033f610601565b610349600061067f565b565b60008060009054906101000a900473ffffffffffffffffffffffffffffffffffffffff16905090565b600160009054906101000a900473ffffffffffffffffffffffffffffffffffffffff1681565b6060600280548060200260200160405190810160405280929190818152602001828054801561041e57602002820191906000526020600020905b8160009054906101000a900473ffffffffffffffffffffffffffffffffffffffff1673ffffffffffffffffffffffffffffffffffffffff16815260200190600101908083116103d4575b5050505050905090565b610430610601565b600073ffffffffffffffffffffffffffffffffffffffff168173ffffffffffffffffffffffffffffffffffffffff160361049f576040517f08c379a000000000000000000000000000000000000000000000000000000000815260040161049690610aa2565b60405180910390fd5b6104a88161067f565b50565b6000763d602d80600a3d3981f3363d3d373d3d3d363d730000008260601b60e81c176000526e5af43d82803e903d91602b57fd5bf38260781b17602052603760096000f09050600073ffffffffffffffffffffffffffffffffffffffff168173ffffffffffffffffffffffffffffffffffffffff1603610560576040517f08c379a000000000000000000000000000000000000000000000000000000000815260040161055790610b0e565b60405180910390fd5b919050565b6105fd828260405160240161057b929190610bad565b6040516020818303038152906040527f319af333000000000000000000000000000000000000000000000000000000007bffffffffffffffffffffffffffffffffffffffffffffffffffffffff19166020820180517bffffffffffffffffffffffffffffffffffffffffffffffffffffffff8381831617835250505050610743565b5050565b61060961076c565b73ffffffffffffffffffffffffffffffffffffffff1661062761034b565b73ffffffffffffffffffffffffffffffffffffffff161461067d576040517f08c379a000000000000000000000000000000000000000000000000000000000815260040161067490610c29565b60405180910390fd5b565b60008060009054906101000a900473ffffffffffffffffffffffffffffffffffffffff169050816000806101000a81548173ffffffffffffffffffffffffffffffffffffffff021916908373ffffffffffffffffffffffffffffffffffffffff1602179055508173ffffffffffffffffffffffffffffffffffffffff168173ffffffffffffffffffffffffffffffffffffffff167f8be0079c531659141344cd1fd0a4f28419497f9722a3daafe3b4186f6b6457e060405160405180910390a35050565b60008151905060006a636f6e736f6c652e6c6f679050602083016000808483855afa5050505050565b600033905090565b600080fd5b6000819050919050565b61078c81610779565b811461079757600080fd5b50565b6000813590506107a981610783565b92915050565b6000602082840312156107c5576107c4610774565b5b60006107d38482850161079a565b91505092915050565b600073ffffffffffffffffffffffffffffffffffffffff82169050919050565b6000610807826107dc565b9050919050565b610817816107fc565b82525050565b6000602082019050610832600083018461080e565b92915050565b6000819050919050565b61084b81610838565b811461085657600080fd5b50565b60008135905061086881610842565b92915050565b6000806040838503121561088557610884610774565b5b600061089385828601610859565b92505060206108a485828601610859565b9150509250929050565b6108b7816107fc565b81146108c257600080fd5b50565b6000813590506108d4816108ae565b92915050565b6000602082840312156108f0576108ef610774565b5b60006108fe848285016108c5565b91505092915050565b600081519050919050565b600082825260208201905092915050565b6000819050602082019050919050565b61093c816107fc565b82525050565b600061094e8383610933565b60208301905092915050565b6000602082019050919050565b600061097282610907565b61097c8185610912565b935061098783610923565b8060005b838110156109b857815161099f8882610942565b97506109aa8361095a565b92505060018101905061098b565b5085935050505092915050565b600060208201905081810360008301526109df8184610967565b905092915050565b6109f081610838565b82525050565b6000604082019050610a0b60008301856109e7565b610a1860208301846109e7565b9392505050565b600082825260208201905092915050565b7f4f776e61626c653a206e6577206f776e657220697320746865207a65726f206160008201527f6464726573730000000000000000000000000000000000000000000000000000602082015250565b6000610a8c602683610a1f565b9150610a9782610a30565b604082019050919050565b60006020820190508181036000830152610abb81610a7f565b9050919050565b7f455243313136373a20637265617465206661696c656400000000000000000000600082015250565b6000610af8601683610a1f565b9150610b0382610ac2565b602082019050919050565b60006020820190508181036000830152610b2781610aeb565b9050919050565b600081519050919050565b60005b83811015610b57578082015181840152602081019050610b3c565b60008484015250505050565b6000601f19601f8301169050919050565b6000610b7f82610b2e565b610b898185610a1f565b9350610b99818560208601610b39565b610ba281610b63565b840191505092915050565b60006040820190508181036000830152610bc78185610b74565b9050610bd6602083018461080e565b9392505050565b7f4f776e61626c653a2063616c6c6572206973206e6f7420746865206f776e6572600082015250565b6000610c13602083610a1f565b9150610c1e82610bdd565b602082019050919050565b60006020820190508181036000830152610c4281610c06565b905091905056fea264697066735822122076ec0985eebb7a4aa7c3d4b7e13bc5721122133082418bac029fed4c9d5492ec64736f6c63430008130033",
  "immutableReferences": {},
  "source": "//SPDX-License-Identifier: Unlicense\n// contracts/HouseFactory.sol\n/// @title\n/// @author Julia Groza\n/// @notice \n\npragma solidity ^0.8.0;\n\nimport \"hardhat/console.sol\";\nimport \"./House.sol\";\nimport \"@openzeppelin/contracts/proxy/Clones.sol\";\nimport \"@openzeppelin/contracts/access/Ownable.sol\";\n\n\ncontract HouseFactory is Ownable{\n\n    address public libraryAddress;\n    event HouseCreated(address newHouse);\n    address[] public clones;\n\n    // Initializing the address that deploys the HouseFactory contract\n    constructor(address _libraryAddress) public {\n        libraryAddress = _libraryAddress;\n    }\n\n    function createHouse(int _latitude, int _longitude) external {\n        address house = Clones.clone(libraryAddress); // creates a new House object with the createClone function from CloneFactory.sol\n        House newHouse = House(house);\n        newHouse.initialize(_latitude, _longitude);\n        clones.push(house); // adds house to array of houses in the HouseFactory contract\n        emit HouseCreated(house); // emits an event for visibility purposes\n        console.log(\"House created with address: \", house);\n    }\n\n    function getAllHouses() external view returns (address[] memory) {\n        return clones;\n    }\n\n    function makeTransfer(address houseWithSolar) public {\n\n    }\n\n    function addHouseToMap() internal {\n\n\n    }\n\n    function calculateDistanceBetweenHouses(House house1, House house2) internal {\n\n    }\n}",
  "sourcePath": "/Users/juliagroza/Desktop/virtual-net-metering/contracts/HouseFactory.sol",
  "compiler": {
    "name": "solc",
    "version": "0.8.19+commit.7dd6d404.Emscripten.clang"
  },
  "schemaVersion": "3.4.14",
  "updatedAt": "2023-07-05T16:55:27.116Z",
  "networkType": "ethereum",
  "devdoc": {
    "kind": "dev",
    "methods": {
      "owner()": {
        "details": "Returns the address of the current owner."
      },
      "renounceOwnership()": {
        "details": "Leaves the contract without owner. It will not be possible to call `onlyOwner` functions. Can only be called by the current owner. NOTE: Renouncing ownership will leave the contract without an owner, thereby disabling any functionality that is only available to the owner."
      },
      "transferOwnership(address)": {
        "details": "Transfers ownership of the contract to a new account (`newOwner`). Can only be called by the current owner."
      }
    },
    "version": 1
  },
  "userdoc": {
    "kind": "user",
    "methods": {},
    "version": 1
  }
}