{
  "contractName": "HouseFactory",
  "abi": [
    {
      "inputs": [
        {
          "internalType": "address",
          "name": "_libraryAddress",
          "type": "address"
        }
      ],
      "stateMutability": "nonpayable",
      "type": "constructor"
    },
    {
      "anonymous": false,
      "inputs": [
        {
          "indexed": false,
          "internalType": "address",
          "name": "newHouse",
          "type": "address"
        }
      ],
      "name": "HouseCreated",
      "type": "event"
    },
    {
      "anonymous": false,
      "inputs": [
        {
          "indexed": true,
          "internalType": "address",
          "name": "previousOwner",
          "type": "address"
        },
        {
          "indexed": true,
          "internalType": "address",
          "name": "newOwner",
          "type": "address"
        }
      ],
      "name": "OwnershipTransferred",
      "type": "event"
    },
    {
      "inputs": [
        {
          "internalType": "uint256",
          "name": "",
          "type": "uint256"
        }
      ],
      "name": "clones",
      "outputs": [
        {
          "internalType": "address",
          "name": "",
          "type": "address"
        }
      ],
      "stateMutability": "view",
      "type": "function",
      "constant": true
    },
    {
      "inputs": [
        {
          "internalType": "address",
          "name": "",
          "type": "address"
        },
        {
          "internalType": "uint256",
          "name": "",
          "type": "uint256"
        }
      ],
      "name": "closestHouses",
      "outputs": [
        {
          "internalType": "address",
          "name": "",
          "type": "address"
        }
      ],
      "stateMutability": "view",
      "type": "function",
      "constant": true
    },
    {
      "inputs": [],
      "name": "libraryAddress",
      "outputs": [
        {
          "internalType": "address",
          "name": "",
          "type": "address"
        }
      ],
      "stateMutability": "view",
      "type": "function",
      "constant": true
    },
    {
      "inputs": [],
      "name": "owner",
      "outputs": [
        {
          "internalType": "address",
          "name": "",
          "type": "address"
        }
      ],
      "stateMutability": "view",
      "type": "function",
      "constant": true
    },
    {
      "inputs": [],
      "name": "renounceOwnership",
      "outputs": [],
      "stateMutability": "nonpayable",
      "type": "function"
    },
    {
      "inputs": [
        {
          "internalType": "address",
          "name": "newOwner",
          "type": "address"
        }
      ],
      "name": "transferOwnership",
      "outputs": [],
      "stateMutability": "nonpayable",
      "type": "function"
    },
    {
      "inputs": [
        {
          "internalType": "uint256",
          "name": "_latitude",
          "type": "uint256"
        },
        {
          "internalType": "uint256",
          "name": "_longitude",
          "type": "uint256"
        }
      ],
      "name": "createHouse",
      "outputs": [],
      "stateMutability": "nonpayable",
      "type": "function"
    },
    {
      "inputs": [],
      "name": "getAllHouses",
      "outputs": [
        {
          "internalType": "address[]",
          "name": "",
          "type": "address[]"
        }
      ],
      "stateMutability": "view",
      "type": "function",
      "constant": true
    },
    {
      "inputs": [],
      "name": "printClosestHousesForEachHouse",
      "outputs": [],
      "stateMutability": "view",
      "type": "function",
      "constant": true
    },
    {
      "inputs": [
        {
          "internalType": "address",
          "name": "houseWithSolar",
          "type": "address"
        }
      ],
      "name": "makeTransfer",
      "outputs": [],
      "stateMutability": "nonpayable",
      "type": "function"
    }
  ],
  "bytecode": "0x60806040523480156200001157600080fd5b5060405162002513380380620025138339818101604052810190620000379190620001d5565b620000576200004b6200009f60201b60201c565b620000a760201b60201c565b80600160006101000a81548173ffffffffffffffffffffffffffffffffffffffff021916908373ffffffffffffffffffffffffffffffffffffffff1602179055505062000207565b600033905090565b60008060009054906101000a900473ffffffffffffffffffffffffffffffffffffffff169050816000806101000a81548173ffffffffffffffffffffffffffffffffffffffff021916908373ffffffffffffffffffffffffffffffffffffffff1602179055508173ffffffffffffffffffffffffffffffffffffffff168173ffffffffffffffffffffffffffffffffffffffff167f8be0079c531659141344cd1fd0a4f28419497f9722a3daafe3b4186f6b6457e060405160405180910390a35050565b600080fd5b600073ffffffffffffffffffffffffffffffffffffffff82169050919050565b60006200019d8262000170565b9050919050565b620001af8162000190565b8114620001bb57600080fd5b50565b600081519050620001cf81620001a4565b92915050565b600060208284031215620001ee57620001ed6200016b565b5b6000620001fe84828501620001be565b91505092915050565b6122fc80620002176000396000f3fe608060405234801561001057600080fd5b506004361061009e5760003560e01c8063715018a611610066578063715018a6146101455780638da5cb5b1461014f578063b816f5131461016d578063d87deea81461018b578063f2fde38b146101a95761009e565b80630e039916146100a357806318d73d2c146100d35780632d5cea8e146101035780632e4b2dc01461011f578063605e54b61461013b575b600080fd5b6100bd60048036038101906100b89190611ab1565b6101c5565b6040516100ca9190611b1f565b60405180910390f35b6100ed60048036038101906100e89190611b66565b610204565b6040516100fa9190611b1f565b60405180910390f35b61011d60048036038101906101189190611ba6565b610252565b005b61013960048036038101906101349190611bd3565b610616565b005b61014361079f565b005b61014d6109f4565b005b610157610a08565b6040516101649190611b1f565b60405180910390f35b610175610a31565b6040516101829190611b1f565b60405180910390f35b610193610a57565b6040516101a09190611cd1565b60405180910390f35b6101c360048036038101906101be9190611ba6565b610ae5565b005b600281815481106101d557600080fd5b906000526020600020016000915054906101000a900473ffffffffffffffffffffffffffffffffffffffff1681565b6003602052816000526040600020818154811061022057600080fd5b906000526020600020016000915091509054906101000a900473ffffffffffffffffffffffffffffffffffffffff1681565b600061025d82610b68565b90506000808273ffffffffffffffffffffffffffffffffffffffff1663fa3c0a1b6040518163ffffffff1660e01b8152600401602060405180830381865afa1580156102ad573d6000803e3d6000fd5b505050506040513d601f19601f820116820180604052508101906102d19190611d08565b8373ffffffffffffffffffffffffffffffffffffffff16637b273f016040518163ffffffff1660e01b8152600401602060405180830381865afa15801561031c573d6000803e3d6000fd5b505050506040513d601f19601f820116820180604052508101906103409190611d08565b61034a9190611d64565b905060008473ffffffffffffffffffffffffffffffffffffffff16637b273f016040518163ffffffff1660e01b8152600401602060405180830381865afa158015610399573d6000803e3d6000fd5b505050506040513d601f19601f820116820180604052508101906103bd9190611d08565b8573ffffffffffffffffffffffffffffffffffffffff1663fa3c0a1b6040518163ffffffff1660e01b8152600401602060405180830381865afa158015610408573d6000803e3d6000fd5b505050506040513d601f19601f8201168201806040525081019061042c9190611d08565b6104369190611d64565b9050808210156104485781925061044c565b8092505b8473ffffffffffffffffffffffffffffffffffffffff1663f20269926040518163ffffffff1660e01b8152600401602060405180830381865afa158015610497573d6000803e3d6000fd5b505050506040513d601f19601f820116820180604052508101906104bb9190611dd6565b73ffffffffffffffffffffffffffffffffffffffff1663a9059cbb85856040518363ffffffff1660e01b81526004016104f5929190611e12565b6020604051808303816000875af1158015610514573d6000803e3d6000fd5b505050506040513d601f19601f820116820180604052508101906105389190611e73565b508473ffffffffffffffffffffffffffffffffffffffff1663e1712fb7846040518263ffffffff1660e01b81526004016105729190611ea0565b600060405180830381600087803b15801561058c57600080fd5b505af11580156105a0573d6000803e3d6000fd5b505050508373ffffffffffffffffffffffffffffffffffffffff1663e1712fb7846040518263ffffffff1660e01b81526004016105dd9190611ea0565b600060405180830381600087803b1580156105f757600080fd5b505af115801561060b573d6000803e3d6000fd5b505050505050505050565b6000610643600160009054906101000a900473ffffffffffffffffffffffffffffffffffffffff16610d0a565b905060008190508073ffffffffffffffffffffffffffffffffffffffff1663e4a3011685856040518363ffffffff1660e01b8152600401610685929190611ebb565b600060405180830381600087803b15801561069f57600080fd5b505af11580156106b3573d6000803e3d6000fd5b505050506002829080600181540180825580915050600190039060005260206000200160009091909190916101000a81548173ffffffffffffffffffffffffffffffffffffffff021916908373ffffffffffffffffffffffffffffffffffffffff1602179055507f37acd5820bb80999bd4703a1876fd351428c2fe9f93363014f4081a6f5e434d8826040516107499190611b1f565b60405180910390a16107906040518060400160405280601c81526020017f486f7573652063726561746564207769746820616464726573733a200000000081525083610dc4565b61079982610e60565b50505050565b6107dd6040518060400160405280601781526020017f5072696e74696e672066726f6d20686173686d61703a2000000000000000000081525061105f565b60005b6002805490508110156109f15761086a6040518060400160405280600781526020017f486f7573653a20000000000000000000000000000000000000000000000000008152506002838154811061083a57610839611ee4565b5b9060005260206000200160009054906101000a900473ffffffffffffffffffffffffffffffffffffffff16610dc4565b6000600360006002848154811061088457610883611ee4565b5b9060005260206000200160009054906101000a900473ffffffffffffffffffffffffffffffffffffffff1673ffffffffffffffffffffffffffffffffffffffff1673ffffffffffffffffffffffffffffffffffffffff16815260200190815260200160002080548060200260200160405190810160405280929190818152602001828054801561096957602002820191906000526020600020905b8160009054906101000a900473ffffffffffffffffffffffffffffffffffffffff1673ffffffffffffffffffffffffffffffffffffffff168152602001906001019080831161091f575b5050505050905060005b81518110156109e2576109d56040518060400160405280601481526020017f4e65787420636c6f7365737420686f7573653a200000000000000000000000008152508383815181106109c8576109c7611ee4565b5b6020026020010151610dc4565b8080600101915050610973565b508180600101925050506107e0565b50565b6109fc6110f8565b610a066000611176565b565b60008060009054906101000a900473ffffffffffffffffffffffffffffffffffffffff16905090565b600160009054906101000a900473ffffffffffffffffffffffffffffffffffffffff1681565b60606002805480602002602001604051908101604052809291908181526020018280548015610adb57602002820191906000526020600020905b8160009054906101000a900473ffffffffffffffffffffffffffffffffffffffff1673ffffffffffffffffffffffffffffffffffffffff1681526020019060010190808311610a91575b5050505050905090565b610aed6110f8565b600073ffffffffffffffffffffffffffffffffffffffff168173ffffffffffffffffffffffffffffffffffffffff1603610b5c576040517f08c379a0000000000000000000000000000000000000000000000000000000008152600401610b5390611f96565b60405180910390fd5b610b6581611176565b50565b600080600360008473ffffffffffffffffffffffffffffffffffffffff1673ffffffffffffffffffffffffffffffffffffffff168152602001908152602001600020805480602002602001604051908101604052809291908181526020018280548015610c2a57602002820191906000526020600020905b8160009054906101000a900473ffffffffffffffffffffffffffffffffffffffff1673ffffffffffffffffffffffffffffffffffffffff1681526020019060010190808311610be0575b5050505050905060005b8151811015610d025760011515828281518110610c5457610c53611ee4565b5b602002602001015173ffffffffffffffffffffffffffffffffffffffff166366742bb96040518163ffffffff1660e01b8152600401602060405180830381865afa158015610ca6573d6000803e3d6000fd5b505050506040513d601f19601f82011682018060405250810190610cca9190611e73565b151503610cf557818181518110610ce457610ce3611ee4565b5b602002602001015192505050610d05565b8080600101915050610c34565b50505b919050565b6000763d602d80600a3d3981f3363d3d373d3d3d363d730000008260601b60e81c176000526e5af43d82803e903d91602b57fd5bf38260781b17602052603760096000f09050600073ffffffffffffffffffffffffffffffffffffffff168173ffffffffffffffffffffffffffffffffffffffff1603610dbf576040517f08c379a0000000000000000000000000000000000000000000000000000000008152600401610db690612002565b60405180910390fd5b919050565b610e5c8282604051602401610dda9291906120a1565b6040516020818303038152906040527f319af333000000000000000000000000000000000000000000000000000000007bffffffffffffffffffffffffffffffffffffffffffffffffffffffff19166020820180517bffffffffffffffffffffffffffffffffffffffffffffffffffffffff838183161783525050505061123a565b5050565b60006001600280549050610e749190611d64565b67ffffffffffffffff811115610e8d57610e8c6120d1565b5b604051908082528060200260200182016040528015610ebb5781602001602082028036833780820191505090505b50905080600360008473ffffffffffffffffffffffffffffffffffffffff1673ffffffffffffffffffffffffffffffffffffffff1681526020019081526020016000209080519060200190610f119291906119cf565b5060005b60028054905081101561105a576000610f6b60028381548110610f3b57610f3a611ee4565b5b9060005260206000200160009054906101000a900473ffffffffffffffffffffffffffffffffffffffff16611263565b90506000610fb78260028581548110610f8757610f86611ee4565b5b9060005260206000200160009054906101000a900473ffffffffffffffffffffffffffffffffffffffff166113ec565b9050806003600060028681548110610fd257610fd1611ee4565b5b9060005260206000200160009054906101000a900473ffffffffffffffffffffffffffffffffffffffff1673ffffffffffffffffffffffffffffffffffffffff1673ffffffffffffffffffffffffffffffffffffffff168152602001908152602001600020908051906020019061104a9291906119cf565b5082806001019350505050610f15565b505050565b6110f5816040516024016110739190612100565b6040516020818303038152906040527f41304fac000000000000000000000000000000000000000000000000000000007bffffffffffffffffffffffffffffffffffffffffffffffffffffffff19166020820180517bffffffffffffffffffffffffffffffffffffffffffffffffffffffff838183161783525050505061123a565b50565b6111006118f3565b73ffffffffffffffffffffffffffffffffffffffff1661111e610a08565b73ffffffffffffffffffffffffffffffffffffffff1614611174576040517f08c379a000000000000000000000000000000000000000000000000000000000815260040161116b9061216e565b60405180910390fd5b565b60008060009054906101000a900473ffffffffffffffffffffffffffffffffffffffff169050816000806101000a81548173ffffffffffffffffffffffffffffffffffffffff021916908373ffffffffffffffffffffffffffffffffffffffff1602179055508173ffffffffffffffffffffffffffffffffffffffff168173ffffffffffffffffffffffffffffffffffffffff167f8be0079c531659141344cd1fd0a4f28419497f9722a3daafe3b4186f6b6457e060405160405180910390a35050565b60008151905060006a636f6e736f6c652e6c6f679050602083016000808483855afa5050505050565b606060016002805490506112779190611d64565b67ffffffffffffffff8111156112905761128f6120d1565b5b6040519080825280602002602001820160405280156112be5781602001602082028036833780820191505090505b5090506000805b6002805490508110156113e5578373ffffffffffffffffffffffffffffffffffffffff16600282815481106112fd576112fc611ee4565b5b9060005260206000200160009054906101000a900473ffffffffffffffffffffffffffffffffffffffff1673ffffffffffffffffffffffffffffffffffffffff16146113d8576002818154811061135757611356611ee4565b5b9060005260206000200160009054906101000a900473ffffffffffffffffffffffffffffffffffffffff1683838151811061139557611394611ee4565b5b602002602001019073ffffffffffffffffffffffffffffffffffffffff16908173ffffffffffffffffffffffffffffffffffffffff168152505081806001019250505b80806001019150506112c5565b5050919050565b60606000835190506000600190505b818110156118e857600085828151811061141857611417611ee4565b5b60200260200101519050600060018303905060006115f08373ffffffffffffffffffffffffffffffffffffffff1663ae7b6bd96040518163ffffffff1660e01b8152600401602060405180830381865afa15801561147a573d6000803e3d6000fd5b505050506040513d601f19601f8201168201806040525081019061149e9190611d08565b8873ffffffffffffffffffffffffffffffffffffffff1663ae7b6bd96040518163ffffffff1660e01b8152600401602060405180830381865afa1580156114e9573d6000803e3d6000fd5b505050506040513d601f19601f8201168201806040525081019061150d9190611d08565b8573ffffffffffffffffffffffffffffffffffffffff166355b72f386040518163ffffffff1660e01b8152600401602060405180830381865afa158015611558573d6000803e3d6000fd5b505050506040513d601f19601f8201168201806040525081019061157c9190611d08565b8a73ffffffffffffffffffffffffffffffffffffffff166355b72f386040518163ffffffff1660e01b8152600401602060405180830381865afa1580156115c7573d6000803e3d6000fd5b505050506040513d601f19601f820116820180604052508101906115eb9190611d08565b6118fb565b90505b600082121580156117fa57506117f788838151811061161557611614611ee4565b5b602002602001015173ffffffffffffffffffffffffffffffffffffffff1663ae7b6bd96040518163ffffffff1660e01b8152600401602060405180830381865afa158015611667573d6000803e3d6000fd5b505050506040513d601f19601f8201168201806040525081019061168b9190611d08565b8873ffffffffffffffffffffffffffffffffffffffff1663ae7b6bd96040518163ffffffff1660e01b8152600401602060405180830381865afa1580156116d6573d6000803e3d6000fd5b505050506040513d601f19601f820116820180604052508101906116fa9190611d08565b8a858151811061170d5761170c611ee4565b5b602002602001015173ffffffffffffffffffffffffffffffffffffffff166355b72f386040518163ffffffff1660e01b8152600401602060405180830381865afa15801561175f573d6000803e3d6000fd5b505050506040513d601f19601f820116820180604052508101906117839190611d08565b8a73ffffffffffffffffffffffffffffffffffffffff166355b72f386040518163ffffffff1660e01b8152600401602060405180830381865afa1580156117ce573d6000803e3d6000fd5b505050506040513d601f19601f820116820180604052508101906117f29190611d08565b6118fb565b81105b1561187e5787828151811061181257611811611ee4565b5b6020026020010151886001846118289190612198565b8151811061183957611838611ee4565b5b602002602001019073ffffffffffffffffffffffffffffffffffffffff16908173ffffffffffffffffffffffffffffffffffffffff16815250506001820391506115f3565b828860018461188d9190612198565b8151811061189e5761189d611ee4565b5b602002602001019073ffffffffffffffffffffffffffffffffffffffff16908173ffffffffffffffffffffffffffffffffffffffff168152505083806001019450505050506113fb565b508391505092915050565b600033905090565b600080848661190a91906121dc565b90506000838561191a91906121dc565b90506000818261192a919061221f565b8384611936919061221f565b6119409190612198565b905061194b81611958565b9350505050949350505050565b600060038211156119bc57819050600060016002848161197b5761197a612297565b5b040190505b818110156119b65780915060028182858161199e5761199d612297565b5b0401816119ae576119ad612297565b5b049050611980565b506119ca565b600082146119c957600190505b5b919050565b828054828255906000526020600020908101928215611a48579160200282015b82811115611a475782518260006101000a81548173ffffffffffffffffffffffffffffffffffffffff021916908373ffffffffffffffffffffffffffffffffffffffff160217905550916020019190600101906119ef565b5b509050611a559190611a59565b5090565b5b80821115611a72576000816000905550600101611a5a565b5090565b600080fd5b6000819050919050565b611a8e81611a7b565b8114611a9957600080fd5b50565b600081359050611aab81611a85565b92915050565b600060208284031215611ac757611ac6611a76565b5b6000611ad584828501611a9c565b91505092915050565b600073ffffffffffffffffffffffffffffffffffffffff82169050919050565b6000611b0982611ade565b9050919050565b611b1981611afe565b82525050565b6000602082019050611b346000830184611b10565b92915050565b611b4381611afe565b8114611b4e57600080fd5b50565b600081359050611b6081611b3a565b92915050565b60008060408385031215611b7d57611b7c611a76565b5b6000611b8b85828601611b51565b9250506020611b9c85828601611a9c565b9150509250929050565b600060208284031215611bbc57611bbb611a76565b5b6000611bca84828501611b51565b91505092915050565b60008060408385031215611bea57611be9611a76565b5b6000611bf885828601611a9c565b9250506020611c0985828601611a9c565b9150509250929050565b600081519050919050565b600082825260208201905092915050565b6000819050602082019050919050565b611c4881611afe565b82525050565b6000611c5a8383611c3f565b60208301905092915050565b6000602082019050919050565b6000611c7e82611c13565b611c888185611c1e565b9350611c9383611c2f565b8060005b83811015611cc4578151611cab8882611c4e565b9750611cb683611c66565b925050600181019050611c97565b5085935050505092915050565b60006020820190508181036000830152611ceb8184611c73565b905092915050565b600081519050611d0281611a85565b92915050565b600060208284031215611d1e57611d1d611a76565b5b6000611d2c84828501611cf3565b91505092915050565b7f4e487b7100000000000000000000000000000000000000000000000000000000600052601160045260246000fd5b6000611d6f82611a7b565b9150611d7a83611a7b565b9250828203905081811115611d9257611d91611d35565b5b92915050565b6000611da382611afe565b9050919050565b611db381611d98565b8114611dbe57600080fd5b50565b600081519050611dd081611daa565b92915050565b600060208284031215611dec57611deb611a76565b5b6000611dfa84828501611dc1565b91505092915050565b611e0c81611a7b565b82525050565b6000604082019050611e276000830185611b10565b611e346020830184611e03565b9392505050565b60008115159050919050565b611e5081611e3b565b8114611e5b57600080fd5b50565b600081519050611e6d81611e47565b92915050565b600060208284031215611e8957611e88611a76565b5b6000611e9784828501611e5e565b91505092915050565b6000602082019050611eb56000830184611e03565b92915050565b6000604082019050611ed06000830185611e03565b611edd6020830184611e03565b9392505050565b7f4e487b7100000000000000000000000000000000000000000000000000000000600052603260045260246000fd5b600082825260208201905092915050565b7f4f776e61626c653a206e6577206f776e657220697320746865207a65726f206160008201527f6464726573730000000000000000000000000000000000000000000000000000602082015250565b6000611f80602683611f13565b9150611f8b82611f24565b604082019050919050565b60006020820190508181036000830152611faf81611f73565b9050919050565b7f455243313136373a20637265617465206661696c656400000000000000000000600082015250565b6000611fec601683611f13565b9150611ff782611fb6565b602082019050919050565b6000602082019050818103600083015261201b81611fdf565b9050919050565b600081519050919050565b60005b8381101561204b578082015181840152602081019050612030565b60008484015250505050565b6000601f19601f8301169050919050565b600061207382612022565b61207d8185611f13565b935061208d81856020860161202d565b61209681612057565b840191505092915050565b600060408201905081810360008301526120bb8185612068565b90506120ca6020830184611b10565b9392505050565b7f4e487b7100000000000000000000000000000000000000000000000000000000600052604160045260246000fd5b6000602082019050818103600083015261211a8184612068565b905092915050565b7f4f776e61626c653a2063616c6c6572206973206e6f7420746865206f776e6572600082015250565b6000612158602083611f13565b915061216382612122565b602082019050919050565b600060208201905081810360008301526121878161214b565b9050919050565b6000819050919050565b60006121a38261218e565b91506121ae8361218e565b9250828201905082811215600083121683821260008412151617156121d6576121d5611d35565b5b92915050565b60006121e78261218e565b91506121f28361218e565b925082820390508181126000841216828213600085121516171561221957612218611d35565b5b92915050565b600061222a8261218e565b91506122358361218e565b92508282026122438161218e565b91507f8000000000000000000000000000000000000000000000000000000000000000841460008412161561227b5761227a611d35565b5b82820584148315176122905761228f611d35565b5b5092915050565b7f4e487b7100000000000000000000000000000000000000000000000000000000600052601260045260246000fdfea2646970667358221220836e771e3976cfbbd8245799d96c111f0e60e9ac4de2709410449fcb56b5dc5664736f6c63430008130033",
  "immutableReferences": {},
  "source": "//SPDX-License-Identifier: Unlicense\n// contracts/HouseFactory.sol\n/// @title\n/// @author Julia Groza\n/// @notice \n\npragma solidity ^0.8.0;\n\nimport \"hardhat/console.sol\";\nimport \"./House.sol\";\nimport \"@openzeppelin/contracts/proxy/Clones.sol\";\nimport \"@openzeppelin/contracts/access/Ownable.sol\";\nimport \"@openzeppelin/contracts/utils/math/SafeMath.sol\";\n\ncontract HouseFactory is Ownable{\n\n    address public libraryAddress;\n    event HouseCreated(address newHouse);\n    address[] public clones; // this array is in storage\n    mapping(address => address[]) public closestHouses;\n\n    // Initializing the address that deploys the HouseFactory contract\n    constructor(address _libraryAddress) {\n        libraryAddress = _libraryAddress;\n    }\n\n    function createHouse(uint _latitude, uint _longitude) external {\n        address house = Clones.clone(libraryAddress); // creates a new House object with the createClone function from CloneFactory.sol\n        House newHouse = House(house);\n        newHouse.initialize(_latitude, _longitude);\n        clones.push(house); // adds house to array of houses in the HouseFactory contract\n        emit HouseCreated(house); // emits an event for visibility purposes\n        console.log(\"House created with address: \", house);\n        addHouseToMap(house);\n    }\n\n    function getAllHouses() external view returns (address[] memory) {\n        return clones;\n    }\n\n    function printClosestHousesForEachHouse() external view {\n        console.log(\"Printing from hashmap: \");\n        for (uint r = 0; r < clones.length;){\n            console.log(\"House: \", clones[r]);\n            address[] memory houses = closestHouses[clones[r]];\n\n            for (uint s = 0; s < houses.length;){\n                console.log(\"Next closest house: \", houses[s]);\n                unchecked{ s++; }\n            }\n            unchecked{ r++; }\n        }\n    }\n\n    function makeTransfer(address houseWithSolar) public {\n        address houseThatNeedsPV = findHouseThatNeedsPV(houseWithSolar);\n\n        uint amount;\n        uint diffHouseThatNeedsPV = House(houseThatNeedsPV).getDemand() - House(houseThatNeedsPV).getPVGeneration();\n        uint diffHouseWithSolar = House(houseWithSolar).getPVGeneration() - House(houseWithSolar).getDemand();\n        if (diffHouseThatNeedsPV < diffHouseWithSolar){\n            amount = diffHouseThatNeedsPV;\n        }\n        else {\n            amount = diffHouseWithSolar;\n        }\n\n        House(houseWithSolar).getSolarToken().transfer(houseThatNeedsPV, amount); // need to work on amount\n        // reset PV generated for each house\n        House(houseWithSolar).subtractFromPVGeneration(amount);\n        House(houseThatNeedsPV).subtractFromPVGeneration(amount);\n    }\n\n    function findHouseThatNeedsPV(address houseWithSolar) internal view returns (address houseNeedsPV) {\n        address[] memory houseArray = closestHouses[houseWithSolar];\n        for (uint p = 0; p < houseArray.length;){\n            if (House(houseArray[p]).booleanNeedPV() == true){\n                houseNeedsPV = houseArray[p];\n                return houseNeedsPV;\n            }\n            unchecked{ p++; }\n        }\n    }\n\n    function addHouseToMap(address houseAddress) internal {\n        // add house with empty array to mapping\n        address[] memory emptyArray = new address[](clones.length - 1);\n        closestHouses[houseAddress] = emptyArray;\n\n        // for each house, we need to make an array of houses\n        for (uint i = 0; i < clones.length;){\n            // we need to remove the current house from the array\n            address[] memory houseArray = createHouseArrayMinusCurrentHouse(clones[i]);\n            // need to sort array based on distance from house we are selecting to the rest of the houses\n            address[] memory sortedArray = insertionSort(houseArray, clones[i]);\n            closestHouses[clones[i]] = sortedArray; // add new sorted array to hashmap for particular house address\n            unchecked{ i++; }\n        }\n    }\n\n    function insertionSort(address[] memory houseArray, address curHouse) internal view returns (address[] memory){\n        uint size = houseArray.length;\n        for (uint g = 1; g < size;){\n            address key = houseArray[g];\n            int h;\n            unchecked{ h = int(g - 1); }\n            \n            uint distanceFromKeyToHouse = calculateDistanceBetweenHouses(House(key).getLatitude(), House(curHouse).getLatitude(), House(key).getLongitude(), House(curHouse).getLongitude());\n            while (h >= 0 && distanceFromKeyToHouse < calculateDistanceBetweenHouses(House(houseArray[uint(h)]).getLatitude(), House(curHouse).getLatitude(), House(houseArray[uint(h)]).getLongitude(), House(curHouse).getLongitude())){\n                houseArray[uint(h + 1)] = houseArray[uint(h)];\n                unchecked{ h = h - 1; }\n            }\n            houseArray[uint(h + 1)] = key;\n            unchecked{ g++; }\n        }\n        return houseArray;\n    }\n\n    function createHouseArrayMinusCurrentHouse(address houseAddress) internal view returns (address[] memory houseArray){\n        houseArray = new address[](clones.length - 1);\n        uint counter = 0;\n        for (uint a = 0; a < clones.length;){\n            if (clones[a] != houseAddress){\n                houseArray[counter] = clones[a];\n                unchecked{ counter++; }\n            }\n            unchecked{ a++; }\n        }\n        return houseArray;\n    }\n\n    function calculateDistanceBetweenHouses(uint latitude1, uint latitude2, uint longitude1, uint longitude2) internal pure returns (uint){\n        int x = int(latitude1) - int(latitude2);\n        int y = int(longitude1) - int(longitude2);\n        uint xPlusYSquared = uint((x*x) + (y*y));\n        return sqrt(xPlusYSquared);\n    }\n\n    function sqrt(uint y) internal pure returns (uint z) {\n        if (y > 3) {\n            z = y;\n            uint x;\n            unchecked{ x = (y / 2) + 1; }\n            while (x < z) {\n                z = x;\n                unchecked{ x = ((y / x) + x) / 2; }\n            }\n        } \n        else if (y != 0) {\n            z = 1;\n        }\n    }\n}",
  "sourcePath": "/Users/juliagroza/Desktop/virtual-net-metering/contracts/HouseFactory.sol",
  "compiler": {
    "name": "solc",
    "version": "0.8.19+commit.7dd6d404.Emscripten.clang"
  },
  "schemaVersion": "3.4.14",
  "updatedAt": "2023-07-09T22:38:28.268Z",
  "networkType": "ethereum",
  "devdoc": {
    "kind": "dev",
    "methods": {
      "owner()": {
        "details": "Returns the address of the current owner."
      },
      "renounceOwnership()": {
        "details": "Leaves the contract without owner. It will not be possible to call `onlyOwner` functions. Can only be called by the current owner. NOTE: Renouncing ownership will leave the contract without an owner, thereby disabling any functionality that is only available to the owner."
      },
      "transferOwnership(address)": {
        "details": "Transfers ownership of the contract to a new account (`newOwner`). Can only be called by the current owner."
      }
    },
    "version": 1
  },
  "userdoc": {
    "kind": "user",
    "methods": {},
    "version": 1
  }
}