{
  "contractName": "House",
  "abi": [
    {
      "inputs": [
        {
          "internalType": "uint256",
          "name": "_latitude",
          "type": "uint256"
        },
        {
          "internalType": "uint256",
          "name": "_longitude",
          "type": "uint256"
        },
        {
          "internalType": "address",
          "name": "_libraryAddress",
          "type": "address"
        }
      ],
      "stateMutability": "nonpayable",
      "type": "constructor"
    },
    {
      "inputs": [],
      "name": "demand",
      "outputs": [
        {
          "internalType": "uint256",
          "name": "",
          "type": "uint256"
        }
      ],
      "stateMutability": "view",
      "type": "function",
      "constant": true
    },
    {
      "inputs": [],
      "name": "latitude",
      "outputs": [
        {
          "internalType": "uint256",
          "name": "",
          "type": "uint256"
        }
      ],
      "stateMutability": "view",
      "type": "function",
      "constant": true
    },
    {
      "inputs": [],
      "name": "libraryAddress",
      "outputs": [
        {
          "internalType": "address",
          "name": "",
          "type": "address"
        }
      ],
      "stateMutability": "view",
      "type": "function",
      "constant": true
    },
    {
      "inputs": [],
      "name": "longitude",
      "outputs": [
        {
          "internalType": "uint256",
          "name": "",
          "type": "uint256"
        }
      ],
      "stateMutability": "view",
      "type": "function",
      "constant": true
    },
    {
      "inputs": [],
      "name": "pvGeneration",
      "outputs": [
        {
          "internalType": "uint256",
          "name": "",
          "type": "uint256"
        }
      ],
      "stateMutability": "view",
      "type": "function",
      "constant": true
    },
    {
      "inputs": [],
      "name": "token",
      "outputs": [
        {
          "internalType": "contract Solar",
          "name": "",
          "type": "address"
        }
      ],
      "stateMutability": "view",
      "type": "function",
      "constant": true
    },
    {
      "inputs": [
        {
          "internalType": "uint256",
          "name": "_latitude",
          "type": "uint256"
        },
        {
          "internalType": "uint256",
          "name": "_longitude",
          "type": "uint256"
        }
      ],
      "name": "initialize",
      "outputs": [],
      "stateMutability": "nonpayable",
      "type": "function"
    },
    {
      "inputs": [
        {
          "internalType": "uint256",
          "name": "_pvGeneration",
          "type": "uint256"
        }
      ],
      "name": "setPVGeneration",
      "outputs": [],
      "stateMutability": "nonpayable",
      "type": "function"
    },
    {
      "inputs": [],
      "name": "getPVGeneration",
      "outputs": [
        {
          "internalType": "uint256",
          "name": "",
          "type": "uint256"
        }
      ],
      "stateMutability": "view",
      "type": "function",
      "constant": true
    },
    {
      "inputs": [
        {
          "internalType": "uint256",
          "name": "amount",
          "type": "uint256"
        }
      ],
      "name": "subtractFromPVGeneration",
      "outputs": [],
      "stateMutability": "nonpayable",
      "type": "function"
    },
    {
      "inputs": [
        {
          "internalType": "uint256",
          "name": "amount",
          "type": "uint256"
        }
      ],
      "name": "addToPVGeneration",
      "outputs": [],
      "stateMutability": "nonpayable",
      "type": "function"
    },
    {
      "inputs": [],
      "name": "getLatitude",
      "outputs": [
        {
          "internalType": "uint256",
          "name": "",
          "type": "uint256"
        }
      ],
      "stateMutability": "view",
      "type": "function",
      "constant": true
    },
    {
      "inputs": [],
      "name": "getLongitude",
      "outputs": [
        {
          "internalType": "uint256",
          "name": "",
          "type": "uint256"
        }
      ],
      "stateMutability": "view",
      "type": "function",
      "constant": true
    },
    {
      "inputs": [
        {
          "internalType": "uint256",
          "name": "_demand",
          "type": "uint256"
        }
      ],
      "name": "setDemand",
      "outputs": [],
      "stateMutability": "nonpayable",
      "type": "function"
    },
    {
      "inputs": [],
      "name": "getDemand",
      "outputs": [
        {
          "internalType": "uint256",
          "name": "",
          "type": "uint256"
        }
      ],
      "stateMutability": "view",
      "type": "function",
      "constant": true
    },
    {
      "inputs": [],
      "name": "booleanNeedPV",
      "outputs": [
        {
          "internalType": "bool",
          "name": "",
          "type": "bool"
        }
      ],
      "stateMutability": "view",
      "type": "function",
      "constant": true
    },
    {
      "inputs": [],
      "name": "getSolarTokenBalance",
      "outputs": [
        {
          "internalType": "uint256",
          "name": "",
          "type": "uint256"
        }
      ],
      "stateMutability": "view",
      "type": "function",
      "constant": true
    },
    {
      "inputs": [],
      "name": "getSolarToken",
      "outputs": [
        {
          "internalType": "contract Solar",
          "name": "",
          "type": "address"
        }
      ],
      "stateMutability": "view",
      "type": "function",
      "constant": true
    }
  ],
  "bytecode": "0x60806040523480156200001157600080fd5b5060405162002ecd38038062002ecd833981810160405281019062000037919062000251565b826002819055508160038190555080600560006101000a81548173ffffffffffffffffffffffffffffffffffffffff021916908373ffffffffffffffffffffffffffffffffffffffff16021790555060008081905550620000d46040518060400160405280601681526020017f4465706c6f79656420486f75736520627920272573270000000000000000000081525033620000dd60201b60201c565b5050506200038c565b6200017f8282604051602401620000f692919062000358565b6040516020818303038152906040527f319af333000000000000000000000000000000000000000000000000000000007bffffffffffffffffffffffffffffffffffffffffffffffffffffffff19166020820180517bffffffffffffffffffffffffffffffffffffffffffffffffffffffff83818316178352505050506200018360201b60201c565b5050565b60008151905060006a636f6e736f6c652e6c6f679050602083016000808483855afa5050505050565b600080fd5b6000819050919050565b620001c681620001b1565b8114620001d257600080fd5b50565b600081519050620001e681620001bb565b92915050565b600073ffffffffffffffffffffffffffffffffffffffff82169050919050565b60006200021982620001ec565b9050919050565b6200022b816200020c565b81146200023757600080fd5b50565b6000815190506200024b8162000220565b92915050565b6000806000606084860312156200026d576200026c620001ac565b5b60006200027d86828701620001d5565b93505060206200029086828701620001d5565b9250506040620002a3868287016200023a565b9150509250925092565b600081519050919050565b600082825260208201905092915050565b60005b83811015620002e9578082015181840152602081019050620002cc565b60008484015250505050565b6000601f19601f8301169050919050565b60006200031382620002ad565b6200031f8185620002b8565b935062000331818560208601620002c9565b6200033c81620002f5565b840191505092915050565b62000352816200020c565b82525050565b6000604082019050818103600083015262000374818562000306565b905062000385602083018462000347565b9392505050565b612b31806200039c6000396000f3fe60806040523480156200001157600080fd5b5060043610620001305760003560e01c8063ae7b6bd911620000b1578063e4a30116116200007b578063e4a3011614620002e7578063f20269921462000307578063fa3c0a1b1462000329578063fb2d464c146200034b578063fc0c546a146200036d5762000130565b8063ae7b6bd91462000263578063b816f5131462000285578063dffe417614620002a7578063e1712fb714620002c75762000130565b806355b72f3811620000ff57806355b72f3814620001bb578063589af69c14620001dd57806366742bb914620001ff578063747ee29d14620002215780637b273f0114620002415762000130565b80631972f56414620001355780632900d3f714620001555780634d8a6b6614620001775780634fd7d76a1462000199575b600080fd5b6200015360048036038101906200014d919062000b43565b6200038f565b005b6200015f620003da565b6040516200016e919062000b86565b60405180910390f35b62000181620003e0565b60405162000190919062000b86565b60405180910390f35b620001a3620003e6565b604051620001b2919062000b86565b60405180910390f35b620001c5620003ec565b604051620001d4919062000b86565b60405180910390f35b620001e762000403565b604051620001f6919062000b86565b60405180910390f35b6200020962000409565b60405162000218919062000bc0565b60405180910390f35b6200023f600480360381019062000239919062000b43565b6200042a565b005b6200024b62000443565b6040516200025a919062000b86565b60405180910390f35b6200026d62000490565b6040516200027c919062000b86565b60405180910390f35b6200028f620004a7565b6040516200029e919062000c22565b60405180910390f35b620002c56004803603810190620002bf919062000b43565b620004cd565b005b620002e56004803603810190620002df919062000b43565b62000524565b005b620003056004803603810190620002ff919062000c3f565b6200053d565b005b62000311620005ec565b60405162000320919062000cf1565b60405180910390f35b6200033362000616565b60405162000342919062000b86565b60405180910390f35b6200035562000663565b60405162000364919062000b86565b60405180910390f35b620003776200070b565b60405162000386919062000cf1565b60405180910390f35b620003d06040518060400160405280600e81526020017f5365742064656d616e6420746f200000000000000000000000000000000000008152508262000731565b8060018190555050565b60005481565b60015481565b60025481565b6000620003fb600354620007d1565b600354905090565b60035481565b6000600154600054111562000422576000905062000427565b600190505b90565b806000546200043a919062000d3d565b60008190555050565b6000620004886040518060400160405280600c81526020017f4765742064656d616e643a20000000000000000000000000000000000000000081525060015462000731565b600154905090565b60006200049f600254620007d1565b600254905090565b600560009054906101000a900473ffffffffffffffffffffffffffffffffffffffff1681565b80600081905550620005176040518060400160405280601481526020017f5365742050562067656e65726174656420746f2000000000000000000000000081525060005462000731565b620005216200086e565b50565b8060005462000534919062000d78565b60008190555050565b8160028190555080600381905550735f8e26facc23fa4cbd87b8d9dbbd33d5047abde1600560006101000a81548173ffffffffffffffffffffffffffffffffffffffff021916908373ffffffffffffffffffffffffffffffffffffffff16021790555060008081905550620005e86040518060400160405280601681526020017f4465706c6f79656420486f7573652062792027257327000000000000000000008152503362000a2c565b5050565b6000600460009054906101000a900473ffffffffffffffffffffffffffffffffffffffff16905090565b60006200065b6040518060400160405280601281526020017f4765742050562067656e6572617465643a20000000000000000000000000000081525060005462000731565b600054905090565b6000600460009054906101000a900473ffffffffffffffffffffffffffffffffffffffff1673ffffffffffffffffffffffffffffffffffffffff166370a08231336040518263ffffffff1660e01b8152600401620006c2919062000c22565b602060405180830381865afa158015620006e0573d6000803e3d6000fd5b505050506040513d601f19601f8201168201806040525081019062000706919062000dca565b905090565b600460009054906101000a900473ffffffffffffffffffffffffffffffffffffffff1681565b620007cd82826040516024016200074a92919062000e96565b6040516020818303038152906040527fb60e72cc000000000000000000000000000000000000000000000000000000007bffffffffffffffffffffffffffffffffffffffffffffffffffffffff19166020820180517bffffffffffffffffffffffffffffffffffffffffffffffffffffffff838183161783525050505062000acc565b5050565b6200086b81604051602401620007e8919062000b86565b6040516020818303038152906040527ff82c50f1000000000000000000000000000000000000000000000000000000007bffffffffffffffffffffffffffffffffffffffffffffffffffffffff19166020820180517bffffffffffffffffffffffffffffffffffffffffffffffffffffffff838183161783525050505062000acc565b50565b600154600054111562000a2a576001546000546200088d919062000d78565b336040516200089c9062000af5565b620008a992919062000eca565b604051809103906000f080158015620008c6573d6000803e3d6000fd5b50600460006101000a81548173ffffffffffffffffffffffffffffffffffffffff021916908373ffffffffffffffffffffffffffffffffffffffff160217905550620009e86040518060400160405280602081526020017f536f6c617220746f6b656e2062616c616e6365206f66206163636f756e743a20815250600460009054906101000a900473ffffffffffffffffffffffffffffffffffffffff1673ffffffffffffffffffffffffffffffffffffffff166370a08231336040518263ffffffff1660e01b81526004016200099e919062000c22565b602060405180830381865afa158015620009bc573d6000803e3d6000fd5b505050506040513d601f19601f82011682018060405250810190620009e2919062000dca565b62000731565b62000a296040518060400160405280600e81526020017f46726f6d206163636f756e743a200000000000000000000000000000000000008152503362000a2c565b5b565b62000ac8828260405160240162000a4592919062000ef7565b6040516020818303038152906040527f319af333000000000000000000000000000000000000000000000000000000007bffffffffffffffffffffffffffffffffffffffffffffffffffffffff19166020820180517bffffffffffffffffffffffffffffffffffffffffffffffffffffffff838183161783525050505062000acc565b5050565b60008151905060006a636f6e736f6c652e6c6f679050602083016000808483855afa5050505050565b611bd08062000f2c83390190565b600080fd5b6000819050919050565b62000b1d8162000b08565b811462000b2957600080fd5b50565b60008135905062000b3d8162000b12565b92915050565b60006020828403121562000b5c5762000b5b62000b03565b5b600062000b6c8482850162000b2c565b91505092915050565b62000b808162000b08565b82525050565b600060208201905062000b9d600083018462000b75565b92915050565b60008115159050919050565b62000bba8162000ba3565b82525050565b600060208201905062000bd7600083018462000baf565b92915050565b600073ffffffffffffffffffffffffffffffffffffffff82169050919050565b600062000c0a8262000bdd565b9050919050565b62000c1c8162000bfd565b82525050565b600060208201905062000c39600083018462000c11565b92915050565b6000806040838503121562000c595762000c5862000b03565b5b600062000c698582860162000b2c565b925050602062000c7c8582860162000b2c565b9150509250929050565b6000819050919050565b600062000cb162000cab62000ca58462000bdd565b62000c86565b62000bdd565b9050919050565b600062000cc58262000c90565b9050919050565b600062000cd98262000cb8565b9050919050565b62000ceb8162000ccc565b82525050565b600060208201905062000d08600083018462000ce0565b92915050565b7f4e487b7100000000000000000000000000000000000000000000000000000000600052601160045260246000fd5b600062000d4a8262000b08565b915062000d578362000b08565b925082820190508082111562000d725762000d7162000d0e565b5b92915050565b600062000d858262000b08565b915062000d928362000b08565b925082820390508181111562000dad5762000dac62000d0e565b5b92915050565b60008151905062000dc48162000b12565b92915050565b60006020828403121562000de35762000de262000b03565b5b600062000df38482850162000db3565b91505092915050565b600081519050919050565b600082825260208201905092915050565b60005b8381101562000e3857808201518184015260208101905062000e1b565b60008484015250505050565b6000601f19601f8301169050919050565b600062000e628262000dfc565b62000e6e818562000e07565b935062000e8081856020860162000e18565b62000e8b8162000e44565b840191505092915050565b6000604082019050818103600083015262000eb2818562000e55565b905062000ec3602083018462000b75565b9392505050565b600060408201905062000ee1600083018562000b75565b62000ef0602083018462000c11565b9392505050565b6000604082019050818103600083015262000f13818562000e55565b905062000f24602083018462000c11565b939250505056fe60806040523480156200001157600080fd5b5060405162001bd038038062001bd0833981810160405281019062000037919062000415565b6040518060400160405280600581526020017f536f6c61720000000000000000000000000000000000000000000000000000008152506040518060400160405280600381526020017f534c5200000000000000000000000000000000000000000000000000000000008152508160039081620000b49190620006cc565b508060049081620000c69190620006cc565b505050620001106040518060400160405280601681526020017f4465706c6f79656420536f6c6172206279202725732700000000000000000000815250826200012a60201b60201c565b620001228183620001d060201b60201c565b505062000991565b620001cc82826040516024016200014392919062000853565b6040516020818303038152906040527f319af333000000000000000000000000000000000000000000000000000000007bffffffffffffffffffffffffffffffffffffffffffffffffffffffff19166020820180517bffffffffffffffffffffffffffffffffffffffffffffffffffffffff83818316178352505050506200033d60201b60201c565b5050565b600073ffffffffffffffffffffffffffffffffffffffff168273ffffffffffffffffffffffffffffffffffffffff160362000242576040517f08c379a00000000000000000000000000000000000000000000000000000000081526004016200023990620008d7565b60405180910390fd5b62000256600083836200036660201b60201c565b80600260008282546200026a919062000928565b92505081905550806000808473ffffffffffffffffffffffffffffffffffffffff1673ffffffffffffffffffffffffffffffffffffffff168152602001908152602001600020600082825401925050819055508173ffffffffffffffffffffffffffffffffffffffff16600073ffffffffffffffffffffffffffffffffffffffff167fddf252ad1be2c89b69c2b068fc378daa952ba7f163c4a11628f55a4df523b3ef836040516200031d919062000974565b60405180910390a362000339600083836200036b60201b60201c565b5050565b60008151905060006a636f6e736f6c652e6c6f679050602083016000808483855afa5050505050565b505050565b505050565b600080fd5b6000819050919050565b6200038a8162000375565b81146200039657600080fd5b50565b600081519050620003aa816200037f565b92915050565b600073ffffffffffffffffffffffffffffffffffffffff82169050919050565b6000620003dd82620003b0565b9050919050565b620003ef81620003d0565b8114620003fb57600080fd5b50565b6000815190506200040f81620003e4565b92915050565b600080604083850312156200042f576200042e62000370565b5b60006200043f8582860162000399565b92505060206200045285828601620003fe565b9150509250929050565b600081519050919050565b7f4e487b7100000000000000000000000000000000000000000000000000000000600052604160045260246000fd5b7f4e487b7100000000000000000000000000000000000000000000000000000000600052602260045260246000fd5b60006002820490506001821680620004de57607f821691505b602082108103620004f457620004f362000496565b5b50919050565b60008190508160005260206000209050919050565b60006020601f8301049050919050565b600082821b905092915050565b6000600883026200055e7fffffffffffffffffffffffffffffffffffffffffffffffffffffffffffffffff826200051f565b6200056a86836200051f565b95508019841693508086168417925050509392505050565b6000819050919050565b6000620005ad620005a7620005a18462000375565b62000582565b62000375565b9050919050565b6000819050919050565b620005c9836200058c565b620005e1620005d882620005b4565b8484546200052c565b825550505050565b600090565b620005f8620005e9565b62000605818484620005be565b505050565b5b818110156200062d5762000621600082620005ee565b6001810190506200060b565b5050565b601f8211156200067c576200064681620004fa565b62000651846200050f565b8101602085101562000661578190505b6200067962000670856200050f565b8301826200060a565b50505b505050565b600082821c905092915050565b6000620006a16000198460080262000681565b1980831691505092915050565b6000620006bc83836200068e565b9150826002028217905092915050565b620006d7826200045c565b67ffffffffffffffff811115620006f357620006f262000467565b5b620006ff8254620004c5565b6200070c82828562000631565b600060209050601f8311600181146200074457600084156200072f578287015190505b6200073b8582620006ae565b865550620007ab565b601f1984166200075486620004fa565b60005b828110156200077e5784890151825560018201915060208501945060208101905062000757565b868310156200079e57848901516200079a601f8916826200068e565b8355505b6001600288020188555050505b505050505050565b600082825260208201905092915050565b60005b83811015620007e4578082015181840152602081019050620007c7565b60008484015250505050565b6000601f19601f8301169050919050565b60006200080e826200045c565b6200081a8185620007b3565b93506200082c818560208601620007c4565b6200083781620007f0565b840191505092915050565b6200084d81620003d0565b82525050565b600060408201905081810360008301526200086f818562000801565b905062000880602083018462000842565b9392505050565b7f45524332303a206d696e7420746f20746865207a65726f206164647265737300600082015250565b6000620008bf601f83620007b3565b9150620008cc8262000887565b602082019050919050565b60006020820190508181036000830152620008f281620008b0565b9050919050565b7f4e487b7100000000000000000000000000000000000000000000000000000000600052601160045260246000fd5b6000620009358262000375565b9150620009428362000375565b92508282019050808211156200095d576200095c620008f9565b5b92915050565b6200096e8162000375565b82525050565b60006020820190506200098b600083018462000963565b92915050565b61122f80620009a16000396000f3fe608060405234801561001057600080fd5b50600436106100a95760003560e01c80633950935111610071578063395093511461016857806370a082311461019857806395d89b41146101c8578063a457c2d7146101e6578063a9059cbb14610216578063dd62ed3e14610246576100a9565b806306fdde03146100ae578063095ea7b3146100cc57806318160ddd146100fc57806323b872dd1461011a578063313ce5671461014a575b600080fd5b6100b6610276565b6040516100c39190610b0c565b60405180910390f35b6100e660048036038101906100e19190610bc7565b610308565b6040516100f39190610c22565b60405180910390f35b61010461032b565b6040516101119190610c4c565b60405180910390f35b610134600480360381019061012f9190610c67565b610335565b6040516101419190610c22565b60405180910390f35b610152610364565b60405161015f9190610cd6565b60405180910390f35b610182600480360381019061017d9190610bc7565b61036d565b60405161018f9190610c22565b60405180910390f35b6101b260048036038101906101ad9190610cf1565b6103a4565b6040516101bf9190610c4c565b60405180910390f35b6101d06103ec565b6040516101dd9190610b0c565b60405180910390f35b61020060048036038101906101fb9190610bc7565b61047e565b60405161020d9190610c22565b60405180910390f35b610230600480360381019061022b9190610bc7565b6104f5565b60405161023d9190610c22565b60405180910390f35b610260600480360381019061025b9190610d1e565b610518565b60405161026d9190610c4c565b60405180910390f35b60606003805461028590610d8d565b80601f01602080910402602001604051908101604052809291908181526020018280546102b190610d8d565b80156102fe5780601f106102d3576101008083540402835291602001916102fe565b820191906000526020600020905b8154815290600101906020018083116102e157829003601f168201915b5050505050905090565b60008061031361059f565b90506103208185856105a7565b600191505092915050565b6000600254905090565b60008061034061059f565b905061034d858285610770565b6103588585856107fc565b60019150509392505050565b60006012905090565b60008061037861059f565b905061039981858561038a8589610518565b6103949190610ded565b6105a7565b600191505092915050565b60008060008373ffffffffffffffffffffffffffffffffffffffff1673ffffffffffffffffffffffffffffffffffffffff168152602001908152602001600020549050919050565b6060600480546103fb90610d8d565b80601f016020809104026020016040519081016040528092919081815260200182805461042790610d8d565b80156104745780601f1061044957610100808354040283529160200191610474565b820191906000526020600020905b81548152906001019060200180831161045757829003601f168201915b5050505050905090565b60008061048961059f565b905060006104978286610518565b9050838110156104dc576040517f08c379a00000000000000000000000000000000000000000000000000000000081526004016104d390610e93565b60405180910390fd5b6104e982868684036105a7565b60019250505092915050565b60008061050061059f565b905061050d8185856107fc565b600191505092915050565b6000600160008473ffffffffffffffffffffffffffffffffffffffff1673ffffffffffffffffffffffffffffffffffffffff16815260200190815260200160002060008373ffffffffffffffffffffffffffffffffffffffff1673ffffffffffffffffffffffffffffffffffffffff16815260200190815260200160002054905092915050565b600033905090565b600073ffffffffffffffffffffffffffffffffffffffff168373ffffffffffffffffffffffffffffffffffffffff1603610616576040517f08c379a000000000000000000000000000000000000000000000000000000000815260040161060d90610f25565b60405180910390fd5b600073ffffffffffffffffffffffffffffffffffffffff168273ffffffffffffffffffffffffffffffffffffffff1603610685576040517f08c379a000000000000000000000000000000000000000000000000000000000815260040161067c90610fb7565b60405180910390fd5b80600160008573ffffffffffffffffffffffffffffffffffffffff1673ffffffffffffffffffffffffffffffffffffffff16815260200190815260200160002060008473ffffffffffffffffffffffffffffffffffffffff1673ffffffffffffffffffffffffffffffffffffffff168152602001908152602001600020819055508173ffffffffffffffffffffffffffffffffffffffff168373ffffffffffffffffffffffffffffffffffffffff167f8c5be1e5ebec7d5bd14f71427d1e84f3dd0314c0f7b2291e5b200ac8c7c3b925836040516107639190610c4c565b60405180910390a3505050565b600061077c8484610518565b90507fffffffffffffffffffffffffffffffffffffffffffffffffffffffffffffffff81146107f657818110156107e8576040517f08c379a00000000000000000000000000000000000000000000000000000000081526004016107df90611023565b60405180910390fd5b6107f584848484036105a7565b5b50505050565b600073ffffffffffffffffffffffffffffffffffffffff168373ffffffffffffffffffffffffffffffffffffffff160361086b576040517f08c379a0000000000000000000000000000000000000000000000000000000008152600401610862906110b5565b60405180910390fd5b600073ffffffffffffffffffffffffffffffffffffffff168273ffffffffffffffffffffffffffffffffffffffff16036108da576040517f08c379a00000000000000000000000000000000000000000000000000000000081526004016108d190611147565b60405180910390fd5b6108e5838383610a72565b60008060008573ffffffffffffffffffffffffffffffffffffffff1673ffffffffffffffffffffffffffffffffffffffff1681526020019081526020016000205490508181101561096b576040517f08c379a0000000000000000000000000000000000000000000000000000000008152600401610962906111d9565b60405180910390fd5b8181036000808673ffffffffffffffffffffffffffffffffffffffff1673ffffffffffffffffffffffffffffffffffffffff16815260200190815260200160002081905550816000808573ffffffffffffffffffffffffffffffffffffffff1673ffffffffffffffffffffffffffffffffffffffff168152602001908152602001600020600082825401925050819055508273ffffffffffffffffffffffffffffffffffffffff168473ffffffffffffffffffffffffffffffffffffffff167fddf252ad1be2c89b69c2b068fc378daa952ba7f163c4a11628f55a4df523b3ef84604051610a599190610c4c565b60405180910390a3610a6c848484610a77565b50505050565b505050565b505050565b600081519050919050565b600082825260208201905092915050565b60005b83811015610ab6578082015181840152602081019050610a9b565b60008484015250505050565b6000601f19601f8301169050919050565b6000610ade82610a7c565b610ae88185610a87565b9350610af8818560208601610a98565b610b0181610ac2565b840191505092915050565b60006020820190508181036000830152610b268184610ad3565b905092915050565b600080fd5b600073ffffffffffffffffffffffffffffffffffffffff82169050919050565b6000610b5e82610b33565b9050919050565b610b6e81610b53565b8114610b7957600080fd5b50565b600081359050610b8b81610b65565b92915050565b6000819050919050565b610ba481610b91565b8114610baf57600080fd5b50565b600081359050610bc181610b9b565b92915050565b60008060408385031215610bde57610bdd610b2e565b5b6000610bec85828601610b7c565b9250506020610bfd85828601610bb2565b9150509250929050565b60008115159050919050565b610c1c81610c07565b82525050565b6000602082019050610c376000830184610c13565b92915050565b610c4681610b91565b82525050565b6000602082019050610c616000830184610c3d565b92915050565b600080600060608486031215610c8057610c7f610b2e565b5b6000610c8e86828701610b7c565b9350506020610c9f86828701610b7c565b9250506040610cb086828701610bb2565b9150509250925092565b600060ff82169050919050565b610cd081610cba565b82525050565b6000602082019050610ceb6000830184610cc7565b92915050565b600060208284031215610d0757610d06610b2e565b5b6000610d1584828501610b7c565b91505092915050565b60008060408385031215610d3557610d34610b2e565b5b6000610d4385828601610b7c565b9250506020610d5485828601610b7c565b9150509250929050565b7f4e487b7100000000000000000000000000000000000000000000000000000000600052602260045260246000fd5b60006002820490506001821680610da557607f821691505b602082108103610db857610db7610d5e565b5b50919050565b7f4e487b7100000000000000000000000000000000000000000000000000000000600052601160045260246000fd5b6000610df882610b91565b9150610e0383610b91565b9250828201905080821115610e1b57610e1a610dbe565b5b92915050565b7f45524332303a2064656372656173656420616c6c6f77616e63652062656c6f7760008201527f207a65726f000000000000000000000000000000000000000000000000000000602082015250565b6000610e7d602583610a87565b9150610e8882610e21565b604082019050919050565b60006020820190508181036000830152610eac81610e70565b9050919050565b7f45524332303a20617070726f76652066726f6d20746865207a65726f2061646460008201527f7265737300000000000000000000000000000000000000000000000000000000602082015250565b6000610f0f602483610a87565b9150610f1a82610eb3565b604082019050919050565b60006020820190508181036000830152610f3e81610f02565b9050919050565b7f45524332303a20617070726f766520746f20746865207a65726f20616464726560008201527f7373000000000000000000000000000000000000000000000000000000000000602082015250565b6000610fa1602283610a87565b9150610fac82610f45565b604082019050919050565b60006020820190508181036000830152610fd081610f94565b9050919050565b7f45524332303a20696e73756666696369656e7420616c6c6f77616e6365000000600082015250565b600061100d601d83610a87565b915061101882610fd7565b602082019050919050565b6000602082019050818103600083015261103c81611000565b9050919050565b7f45524332303a207472616e736665722066726f6d20746865207a65726f20616460008201527f6472657373000000000000000000000000000000000000000000000000000000602082015250565b600061109f602583610a87565b91506110aa82611043565b604082019050919050565b600060208201905081810360008301526110ce81611092565b9050919050565b7f45524332303a207472616e7366657220746f20746865207a65726f206164647260008201527f6573730000000000000000000000000000000000000000000000000000000000602082015250565b6000611131602383610a87565b915061113c826110d5565b604082019050919050565b6000602082019050818103600083015261116081611124565b9050919050565b7f45524332303a207472616e7366657220616d6f756e742065786365656473206260008201527f616c616e63650000000000000000000000000000000000000000000000000000602082015250565b60006111c3602683610a87565b91506111ce82611167565b604082019050919050565b600060208201905081810360008301526111f2816111b6565b905091905056fea2646970667358221220eb28ac7c351a684a4bf610b7d7bf05b4cac78634bca5b21f0dc2e19cf35316bb64736f6c63430008130033a264697066735822122090886e30caf40028e9b0eeabf47e7643136c19bdd5b868e6c05b3f4e7a4fe11664736f6c63430008130033",
  "immutableReferences": {},
  "source": "//SPDX-License-Identifier: Unlicense\n// contracts/House.sol\n/// @title A contract with functions and state variables for a house creating solar energy\n/// @author Julia Groza\n/// @notice \n\npragma solidity ^0.8.0;\nimport \"hardhat/console.sol\";\nimport \"./Solar.sol\";\nimport \"./HouseFactory.sol\";\n\ncontract House {\n\n    // Declaring state variables\n    uint public pvGeneration;\n    uint public demand;\n    uint public latitude;\n    uint public longitude;\n    Solar public token;\n    address public libraryAddress;\n\n    // Creating a constructor to set postal code of house and pv generated to 0\n    constructor(uint _latitude, uint _longitude, address _libraryAddress) {                 \n        latitude = _latitude;\n        longitude = _longitude;\n        libraryAddress = _libraryAddress;\n        pvGeneration = 0;\n        console.log(\"Deployed House by '%s'\", msg.sender);\n    } \n\n    // Creating an initializer for HouseFactory to set coordinates of house and pv generated to 0\n    function initialize(uint _latitude, uint _longitude) public {                 \n        latitude = _latitude;\n        longitude = _longitude;\n        libraryAddress = 0x5f8e26fAcC23FA4cbd87b8d9Dbbd33D5047abDE1;\n        pvGeneration = 0;\n        console.log(\"Deployed House by '%s'\", msg.sender);\n    } \n\n    // Set pv generation value\n    function setPVGeneration(uint _pvGeneration) public\n    {\n        pvGeneration = _pvGeneration;\n        console.log(\"Set PV generated to \",pvGeneration);    \n        checkIfDemandExceeded();\n    }\n\n    // Get pv generation value\n    function getPVGeneration() public view returns (uint)\n    {\n        console.log(\"Get PV generated: \",pvGeneration); \n        return pvGeneration;\n    }\n\n    // Subtract from pv generation value\n    function subtractFromPVGeneration(uint amount) public\n    {\n        pvGeneration = pvGeneration - amount;\n    }\n\n    // Subtract from pv generation value\n    function addToPVGeneration(uint amount) public\n    {\n        pvGeneration = pvGeneration + amount;\n    }\n\n    // Get latitude\n    function getLatitude() public view returns (uint)\n    {\n        console.logUint(latitude); \n        return latitude;\n    }\n\n    // Get longitude\n    function getLongitude() public view returns (uint)\n    {\n        console.logUint(longitude); \n        return longitude;\n    }\n\n    // Set demand Value\n    function setDemand(uint _demand) public\n    {\n        console.log(\"Set demand to \",_demand); \n        demand = _demand;\n    }\n\n    // Get demand value\n    function getDemand() public view returns (uint)\n    {\n        console.log(\"Get demand: \",demand); \n        return demand;\n\n    }\n\n    // check if PVGeneration is greater than demand\n    function checkIfDemandExceeded() internal\n    {\n        if (pvGeneration > demand)\n        {\n            token = new Solar(pvGeneration - demand, msg.sender);\n            console.log(\"Solar token balance of account: \", token.balanceOf(msg.sender));\n            console.log(\"From account: \", msg.sender);\n            // makeTransfer(msg.sender); \n        }\n    }\n\n    function booleanNeedPV() public view returns (bool){\n        if (pvGeneration > demand){\n            return false;\n        }\n        else{\n            return true;\n        }\n    }\n\n    function getSolarTokenBalance() public view returns (uint)\n    {\n        return token.balanceOf(msg.sender);\n    }\n\n    function getSolarToken() public view returns (Solar)\n    {\n        return token;\n    }\n}",
  "sourcePath": "/Users/juliagroza/Desktop/virtual-net-metering/contracts/House.sol",
  "compiler": {
    "name": "solc",
    "version": "0.8.19+commit.7dd6d404.Emscripten.clang"
  },
  "schemaVersion": "3.4.14",
  "updatedAt": "2023-07-10T03:51:16.558Z",
  "networkType": "ethereum",
  "devdoc": {
    "kind": "dev",
    "methods": {},
    "version": 1
  },
  "userdoc": {
    "kind": "user",
    "methods": {},
    "version": 1
  }
}