{
  "contractName": "HouseFactory",
  "abi": [
    {
      "inputs": [
        {
          "internalType": "address",
          "name": "_libraryAddress",
          "type": "address"
        }
      ],
      "stateMutability": "nonpayable",
      "type": "constructor"
    },
    {
      "anonymous": false,
      "inputs": [
        {
          "indexed": false,
          "internalType": "address",
          "name": "newHouse",
          "type": "address"
        }
      ],
      "name": "HouseCreated",
      "type": "event"
    },
    {
      "anonymous": false,
      "inputs": [
        {
          "indexed": true,
          "internalType": "address",
          "name": "previousOwner",
          "type": "address"
        },
        {
          "indexed": true,
          "internalType": "address",
          "name": "newOwner",
          "type": "address"
        }
      ],
      "name": "OwnershipTransferred",
      "type": "event"
    },
    {
      "inputs": [
        {
          "internalType": "uint256",
          "name": "",
          "type": "uint256"
        }
      ],
      "name": "clones",
      "outputs": [
        {
          "internalType": "address",
          "name": "",
          "type": "address"
        }
      ],
      "stateMutability": "view",
      "type": "function",
      "constant": true
    },
    {
      "inputs": [
        {
          "internalType": "address",
          "name": "",
          "type": "address"
        },
        {
          "internalType": "uint256",
          "name": "",
          "type": "uint256"
        }
      ],
      "name": "closestHouses",
      "outputs": [
        {
          "internalType": "address",
          "name": "",
          "type": "address"
        }
      ],
      "stateMutability": "view",
      "type": "function",
      "constant": true
    },
    {
      "inputs": [],
      "name": "libraryAddress",
      "outputs": [
        {
          "internalType": "address",
          "name": "",
          "type": "address"
        }
      ],
      "stateMutability": "view",
      "type": "function",
      "constant": true
    },
    {
      "inputs": [],
      "name": "owner",
      "outputs": [
        {
          "internalType": "address",
          "name": "",
          "type": "address"
        }
      ],
      "stateMutability": "view",
      "type": "function",
      "constant": true
    },
    {
      "inputs": [],
      "name": "renounceOwnership",
      "outputs": [],
      "stateMutability": "nonpayable",
      "type": "function"
    },
    {
      "inputs": [
        {
          "internalType": "address",
          "name": "newOwner",
          "type": "address"
        }
      ],
      "name": "transferOwnership",
      "outputs": [],
      "stateMutability": "nonpayable",
      "type": "function"
    },
    {
      "inputs": [
        {
          "internalType": "uint256",
          "name": "_latitude",
          "type": "uint256"
        },
        {
          "internalType": "uint256",
          "name": "_longitude",
          "type": "uint256"
        }
      ],
      "name": "createHouse",
      "outputs": [],
      "stateMutability": "nonpayable",
      "type": "function"
    },
    {
      "inputs": [],
      "name": "getAllHouses",
      "outputs": [
        {
          "internalType": "address[]",
          "name": "",
          "type": "address[]"
        }
      ],
      "stateMutability": "view",
      "type": "function",
      "constant": true
    },
    {
      "inputs": [
        {
          "internalType": "address",
          "name": "houseWithSolar",
          "type": "address"
        }
      ],
      "name": "makeTransfer",
      "outputs": [],
      "stateMutability": "nonpayable",
      "type": "function"
    }
  ],
  "bytecode": "0x60806040523480156200001157600080fd5b5060405162000f2938038062000f298339818101604052810190620000379190620001d5565b620000576200004b6200009f60201b60201c565b620000a760201b60201c565b80600160006101000a81548173ffffffffffffffffffffffffffffffffffffffff021916908373ffffffffffffffffffffffffffffffffffffffff1602179055505062000207565b600033905090565b60008060009054906101000a900473ffffffffffffffffffffffffffffffffffffffff169050816000806101000a81548173ffffffffffffffffffffffffffffffffffffffff021916908373ffffffffffffffffffffffffffffffffffffffff1602179055508173ffffffffffffffffffffffffffffffffffffffff168173ffffffffffffffffffffffffffffffffffffffff167f8be0079c531659141344cd1fd0a4f28419497f9722a3daafe3b4186f6b6457e060405160405180910390a35050565b600080fd5b600073ffffffffffffffffffffffffffffffffffffffff82169050919050565b60006200019d8262000170565b9050919050565b620001af8162000190565b8114620001bb57600080fd5b50565b600081519050620001cf81620001a4565b92915050565b600060208284031215620001ee57620001ed6200016b565b5b6000620001fe84828501620001be565b91505092915050565b610d1280620002176000396000f3fe608060405234801561001057600080fd5b50600436106100935760003560e01c8063715018a611610066578063715018a6146101305780638da5cb5b1461013a578063b816f51314610158578063d87deea814610176578063f2fde38b1461019457610093565b80630e0399161461009857806318d73d2c146100c85780632d5cea8e146100f85780632e4b2dc014610114575b600080fd5b6100b260048036038101906100ad9190610838565b6101b0565b6040516100bf91906108a6565b60405180910390f35b6100e260048036038101906100dd91906108ed565b6101ef565b6040516100ef91906108a6565b60405180910390f35b610112600480360381019061010d919061092d565b61023d565b005b61012e6004803603810190610129919061095a565b610240565b005b6101386103c0565b005b6101426103d4565b60405161014f91906108a6565b60405180910390f35b6101606103fd565b60405161016d91906108a6565b60405180910390f35b61017e610423565b60405161018b9190610a58565b60405180910390f35b6101ae60048036038101906101a9919061092d565b6104b1565b005b600281815481106101c057600080fd5b906000526020600020016000915054906101000a900473ffffffffffffffffffffffffffffffffffffffff1681565b6003602052816000526040600020818154811061020b57600080fd5b906000526020600020016000915091509054906101000a900473ffffffffffffffffffffffffffffffffffffffff1681565b50565b600061026d600160009054906101000a900473ffffffffffffffffffffffffffffffffffffffff16610534565b905060008190508073ffffffffffffffffffffffffffffffffffffffff1663e4a3011685856040518363ffffffff1660e01b81526004016102af929190610a89565b600060405180830381600087803b1580156102c957600080fd5b505af11580156102dd573d6000803e3d6000fd5b505050506002829080600181540180825580915050600190039060005260206000200160009091909190916101000a81548173ffffffffffffffffffffffffffffffffffffffff021916908373ffffffffffffffffffffffffffffffffffffffff1602179055507f37acd5820bb80999bd4703a1876fd351428c2fe9f93363014f4081a6f5e434d88260405161037391906108a6565b60405180910390a16103ba6040518060400160405280601c81526020017f486f7573652063726561746564207769746820616464726573733a2000000000815250836105ee565b50505050565b6103c861068a565b6103d26000610708565b565b60008060009054906101000a900473ffffffffffffffffffffffffffffffffffffffff16905090565b600160009054906101000a900473ffffffffffffffffffffffffffffffffffffffff1681565b606060028054806020026020016040519081016040528092919081815260200182805480156104a757602002820191906000526020600020905b8160009054906101000a900473ffffffffffffffffffffffffffffffffffffffff1673ffffffffffffffffffffffffffffffffffffffff168152602001906001019080831161045d575b5050505050905090565b6104b961068a565b600073ffffffffffffffffffffffffffffffffffffffff168173ffffffffffffffffffffffffffffffffffffffff1603610528576040517f08c379a000000000000000000000000000000000000000000000000000000000815260040161051f90610b35565b60405180910390fd5b61053181610708565b50565b6000763d602d80600a3d3981f3363d3d373d3d3d363d730000008260601b60e81c176000526e5af43d82803e903d91602b57fd5bf38260781b17602052603760096000f09050600073ffffffffffffffffffffffffffffffffffffffff168173ffffffffffffffffffffffffffffffffffffffff16036105e9576040517f08c379a00000000000000000000000000000000000000000000000000000000081526004016105e090610ba1565b60405180910390fd5b919050565b6106868282604051602401610604929190610c40565b6040516020818303038152906040527f319af333000000000000000000000000000000000000000000000000000000007bffffffffffffffffffffffffffffffffffffffffffffffffffffffff19166020820180517bffffffffffffffffffffffffffffffffffffffffffffffffffffffff83818316178352505050506107cc565b5050565b6106926107f5565b73ffffffffffffffffffffffffffffffffffffffff166106b06103d4565b73ffffffffffffffffffffffffffffffffffffffff1614610706576040517f08c379a00000000000000000000000000000000000000000000000000000000081526004016106fd90610cbc565b60405180910390fd5b565b60008060009054906101000a900473ffffffffffffffffffffffffffffffffffffffff169050816000806101000a81548173ffffffffffffffffffffffffffffffffffffffff021916908373ffffffffffffffffffffffffffffffffffffffff1602179055508173ffffffffffffffffffffffffffffffffffffffff168173ffffffffffffffffffffffffffffffffffffffff167f8be0079c531659141344cd1fd0a4f28419497f9722a3daafe3b4186f6b6457e060405160405180910390a35050565b60008151905060006a636f6e736f6c652e6c6f679050602083016000808483855afa5050505050565b600033905090565b600080fd5b6000819050919050565b61081581610802565b811461082057600080fd5b50565b6000813590506108328161080c565b92915050565b60006020828403121561084e5761084d6107fd565b5b600061085c84828501610823565b91505092915050565b600073ffffffffffffffffffffffffffffffffffffffff82169050919050565b600061089082610865565b9050919050565b6108a081610885565b82525050565b60006020820190506108bb6000830184610897565b92915050565b6108ca81610885565b81146108d557600080fd5b50565b6000813590506108e7816108c1565b92915050565b60008060408385031215610904576109036107fd565b5b6000610912858286016108d8565b925050602061092385828601610823565b9150509250929050565b600060208284031215610943576109426107fd565b5b6000610951848285016108d8565b91505092915050565b60008060408385031215610971576109706107fd565b5b600061097f85828601610823565b925050602061099085828601610823565b9150509250929050565b600081519050919050565b600082825260208201905092915050565b6000819050602082019050919050565b6109cf81610885565b82525050565b60006109e183836109c6565b60208301905092915050565b6000602082019050919050565b6000610a058261099a565b610a0f81856109a5565b9350610a1a836109b6565b8060005b83811015610a4b578151610a3288826109d5565b9750610a3d836109ed565b925050600181019050610a1e565b5085935050505092915050565b60006020820190508181036000830152610a7281846109fa565b905092915050565b610a8381610802565b82525050565b6000604082019050610a9e6000830185610a7a565b610aab6020830184610a7a565b9392505050565b600082825260208201905092915050565b7f4f776e61626c653a206e6577206f776e657220697320746865207a65726f206160008201527f6464726573730000000000000000000000000000000000000000000000000000602082015250565b6000610b1f602683610ab2565b9150610b2a82610ac3565b604082019050919050565b60006020820190508181036000830152610b4e81610b12565b9050919050565b7f455243313136373a20637265617465206661696c656400000000000000000000600082015250565b6000610b8b601683610ab2565b9150610b9682610b55565b602082019050919050565b60006020820190508181036000830152610bba81610b7e565b9050919050565b600081519050919050565b60005b83811015610bea578082015181840152602081019050610bcf565b60008484015250505050565b6000601f19601f8301169050919050565b6000610c1282610bc1565b610c1c8185610ab2565b9350610c2c818560208601610bcc565b610c3581610bf6565b840191505092915050565b60006040820190508181036000830152610c5a8185610c07565b9050610c696020830184610897565b9392505050565b7f4f776e61626c653a2063616c6c6572206973206e6f7420746865206f776e6572600082015250565b6000610ca6602083610ab2565b9150610cb182610c70565b602082019050919050565b60006020820190508181036000830152610cd581610c99565b905091905056fea264697066735822122091671eb5aa124c24ad17ecf602c4fbacba9ab6dc2f8748d1bc024efdabb0fb2564736f6c63430008130033",
  "immutableReferences": {},
  "source": "//SPDX-License-Identifier: Unlicense\n// contracts/HouseFactory.sol\n/// @title\n/// @author Julia Groza\n/// @notice \n\npragma solidity ^0.8.0;\n\nimport \"hardhat/console.sol\";\nimport \"./House.sol\";\nimport \"@openzeppelin/contracts/proxy/Clones.sol\";\nimport \"@openzeppelin/contracts/access/Ownable.sol\";\nimport \"@openzeppelin/contracts/utils/math/SafeMath.sol\";\n\ncontract HouseFactory is Ownable{\n\n    address public libraryAddress;\n    event HouseCreated(address newHouse);\n    address[] public clones;\n    mapping(address => address[]) public closestHouses;\n\n    // Initializing the address that deploys the HouseFactory contract\n    constructor(address _libraryAddress) {\n        libraryAddress = _libraryAddress;\n    }\n\n    function createHouse(uint _latitude, uint _longitude) external {\n        address house = Clones.clone(libraryAddress); // creates a new House object with the createClone function from CloneFactory.sol\n        House newHouse = House(house);\n        newHouse.initialize(_latitude, _longitude);\n        clones.push(house); // adds house to array of houses in the HouseFactory contract\n        emit HouseCreated(house); // emits an event for visibility purposes\n        console.log(\"House created with address: \", house);\n    }\n\n    function getAllHouses() external view returns (address[] memory) {\n        return clones;\n    }\n\n    function makeTransfer(address houseWithSolar) public {\n    \n    }\n\n    function addHouseToMap(address houseAddress) internal {\n        // add house with empty array to mapping\n        address[] memory emptyArray;\n        closestHouses[houseAddress] = emptyArray;\n\n        // for each house, we need to make an array of houses\n        for (uint i = 0; i < clones.length; i++){\n            address[] memory houseArray;\n\n            closestHouses[clones[i]] = houseArray;\n        }\n\n    }\n\n    function calculateDistanceBetweenHouses(uint latitude1, uint latitude2, uint longitude1, uint longitude2) internal pure returns (uint){\n        uint x = SafeMath.sub(latitude1, latitude2);\n        uint y = SafeMath.sub(longitude1, longitude2);\n        uint xPlusYSquared = SafeMath.add(SafeMath.mul(x, x), SafeMath.mul(y, y));\n        return sqrt(xPlusYSquared);\n    }\n\n    function sqrt(uint y) internal pure returns (uint z) {\n        if (y > 3) {\n            z = y;\n            uint x = y / 2 + 1;\n            while (x < z) {\n                z = x;\n                x = (y / x + x) / 2;\n            }\n        } \n        else if (y != 0) {\n            z = 1;\n        }\n    }\n}",
  "sourcePath": "/Users/juliagroza/Desktop/virtual-net-metering/contracts/HouseFactory.sol",
  "compiler": {
    "name": "solc",
    "version": "0.8.19+commit.7dd6d404.Emscripten.clang"
  },
  "schemaVersion": "3.4.14",
  "updatedAt": "2023-07-06T21:19:01.852Z",
  "networkType": "ethereum",
  "devdoc": {
    "kind": "dev",
    "methods": {
      "owner()": {
        "details": "Returns the address of the current owner."
      },
      "renounceOwnership()": {
        "details": "Leaves the contract without owner. It will not be possible to call `onlyOwner` functions. Can only be called by the current owner. NOTE: Renouncing ownership will leave the contract without an owner, thereby disabling any functionality that is only available to the owner."
      },
      "transferOwnership(address)": {
        "details": "Transfers ownership of the contract to a new account (`newOwner`). Can only be called by the current owner."
      }
    },
    "version": 1
  },
  "userdoc": {
    "kind": "user",
    "methods": {},
    "version": 1
  }
}