{
  "contractName": "LinkedList",
  "abi": [
    {
      "inputs": [],
      "stateMutability": "nonpayable",
      "type": "constructor"
    },
    {
      "anonymous": false,
      "inputs": [
        {
          "indexed": false,
          "internalType": "uint256",
          "name": "id",
          "type": "uint256"
        }
      ],
      "name": "NewHead",
      "type": "event"
    },
    {
      "anonymous": false,
      "inputs": [
        {
          "indexed": false,
          "internalType": "uint256",
          "name": "id",
          "type": "uint256"
        },
        {
          "indexed": false,
          "internalType": "contract House",
          "name": "house",
          "type": "address"
        }
      ],
      "name": "ObjectCreated",
      "type": "event"
    },
    {
      "anonymous": false,
      "inputs": [
        {
          "indexed": false,
          "internalType": "uint256",
          "name": "id",
          "type": "uint256"
        }
      ],
      "name": "ObjectRemoved",
      "type": "event"
    },
    {
      "anonymous": false,
      "inputs": [
        {
          "indexed": false,
          "internalType": "uint256",
          "name": "prev",
          "type": "uint256"
        },
        {
          "indexed": false,
          "internalType": "uint256",
          "name": "next",
          "type": "uint256"
        }
      ],
      "name": "ObjectsLinked",
      "type": "event"
    },
    {
      "inputs": [],
      "name": "head",
      "outputs": [
        {
          "internalType": "uint256",
          "name": "",
          "type": "uint256"
        }
      ],
      "stateMutability": "view",
      "type": "function"
    },
    {
      "inputs": [],
      "name": "idCounter",
      "outputs": [
        {
          "internalType": "uint256",
          "name": "",
          "type": "uint256"
        }
      ],
      "stateMutability": "view",
      "type": "function"
    },
    {
      "inputs": [
        {
          "internalType": "uint256",
          "name": "",
          "type": "uint256"
        }
      ],
      "name": "objects",
      "outputs": [
        {
          "internalType": "uint256",
          "name": "id",
          "type": "uint256"
        },
        {
          "internalType": "uint256",
          "name": "next",
          "type": "uint256"
        },
        {
          "internalType": "contract House",
          "name": "house",
          "type": "address"
        }
      ],
      "stateMutability": "view",
      "type": "function"
    },
    {
      "inputs": [
        {
          "internalType": "uint256",
          "name": "_id",
          "type": "uint256"
        }
      ],
      "name": "get",
      "outputs": [
        {
          "internalType": "uint256",
          "name": "",
          "type": "uint256"
        },
        {
          "internalType": "uint256",
          "name": "",
          "type": "uint256"
        },
        {
          "internalType": "contract House",
          "name": "",
          "type": "address"
        }
      ],
      "stateMutability": "view",
      "type": "function"
    },
    {
      "inputs": [
        {
          "internalType": "uint256",
          "name": "_id",
          "type": "uint256"
        }
      ],
      "name": "findPrevId",
      "outputs": [
        {
          "internalType": "uint256",
          "name": "",
          "type": "uint256"
        }
      ],
      "stateMutability": "view",
      "type": "function"
    },
    {
      "inputs": [],
      "name": "findTailId",
      "outputs": [
        {
          "internalType": "uint256",
          "name": "",
          "type": "uint256"
        }
      ],
      "stateMutability": "view",
      "type": "function"
    },
    {
      "inputs": [
        {
          "internalType": "contract House",
          "name": "_house",
          "type": "address"
        }
      ],
      "name": "findIdForHouse",
      "outputs": [
        {
          "internalType": "uint256",
          "name": "",
          "type": "uint256"
        }
      ],
      "stateMutability": "view",
      "type": "function"
    },
    {
      "inputs": [
        {
          "internalType": "contract House",
          "name": "_house",
          "type": "address"
        }
      ],
      "name": "addHead",
      "outputs": [],
      "stateMutability": "nonpayable",
      "type": "function"
    },
    {
      "inputs": [
        {
          "internalType": "contract House",
          "name": "_house",
          "type": "address"
        }
      ],
      "name": "addTail",
      "outputs": [],
      "stateMutability": "nonpayable",
      "type": "function"
    },
    {
      "inputs": [
        {
          "internalType": "uint256",
          "name": "_id",
          "type": "uint256"
        }
      ],
      "name": "remove",
      "outputs": [],
      "stateMutability": "nonpayable",
      "type": "function"
    },
    {
      "inputs": [
        {
          "internalType": "uint256",
          "name": "_prevId",
          "type": "uint256"
        },
        {
          "internalType": "contract House",
          "name": "_house",
          "type": "address"
        }
      ],
      "name": "insertAfter",
      "outputs": [],
      "stateMutability": "nonpayable",
      "type": "function"
    },
    {
      "inputs": [
        {
          "internalType": "uint256",
          "name": "_nextId",
          "type": "uint256"
        },
        {
          "internalType": "contract House",
          "name": "_house",
          "type": "address"
        }
      ],
      "name": "insertBefore",
      "outputs": [],
      "stateMutability": "nonpayable",
      "type": "function"
    }
  ],
  "bytecode": "0x608060405234801561001057600080fd5b506000808190555060018081905550610e9c8061002e6000396000f3fe608060405234801561001057600080fd5b50600436106100b45760003560e01c80639507d39a116100715780639507d39a1461018d578063a661dc86146101bf578063c873b714146101db578063debd6cf8146101f7578063eb08ab2814610213578063ed17585014610231576100b4565b80630776d802146100b95780630ee5b8ac146100d5578063479d9575146101055780634cc82215146101355780637108614a146101515780638f7dcfa31461016f575b600080fd5b6100d360048036038101906100ce9190610c57565b610263565b005b6100ef60048036038101906100ea9190610c97565b610297565b6040516100fc9190610cd3565b60405180910390f35b61011f600480360381019061011a9190610cee565b6103fd565b60405161012c9190610cd3565b60405180910390f35b61014f600480360381019061014a9190610cee565b61054a565b005b61015961069a565b6040516101669190610cd3565b60405180910390f35b6101776107d3565b6040516101849190610cd3565b60405180910390f35b6101a760048036038101906101a29190610cee565b6107d9565b6040516101b693929190610d7a565b60405180910390f35b6101d960048036038101906101d49190610c97565b610886565b005b6101f560048036038101906101f09190610c57565b6108ac565b005b610211600480360381019061020c9190610c97565b610967565b005b61021b6109a7565b6040516102289190610cd3565b60405180910390f35b61024b60048036038101906102469190610cee565b6109ad565b60405161025a93929190610d7a565b60405180910390f35b600054820361027a5761027581610886565b610293565b6000610285836103fd565b905061029181836108ac565b505b5050565b600080600260008054815260200190815260200160002060405180606001604052908160008201548152602001600182015481526020016002820160009054906101000a900473ffffffffffffffffffffffffffffffffffffffff1673ffffffffffffffffffffffffffffffffffffffff1673ffffffffffffffffffffffffffffffffffffffff168152505090505b8273ffffffffffffffffffffffffffffffffffffffff16816040015173ffffffffffffffffffffffffffffffffffffffff16146103f057600260008260200151815260200190815260200160002060405180606001604052908160008201548152602001600182015481526020016002820160009054906101000a900473ffffffffffffffffffffffffffffffffffffffff1673ffffffffffffffffffffffffffffffffffffffff1673ffffffffffffffffffffffffffffffffffffffff16815250509050610326565b8060000151915050919050565b6000805482036104105760009050610545565b6000600260008054815260200190815260200160002060405180606001604052908160008201548152602001600182015481526020016002820160009054906101000a900473ffffffffffffffffffffffffffffffffffffffff1673ffffffffffffffffffffffffffffffffffffffff1673ffffffffffffffffffffffffffffffffffffffff168152505090505b8281602001511461053c57600260008260200151815260200190815260200160002060405180606001604052908160008201548152602001600182015481526020016002820160009054906101000a900473ffffffffffffffffffffffffffffffffffffffff1673ffffffffffffffffffffffffffffffffffffffff1673ffffffffffffffffffffffffffffffffffffffff1681525050905061049e565b80600001519150505b919050565b60006002600083815260200190815260200160002060405180606001604052908160008201548152602001600182015481526020016002820160009054906101000a900473ffffffffffffffffffffffffffffffffffffffff1673ffffffffffffffffffffffffffffffffffffffff1673ffffffffffffffffffffffffffffffffffffffff1681525050905081600054036105f1576105ec81602001516109f7565b61060e565b60006105fc836103fd565b905061060c818360200151610a38565b505b600260008260000151815260200190815260200160002060008082016000905560018201600090556002820160006101000a81549073ffffffffffffffffffffffffffffffffffffffff021916905550507fe1919cab237081e04a387d81704c769f832679b068e9b87b1d6a27eb5102b9568260405161068e9190610cd3565b60405180910390a15050565b600080600260008054815260200190815260200160002060405180606001604052908160008201548152602001600182015481526020016002820160009054906101000a900473ffffffffffffffffffffffffffffffffffffffff1673ffffffffffffffffffffffffffffffffffffffff1673ffffffffffffffffffffffffffffffffffffffff168152505090505b60008160200151146107c857600260008260200151815260200190815260200160002060405180606001604052908160008201548152602001600182015481526020016002820160009054906101000a900473ffffffffffffffffffffffffffffffffffffffff1673ffffffffffffffffffffffffffffffffffffffff1673ffffffffffffffffffffffffffffffffffffffff16815250509050610729565b806000015191505090565b60005481565b6000806000806002600086815260200190815260200160002060405180606001604052908160008201548152602001600182015481526020016002820160009054906101000a900473ffffffffffffffffffffffffffffffffffffffff1673ffffffffffffffffffffffffffffffffffffffff1673ffffffffffffffffffffffffffffffffffffffff16815250509050806000015181602001518260400151935093509350509193909250565b600061089182610a90565b905061089f81600054610a38565b6108a8816109f7565b5050565b60006002600084815260200190815260200160002060405180606001604052908160008201548152602001600182015481526020016002820160009054906101000a900473ffffffffffffffffffffffffffffffffffffffff1673ffffffffffffffffffffffffffffffffffffffff1673ffffffffffffffffffffffffffffffffffffffff16815250509050600061094383610a90565b9050610953818360200151610a38565b610961826000015182610a38565b50505050565b600080540361097e5761097981610886565b6109a4565b600061098861069a565b9050600061099583610a90565b90506109a18282610a38565b50505b50565b60015481565b60026020528060005260406000206000915090508060000154908060010154908060020160009054906101000a900473ffffffffffffffffffffffffffffffffffffffff16905083565b806000819055507f58b81d35330cc08b909b14dbf5bcf7c3e769206cd0be7dd65e76e95a815439e181604051610a2d9190610cd3565b60405180910390a150565b8060026000848152602001908152602001600020600101819055507fbe1f66c94cc2553f09c996e2153854d4b74a747e3c2648161fb8daa3bfe983028282604051610a84929190610db1565b60405180910390a15050565b60008060015490506001806000828254610aaa9190610e09565b9250508190555060006040518060600160405280838152602001600081526020018573ffffffffffffffffffffffffffffffffffffffff168152509050806002600083600001518152602001908152602001600020600082015181600001556020820151816001015560408201518160020160006101000a81548173ffffffffffffffffffffffffffffffffffffffff021916908373ffffffffffffffffffffffffffffffffffffffff1602179055509050507f1d0cd468802806ad62ac5af4f05e2d6288c23d9eefeebf7f8b316b39eb5da3b581600001518260400151604051610b96929190610e3d565b60405180910390a1806000015192505050919050565b600080fd5b6000819050919050565b610bc481610bb1565b8114610bcf57600080fd5b50565b600081359050610be181610bbb565b92915050565b600073ffffffffffffffffffffffffffffffffffffffff82169050919050565b6000610c1282610be7565b9050919050565b6000610c2482610c07565b9050919050565b610c3481610c19565b8114610c3f57600080fd5b50565b600081359050610c5181610c2b565b92915050565b60008060408385031215610c6e57610c6d610bac565b5b6000610c7c85828601610bd2565b9250506020610c8d85828601610c42565b9150509250929050565b600060208284031215610cad57610cac610bac565b5b6000610cbb84828501610c42565b91505092915050565b610ccd81610bb1565b82525050565b6000602082019050610ce86000830184610cc4565b92915050565b600060208284031215610d0457610d03610bac565b5b6000610d1284828501610bd2565b91505092915050565b6000819050919050565b6000610d40610d3b610d3684610be7565b610d1b565b610be7565b9050919050565b6000610d5282610d25565b9050919050565b6000610d6482610d47565b9050919050565b610d7481610d59565b82525050565b6000606082019050610d8f6000830186610cc4565b610d9c6020830185610cc4565b610da96040830184610d6b565b949350505050565b6000604082019050610dc66000830185610cc4565b610dd36020830184610cc4565b9392505050565b7f4e487b7100000000000000000000000000000000000000000000000000000000600052601160045260246000fd5b6000610e1482610bb1565b9150610e1f83610bb1565b9250828201905080821115610e3757610e36610dda565b5b92915050565b6000604082019050610e526000830185610cc4565b610e5f6020830184610d6b565b939250505056fea2646970667358221220b57efca6546f18396d47d731312006393559ca791b19a89e44a3a5bbe8b38ccd64736f6c63430008130033",
  "immutableReferences": {},
  "source": "// SPDX-License-Identifier: Unlicense\npragma solidity >=0.4.22 <0.9.0;\n\n\n/**\n * @title LinkedList\n * @dev Data structure\n * @author Julia Groza\n */\n\nimport \"./House.sol\";\n\ncontract LinkedList {\n\n    event ObjectCreated(uint256 id, House house);\n    event ObjectsLinked(uint256 prev, uint256 next);\n    event ObjectRemoved(uint256 id);\n    event NewHead(uint256 id);\n\n    struct Object{\n        uint256 id;\n        uint256 next;\n        House house;\n    }\n\n    uint256 public head;\n    uint256 public idCounter;\n    mapping (uint256 => Object) public objects;\n\n    /**\n     * @dev Creates an empty list.\n     */\n    constructor() public {\n        head = 0;\n        idCounter = 1;\n    }\n\n    /**\n     * @dev Retrieves the Object denoted by `_id`.\n     */\n    function get(uint256 _id)\n        public\n        virtual\n        view\n        returns (uint256, uint256, House)\n    {\n        Object memory object = objects[_id];\n        return (object.id, object.next, object.house);\n    }\n\n    /**\n     * @dev Given an Object, denoted by `_id`, returns the id of the Object that points to it, or 0 if `_id` refers to the Head.\n     */\n    function findPrevId(uint256 _id)\n        public\n        virtual\n        view\n        returns (uint256)\n    {\n        if (_id == head) return 0;\n        Object memory prevObject = objects[head];\n        while (prevObject.next != _id) {\n            prevObject = objects[prevObject.next];\n        }\n        return prevObject.id;\n    }\n\n    /**\n     * @dev Returns the id for the Tail.\n     */\n    function findTailId()\n        public\n        virtual\n        view\n        returns (uint256)\n    {\n        Object memory oldTailObject = objects[head];\n        while (oldTailObject.next != 0) {\n            oldTailObject = objects[oldTailObject.next];\n        }\n        return oldTailObject.id;\n    }\n\n    /**\n     * @dev Return the id of the first Object matching `_house` in the data field.\n     */\n    function findIdForHouse(House _house)\n        public\n        virtual\n        view\n        returns (uint256)\n    {\n        Object memory object = objects[head];\n        while (object.house != _house) {\n            object = objects[object.next];\n        }\n        return object.id;\n    }\n\n    /**\n     * @dev Insert a new Object as the new Head with `_house` in the data field.\n     */\n    function addHead(House _house)\n        public\n        virtual\n    {\n        uint256 objectId = _createObject(_house);\n        _link(objectId, head);\n        _setHead(objectId);\n    }\n\n    /**\n     * @dev Insert a new Object as the new Tail with `_house` in the data field.\n     */\n    function addTail(House _house)\n        public\n        virtual\n    {\n        if (head == 0) {\n            addHead(_house);\n        }\n        else {\n            uint256 oldTailId = findTailId();\n            uint256 newTailId = _createObject(_house);\n            _link(oldTailId, newTailId);\n        }\n    }\n\n    /**\n     * @dev Remove the Object denoted by `_id` from the List.\n     */\n    function remove(uint256 _id)\n        public\n        virtual\n    {\n        Object memory removeObject = objects[_id];\n        if (head == _id) {\n            _setHead(removeObject.next);\n        }\n        else {\n            uint256 prevObjectId = findPrevId(_id);\n            _link(prevObjectId, removeObject.next);\n        }\n        delete objects[removeObject.id];\n        emit ObjectRemoved(_id);\n    }\n\n    /**\n     * @dev Insert a new Object after the Object denoted by `_id` with `_house` in the data field.\n     */\n    function insertAfter(uint256 _prevId, House _house)\n        public\n        virtual\n    {\n        Object memory prevObject = objects[_prevId];\n        uint256 newObjectId = _createObject(_house);\n        _link(newObjectId, prevObject.next);\n        _link(prevObject.id, newObjectId);\n    }\n\n    /**\n     * @dev Insert a new Object before the Object denoted by `_id` with `_house` in the data field.\n     */\n    function insertBefore(uint256 _nextId, House _house)\n        public\n        virtual\n    {\n        if (_nextId == head) {\n            addHead(_house);\n        }\n        else {\n            uint256 prevId = findPrevId(_nextId);\n            insertAfter(prevId, _house);\n        }\n    }\n\n    /**\n     * @dev Internal function to update the Head pointer.\n     */\n    function _setHead(uint256 _id)\n        internal\n    {\n        head = _id;\n        emit NewHead(_id);\n    }\n\n    /**\n     * @dev Internal function to create an unlinked Object.\n     */\n    function _createObject(House _house)\n        internal\n        returns (uint256)\n    {\n        uint256 newId = idCounter;\n        idCounter += 1;\n        Object memory object = Object(newId, 0, _house);\n        objects[object.id] = object;\n        emit ObjectCreated(\n            object.id,\n            object.house\n        );\n        return object.id;\n    }\n\n    /**\n     * @dev Internal function to link an Object to another.\n     */\n    function _link(uint256 _prevId, uint256 _nextId)\n        internal\n    {\n        objects[_prevId].next = _nextId;\n        emit ObjectsLinked(_prevId, _nextId);\n    }\n}",
  "sourcePath": "/Users/juliagroza/Desktop/virtual-net-metering/contracts/LinkedList.sol",
  "compiler": {
    "name": "solc",
    "version": "0.8.19+commit.7dd6d404.Emscripten.clang"
  },
  "schemaVersion": "3.4.14",
  "updatedAt": "2023-07-05T03:20:58.616Z",
  "devdoc": {
    "kind": "dev",
    "methods": {
      "addHead(address)": {
        "details": "Insert a new Object as the new Head with `_house` in the data field."
      },
      "addTail(address)": {
        "details": "Insert a new Object as the new Tail with `_house` in the data field."
      },
      "constructor": {
        "details": "Creates an empty list."
      },
      "findIdForHouse(address)": {
        "details": "Return the id of the first Object matching `_house` in the data field."
      },
      "findPrevId(uint256)": {
        "details": "Given an Object, denoted by `_id`, returns the id of the Object that points to it, or 0 if `_id` refers to the Head."
      },
      "findTailId()": {
        "details": "Returns the id for the Tail."
      },
      "get(uint256)": {
        "details": "Retrieves the Object denoted by `_id`."
      },
      "insertAfter(uint256,address)": {
        "details": "Insert a new Object after the Object denoted by `_id` with `_house` in the data field."
      },
      "insertBefore(uint256,address)": {
        "details": "Insert a new Object before the Object denoted by `_id` with `_house` in the data field."
      },
      "remove(uint256)": {
        "details": "Remove the Object denoted by `_id` from the List."
      }
    },
    "version": 1
  },
  "userdoc": {
    "kind": "user",
    "methods": {},
    "version": 1
  }
}